{
  "contracts/Tokenomics.sol": {
    "FloyxTokenomics": {
      "abi": [
        {
          "inputs": [
            {
              "internalType": "address",
              "name": "floyxAddress",
              "type": "address"
            },
            {
              "internalType": "bytes32[]",
              "name": "roles_",
              "type": "bytes32[]"
            },
            {
              "internalType": "address[]",
              "name": "addresses_",
              "type": "address[]"
            },
            {
              "internalType": "uint256[]",
              "name": "allowancePercentage_",
              "type": "uint256[]"
            },
            {
              "internalType": "uint256[]",
              "name": "installmentPercentage_",
              "type": "uint256[]"
            }
          ],
          "stateMutability": "nonpayable",
          "type": "constructor"
        },
        {
          "anonymous": false,
          "inputs": [
            {
              "indexed": true,
              "internalType": "address",
              "name": "recepient",
              "type": "address"
            },
            {
              "indexed": false,
              "internalType": "uint256",
              "name": "amount",
              "type": "uint256"
            }
          ],
          "name": "FundsReleased",
          "type": "event"
        },
        {
          "anonymous": false,
          "inputs": [
            {
              "indexed": true,
              "internalType": "address",
              "name": "previousOwner",
              "type": "address"
            },
            {
              "indexed": true,
              "internalType": "address",
              "name": "newOwner",
              "type": "address"
            }
          ],
          "name": "OwnershipTransferred",
          "type": "event"
        },
        {
          "inputs": [],
          "name": "ADVISOR_ROLE",
          "outputs": [
            {
              "internalType": "bytes32",
              "name": "",
              "type": "bytes32"
            }
          ],
          "stateMutability": "view",
          "type": "function"
        },
        {
          "inputs": [],
          "name": "AIRDROP_ROLE",
          "outputs": [
            {
              "internalType": "bytes32",
              "name": "",
              "type": "bytes32"
            }
          ],
          "stateMutability": "view",
          "type": "function"
        },
        {
          "inputs": [],
          "name": "DEVELOPMENT_ROLE",
          "outputs": [
            {
              "internalType": "bytes32",
              "name": "",
              "type": "bytes32"
            }
          ],
          "stateMutability": "view",
          "type": "function"
        },
        {
          "inputs": [],
          "name": "ECOSYSTEM_ROLE",
          "outputs": [
            {
              "internalType": "bytes32",
              "name": "",
              "type": "bytes32"
            }
          ],
          "stateMutability": "view",
          "type": "function"
        },
        {
          "inputs": [],
          "name": "GRANTS_ROLE",
          "outputs": [
            {
              "internalType": "bytes32",
              "name": "",
              "type": "bytes32"
            }
          ],
          "stateMutability": "view",
          "type": "function"
        },
        {
          "inputs": [],
          "name": "LIQUIDITY_ROLE",
          "outputs": [
            {
              "internalType": "bytes32",
              "name": "",
              "type": "bytes32"
            }
          ],
          "stateMutability": "view",
          "type": "function"
        },
        {
          "inputs": [],
          "name": "MARKETING_ROLE",
          "outputs": [
            {
              "internalType": "bytes32",
              "name": "",
              "type": "bytes32"
            }
          ],
          "stateMutability": "view",
          "type": "function"
        },
        {
          "inputs": [],
          "name": "TEAM_ROLE",
          "outputs": [
            {
              "internalType": "bytes32",
              "name": "",
              "type": "bytes32"
            }
          ],
          "stateMutability": "view",
          "type": "function"
        },
        {
          "inputs": [],
          "name": "TOKENSALE_ROLE",
          "outputs": [
            {
              "internalType": "bytes32",
              "name": "",
              "type": "bytes32"
            }
          ],
          "stateMutability": "view",
          "type": "function"
        },
        {
          "inputs": [],
          "name": "advisorClaim",
          "outputs": [],
          "stateMutability": "nonpayable",
          "type": "function"
        },
        {
          "inputs": [],
          "name": "airDropClaim",
          "outputs": [],
          "stateMutability": "nonpayable",
          "type": "function"
        },
        {
          "inputs": [
            {
              "internalType": "address",
              "name": "",
              "type": "address"
            }
          ],
          "name": "completedInstallments",
          "outputs": [
            {
              "internalType": "uint256",
              "name": "",
              "type": "uint256"
            }
          ],
          "stateMutability": "view",
          "type": "function"
        },
        {
          "inputs": [],
          "name": "deployedTime",
          "outputs": [
            {
              "internalType": "uint256",
              "name": "",
              "type": "uint256"
            }
          ],
          "stateMutability": "view",
          "type": "function"
        },
        {
          "inputs": [],
          "name": "developmentClaim",
          "outputs": [],
          "stateMutability": "nonpayable",
          "type": "function"
        },
        {
          "inputs": [],
          "name": "ecosystemClaim",
          "outputs": [],
          "stateMutability": "nonpayable",
          "type": "function"
        },
        {
          "inputs": [],
          "name": "grantsClaim",
          "outputs": [],
          "stateMutability": "nonpayable",
          "type": "function"
        },
        {
          "inputs": [],
          "name": "liquidityClaim",
          "outputs": [],
          "stateMutability": "nonpayable",
          "type": "function"
        },
        {
          "inputs": [],
          "name": "lockClaim",
          "outputs": [
            {
              "internalType": "bool",
              "name": "",
              "type": "bool"
            }
          ],
          "stateMutability": "view",
          "type": "function"
        },
        {
          "inputs": [],
          "name": "lockClaims",
          "outputs": [],
          "stateMutability": "nonpayable",
          "type": "function"
        },
        {
          "inputs": [],
          "name": "marketingClaim",
          "outputs": [],
          "stateMutability": "nonpayable",
          "type": "function"
        },
        {
          "inputs": [],
          "name": "owner",
          "outputs": [
            {
              "internalType": "address",
              "name": "",
              "type": "address"
            }
          ],
          "stateMutability": "view",
          "type": "function"
        },
        {
          "inputs": [
            {
              "internalType": "address",
              "name": "",
              "type": "address"
            }
          ],
          "name": "paymentPerMonth",
          "outputs": [
            {
              "internalType": "uint256",
              "name": "",
              "type": "uint256"
            }
          ],
          "stateMutability": "view",
          "type": "function"
        },
        {
          "inputs": [
            {
              "internalType": "address",
              "name": "",
              "type": "address"
            }
          ],
          "name": "remainingInstallments",
          "outputs": [
            {
              "internalType": "uint256",
              "name": "",
              "type": "uint256"
            }
          ],
          "stateMutability": "view",
          "type": "function"
        },
        {
          "inputs": [
            {
              "internalType": "bytes32",
              "name": "",
              "type": "bytes32"
            }
          ],
          "name": "roles",
          "outputs": [
            {
              "internalType": "address",
              "name": "",
              "type": "address"
            }
          ],
          "stateMutability": "view",
          "type": "function"
        },
        {
          "inputs": [],
          "name": "teamClaim",
          "outputs": [],
          "stateMutability": "nonpayable",
          "type": "function"
        },
        {
          "inputs": [
            {
              "internalType": "address",
              "name": "",
              "type": "address"
            }
          ],
          "name": "tokenAllowance",
          "outputs": [
            {
              "internalType": "uint256",
              "name": "",
              "type": "uint256"
            }
          ],
          "stateMutability": "view",
          "type": "function"
        },
        {
          "inputs": [],
          "name": "tokenSaleClaim",
          "outputs": [],
          "stateMutability": "nonpayable",
          "type": "function"
        },
        {
          "inputs": [
            {
              "internalType": "address",
              "name": "newOwner",
              "type": "address"
            }
          ],
          "name": "transferOwnership",
          "outputs": [],
          "stateMutability": "nonpayable",
          "type": "function"
        },
        {
          "inputs": [],
          "name": "unixtimeOneMonth",
          "outputs": [
            {
              "internalType": "uint256",
              "name": "",
              "type": "uint256"
            }
          ],
          "stateMutability": "view",
          "type": "function"
        },
        {
          "inputs": [],
          "name": "unlockClaims",
          "outputs": [],
          "stateMutability": "nonpayable",
          "type": "function"
        },
        {
          "inputs": [
            {
              "internalType": "bytes32[]",
              "name": "roles_",
              "type": "bytes32[]"
            },
            {
              "internalType": "address[]",
              "name": "addresses_",
              "type": "address[]"
            }
          ],
          "name": "updateAddress",
          "outputs": [],
          "stateMutability": "nonpayable",
          "type": "function"
        }
      ],
      "evm": {
        "bytecode": {
          "linkReferences": {},
          "object": "6080604052604051806060016040528060228152602001620032f96022913960019080519060200190620000359291906200079a565b506000600260006101000a81548160ff0219169083151502179055503480156200005e57600080fd5b506040516200331b3803806200331b833981810160405281019062000084919062000a75565b6000620000966200072460201b60201c565b9050806000806101000a81548173ffffffffffffffffffffffffffffffffffffffff021916908373ffffffffffffffffffffffffffffffffffffffff1602179055508073ffffffffffffffffffffffffffffffffffffffff16600073ffffffffffffffffffffffffffffffffffffffff167f8be0079c531659141344cd1fd0a4f28419497f9722a3daafe3b4186f6b6457e060405160405180910390a35083518351146200014357600080fd5b4260038190555084600460006101000a81548173ffffffffffffffffffffffffffffffffffffffff021916908373ffffffffffffffffffffffffffffffffffffffff1602179055506000600460009054906101000a900473ffffffffffffffffffffffffffffffffffffffff1673ffffffffffffffffffffffffffffffffffffffff166318160ddd6040518163ffffffff1660e01b815260040160206040518083038186803b158015620001f657600080fd5b505afa1580156200020b573d6000803e3d6000fd5b505050506040513d601f19601f8201168201806040525081019062000231919062000b5b565b905060005b84518160ff1610156200071757848160ff168151811062000280577f4e487b7100000000000000000000000000000000000000000000000000000000600052603260045260246000fd5b602002602001015160056000888460ff1681518110620002c9577f4e487b7100000000000000000000000000000000000000000000000000000000600052603260045260246000fd5b6020026020010151815260200190815260200160002060006101000a81548173ffffffffffffffffffffffffffffffffffffffff021916908373ffffffffffffffffffffffffffffffffffffffff1602179055506200037382858360ff16815181106200035f577f4e487b7100000000000000000000000000000000000000000000000000000000600052603260045260246000fd5b60200260200101516200072c60201b60201c565b60066000878460ff1681518110620003b4577f4e487b7100000000000000000000000000000000000000000000000000000000600052603260045260246000fd5b602002602001015173ffffffffffffffffffffffffffffffffffffffff1673ffffffffffffffffffffffffffffffffffffffff16815260200190815260200160002081905550620004d360066000878460ff16815181106200043f577f4e487b7100000000000000000000000000000000000000000000000000000000600052603260045260246000fd5b602002602001015173ffffffffffffffffffffffffffffffffffffffff1673ffffffffffffffffffffffffffffffffffffffff16815260200190815260200160002054848360ff1681518110620004bf577f4e487b7100000000000000000000000000000000000000000000000000000000600052603260045260246000fd5b60200260200101516200072c60201b60201c565b60076000878460ff168151811062000514577f4e487b7100000000000000000000000000000000000000000000000000000000600052603260045260246000fd5b602002602001015173ffffffffffffffffffffffffffffffffffffffff1673ffffffffffffffffffffffffffffffffffffffff168152602001908152602001600020819055506200067a60076000878460ff16815181106200059f577f4e487b7100000000000000000000000000000000000000000000000000000000600052603260045260246000fd5b602002602001015173ffffffffffffffffffffffffffffffffffffffff1673ffffffffffffffffffffffffffffffffffffffff1681526020019081526020016000205460066000888560ff168151811062000623577f4e487b7100000000000000000000000000000000000000000000000000000000600052603260045260246000fd5b602002602001015173ffffffffffffffffffffffffffffffffffffffff1673ffffffffffffffffffffffffffffffffffffffff168152602001908152602001600020546200076a60201b620011491790919060201c565b60086000878460ff1681518110620006bb577f4e487b7100000000000000000000000000000000000000000000000000000000600052603260045260246000fd5b602002602001015173ffffffffffffffffffffffffffffffffffffffff1673ffffffffffffffffffffffffffffffffffffffff1681526020019081526020016000208190555080806200070e9062000d6c565b91505062000236565b5050505050505062000ea5565b600033905090565b60006200076260646200074e84866200078260201b6200115f1790919060201c565b6200076a60201b620011491790919060201c565b905092915050565b600081836200077a919062000c48565b905092915050565b6000818362000792919062000c80565b905092915050565b828054620007a89062000d36565b90600052602060002090601f016020900481019282620007cc576000855562000818565b82601f10620007e757805160ff191683800117855562000818565b8280016001018555821562000818579182015b8281111562000817578251825591602001919060010190620007fa565b5b5090506200082791906200082b565b5090565b5b80821115620008465760008160009055506001016200082c565b5090565b6000620008616200085b8462000bbb565b62000b87565b905080838252602082019050828560208602820111156200088157600080fd5b60005b85811015620008b557816200089a8882620009a9565b84526020840193506020830192505060018101905062000884565b5050509392505050565b6000620008d6620008d08462000bea565b62000b87565b90508083825260208201905082856020860282011115620008f657600080fd5b60005b858110156200092a57816200090f888262000a47565b845260208401935060208301925050600181019050620008f9565b5050509392505050565b60006200094b620009458462000c19565b62000b87565b905080838252602082019050828560208602820111156200096b57600080fd5b60005b858110156200099f578162000984888262000a5e565b8452602084019350602083019250506001810190506200096e565b5050509392505050565b600081519050620009ba8162000e57565b92915050565b600082601f830112620009d257600080fd5b8151620009e48482602086016200084a565b91505092915050565b600082601f830112620009ff57600080fd5b815162000a11848260208601620008bf565b91505092915050565b600082601f83011262000a2c57600080fd5b815162000a3e84826020860162000934565b91505092915050565b60008151905062000a588162000e71565b92915050565b60008151905062000a6f8162000e8b565b92915050565b600080600080600060a0868803121562000a8e57600080fd5b600062000a9e88828901620009a9565b955050602086015167ffffffffffffffff81111562000abc57600080fd5b62000aca88828901620009ed565b945050604086015167ffffffffffffffff81111562000ae857600080fd5b62000af688828901620009c0565b935050606086015167ffffffffffffffff81111562000b1457600080fd5b62000b228882890162000a1a565b925050608086015167ffffffffffffffff81111562000b4057600080fd5b62000b4e8882890162000a1a565b9150509295509295909350565b60006020828403121562000b6e57600080fd5b600062000b7e8482850162000a5e565b91505092915050565b6000604051905081810181811067ffffffffffffffff8211171562000bb15762000bb062000e28565b5b8060405250919050565b600067ffffffffffffffff82111562000bd95762000bd862000e28565b5b602082029050602081019050919050565b600067ffffffffffffffff82111562000c085762000c0762000e28565b5b602082029050602081019050919050565b600067ffffffffffffffff82111562000c375762000c3662000e28565b5b602082029050602081019050919050565b600062000c558262000d1f565b915062000c628362000d1f565b92508262000c755762000c7462000dca565b5b828204905092915050565b600062000c8d8262000d1f565b915062000c9a8362000d1f565b9250817fffffffffffffffffffffffffffffffffffffffffffffffffffffffffffffffff048311821515161562000cd65762000cd562000d9b565b5b828202905092915050565b600062000cee8262000cff565b9050919050565b6000819050919050565b600073ffffffffffffffffffffffffffffffffffffffff82169050919050565b6000819050919050565b600060ff82169050919050565b6000600282049050600182168062000d4f57607f821691505b6020821081141562000d665762000d6562000df9565b5b50919050565b600062000d798262000d29565b915060ff82141562000d905762000d8f62000d9b565b5b600182019050919050565b7f4e487b7100000000000000000000000000000000000000000000000000000000600052601160045260246000fd5b7f4e487b7100000000000000000000000000000000000000000000000000000000600052601260045260246000fd5b7f4e487b7100000000000000000000000000000000000000000000000000000000600052602260045260246000fd5b7f4e487b7100000000000000000000000000000000000000000000000000000000600052604160045260246000fd5b62000e628162000ce1565b811462000e6e57600080fd5b50565b62000e7c8162000cf5565b811462000e8857600080fd5b50565b62000e968162000d1f565b811462000ea257600080fd5b50565b6124448062000eb56000396000f3fe608060405234801561001057600080fd5b50600436106101e45760003560e01c80636ae146c21161010f578063b61da8e4116100a2578063e94962ee11610071578063e94962ee146104a5578063ee6f7e98146104af578063f2fde38b146104b9578063f984f210146104d5576101e4565b8063b61da8e414610441578063c02617221461044b578063e1fc13e314610469578063e8f549ef14610487576101e4565b80638da5cb5b116100de5780638da5cb5b146103b757806395356651146103d55780639b475aa214610405578063a02f558e14610423576101e4565b80636ae146c2146103695780636e18c2581461037357806374da59d61461037d57806377cf763014610387576101e4565b80633c3b6d251161018757806352de47c11161015657806352de47c1146103075780635806334614610325578063644fd5301461034157806369d8a6081461034b576101e4565b80633c3b6d25146102a3578063461ac019146102c157806349d5e604146102df5780634d80394a146102fd576101e4565b806306792f55116101c357806306792f55146102535780630f43bc3f146102715780631e0fbfa21461027b5780631e97f53114610299576101e4565b8062b0a502146101e95780630461154614610219578063054933a714610249575b600080fd5b61020360048036038101906101fe9190611a00565b610505565b6040516102109190612049565b60405180910390f35b610233600480360381019061022e9190611a00565b61051d565b6040516102409190612049565b60405180910390f35b610251610535565b005b61025b6105c2565b6040516102689190611f0c565b60405180910390f35b6102796105e6565b005b61028361065b565b6040516102909190611f0c565b60405180910390f35b6102a161067f565b005b6102ab61070c565b6040516102b89190611f0c565b60405180910390f35b6102c9610730565b6040516102d69190612049565b60405180910390f35b6102e7610736565b6040516102f49190611f0c565b60405180910390f35b61030561075a565b005b61030f6107e7565b60405161031c9190612049565b60405180910390f35b61033f600480360381019061033a9190611a29565b6107ed565b005b610349610a5c565b005b610353610ae9565b6040516103609190611ef1565b60405180910390f35b610371610afc565b005b61037b610b89565b005b610385610c22565b005b6103a1600480360381019061039c9190611a00565b610cc5565b6040516103ae9190612049565b60405180910390f35b6103bf610cdd565b6040516103cc9190611ead565b60405180910390f35b6103ef60048036038101906103ea9190611abe565b610d06565b6040516103fc9190611ead565b60405180910390f35b61040d610d39565b60405161041a9190611f0c565b60405180910390f35b61042b610d5d565b6040516104389190611f0c565b60405180910390f35b610449610d81565b005b610453610e1a565b6040516104609190611f0c565b60405180910390f35b610471610e3e565b60405161047e9190611f0c565b60405180910390f35b61048f610e62565b60405161049c9190611f0c565b60405180910390f35b6104ad610e86565b005b6104b7610efb565b005b6104d360048036038101906104ce9190611a00565b610f88565b005b6104ef60048036038101906104ea9190611a00565b611131565b6040516104fc9190612049565b60405180910390f35b60076020528060005260406000206000915090505481565b60096020528060005260406000206000915090505481565b61055f7fdd7f4dc9b35ac72d649723b085bbc7dd3f5d3da1af9751c1605dc4aa94a9486633611175565b600061056b6000611374565b9050600081116001906105b4576040517f08c379a00000000000000000000000000000000000000000000000000000000081526004016105ab9190611f27565b60405180910390fd5b506105bf338261146b565b50565b7f9c1ca198f61ac1647c38f20b6678649f8e87b7e06309094d812edd1e9119d30981565b6106107f39a8b3e6e97619937505a2ae24f70fc909c329e7595f016056def5c61ec407f433611175565b61065933600860003373ffffffffffffffffffffffffffffffffffffffff1673ffffffffffffffffffffffffffffffffffffffff1681526020019081526020016000205461146b565b565b7f3a2f235c9daaf33349d300aadff2f15078a89df81bcfdd45ba11c8f816bddc6f81565b6106a97f175d7b85ff1bc91c4b0c406862c9875f787d29798bfc84e43d7eda7bb7543a3133611175565b60006106b56003611374565b9050600081116001906106fe576040517f08c379a00000000000000000000000000000000000000000000000000000000081526004016106f59190611f27565b60405180910390fd5b50610709338261146b565b50565b7f5351739d55170cfb22a4ca0ed7c81953f896619e021ad6df97d197953d00ffd281565b60035481565b7f5146a08baf902532d0ee2f909971144f12ca32651cd70cbee1117cddfb3b3b3381565b6107847f33ed200cce320c90b0f5226969f1f198e39ade4221f23425218e256d5152f76533611175565b60006107906000611374565b9050600081116001906107d9576040517f08c379a00000000000000000000000000000000000000000000000000000000081526004016107d09190611f27565b60405180910390fd5b506107e4338261146b565b50565b612a3081565b6107f56116ca565b73ffffffffffffffffffffffffffffffffffffffff16610813610cdd565b73ffffffffffffffffffffffffffffffffffffffff1614610869576040517f08c379a000000000000000000000000000000000000000000000000000000000815260040161086090611fe9565b60405180910390fd5b815181511461087757600080fd5b60005b82518160ff161015610a5757600073ffffffffffffffffffffffffffffffffffffffff1660056000858460ff16815181106108de577f4e487b7100000000000000000000000000000000000000000000000000000000600052603260045260246000fd5b6020026020010151815260200190815260200160002060009054906101000a900473ffffffffffffffffffffffffffffffffffffffff1673ffffffffffffffffffffffffffffffffffffffff16141561096c576040517f08c379a000000000000000000000000000000000000000000000000000000000815260040161096390612029565b60405180910390fd5b818160ff16815181106109a8577f4e487b7100000000000000000000000000000000000000000000000000000000600052603260045260246000fd5b602002602001015160056000858460ff16815181106109f0577f4e487b7100000000000000000000000000000000000000000000000000000000600052603260045260246000fd5b6020026020010151815260200190815260200160002060006101000a81548173ffffffffffffffffffffffffffffffffffffffff021916908373ffffffffffffffffffffffffffffffffffffffff1602179055508080610a4f906122e3565b91505061087a565b505050565b610a867f3a2f235c9daaf33349d300aadff2f15078a89df81bcfdd45ba11c8f816bddc6f33611175565b6000610a926000611374565b905060008111600190610adb576040517f08c379a0000000000000000000000000000000000000000000000000000000008152600401610ad29190611f27565b60405180910390fd5b50610ae6338261146b565b50565b600260009054906101000a900460ff1681565b610b267f5146a08baf902532d0ee2f909971144f12ca32651cd70cbee1117cddfb3b3b3333611175565b6000610b326000611374565b905060008111600190610b7b576040517f08c379a0000000000000000000000000000000000000000000000000000000008152600401610b729190611f27565b60405180910390fd5b50610b86338261146b565b50565b610b916116ca565b73ffffffffffffffffffffffffffffffffffffffff16610baf610cdd565b73ffffffffffffffffffffffffffffffffffffffff1614610c05576040517f08c379a0000000000000000000000000000000000000000000000000000000008152600401610bfc90611fe9565b60405180910390fd5b6000600260006101000a81548160ff021916908315150217905550565b610c4c7f9c1ca198f61ac1647c38f20b6678649f8e87b7e06309094d812edd1e9119d30933611175565b6000610c586000611374565b9050610c6e60038261114990919063ffffffff16565b905060008111600190610cb7576040517f08c379a0000000000000000000000000000000000000000000000000000000008152600401610cae9190611f27565b60405180910390fd5b50610cc2338261146b565b50565b60066020528060005260406000206000915090505481565b60008060009054906101000a900473ffffffffffffffffffffffffffffffffffffffff16905090565b60056020528060005260406000206000915054906101000a900473ffffffffffffffffffffffffffffffffffffffff1681565b7fdd7f4dc9b35ac72d649723b085bbc7dd3f5d3da1af9751c1605dc4aa94a9486681565b7fa08aacfe27eee176d3a98646161bdd8127a631f5d126a7366caa91d0f6ac9fde81565b610d896116ca565b73ffffffffffffffffffffffffffffffffffffffff16610da7610cdd565b73ffffffffffffffffffffffffffffffffffffffff1614610dfd576040517f08c379a0000000000000000000000000000000000000000000000000000000008152600401610df490611fe9565b60405180910390fd5b6001600260006101000a81548160ff021916908315150217905550565b7f175d7b85ff1bc91c4b0c406862c9875f787d29798bfc84e43d7eda7bb7543a3181565b7f33ed200cce320c90b0f5226969f1f198e39ade4221f23425218e256d5152f76581565b7f39a8b3e6e97619937505a2ae24f70fc909c329e7595f016056def5c61ec407f481565b610eb07fa08aacfe27eee176d3a98646161bdd8127a631f5d126a7366caa91d0f6ac9fde33611175565b610ef933600860003373ffffffffffffffffffffffffffffffffffffffff1673ffffffffffffffffffffffffffffffffffffffff1681526020019081526020016000205461146b565b565b610f257f5351739d55170cfb22a4ca0ed7c81953f896619e021ad6df97d197953d00ffd233611175565b6000610f316000611374565b905060008111600190610f7a576040517f08c379a0000000000000000000000000000000000000000000000000000000008152600401610f719190611f27565b60405180910390fd5b50610f85338261146b565b50565b610f906116ca565b73ffffffffffffffffffffffffffffffffffffffff16610fae610cdd565b73ffffffffffffffffffffffffffffffffffffffff1614611004576040517f08c379a0000000000000000000000000000000000000000000000000000000008152600401610ffb90611fe9565b60405180910390fd5b600073ffffffffffffffffffffffffffffffffffffffff168173ffffffffffffffffffffffffffffffffffffffff161415611074576040517f08c379a000000000000000000000000000000000000000000000000000000000815260040161106b90611f49565b60405180910390fd5b8073ffffffffffffffffffffffffffffffffffffffff1660008054906101000a900473ffffffffffffffffffffffffffffffffffffffff1673ffffffffffffffffffffffffffffffffffffffff167f8be0079c531659141344cd1fd0a4f28419497f9722a3daafe3b4186f6b6457e060405160405180910390a3806000806101000a81548173ffffffffffffffffffffffffffffffffffffffff021916908373ffffffffffffffffffffffffffffffffffffffff16021790555050565b60086020528060005260406000206000915090505481565b600081836111579190612169565b905092915050565b6000818361116d919061219a565b905092915050565b60001515600260009054906101000a900460ff161515146111cb576040517f08c379a00000000000000000000000000000000000000000000000000000000081526004016111c290611f69565b60405180910390fd5b8073ffffffffffffffffffffffffffffffffffffffff166005600084815260200190815260200160002060009054906101000a900473ffffffffffffffffffffffffffffffffffffffff1673ffffffffffffffffffffffffffffffffffffffff161461126c576040517f08c379a000000000000000000000000000000000000000000000000000000000815260040161126390612009565b60405180910390fd5b6000600660008373ffffffffffffffffffffffffffffffffffffffff1673ffffffffffffffffffffffffffffffffffffffff16815260200190815260200160002054116112ee576040517f08c379a00000000000000000000000000000000000000000000000000000000081526004016112e590611f89565b60405180910390fd5b6000600860008373ffffffffffffffffffffffffffffffffffffffff1673ffffffffffffffffffffffffffffffffffffffff1681526020019081526020016000205411611370576040517f08c379a000000000000000000000000000000000000000000000000000000000815260040161136790611fa9565b60405180910390fd5b5050565b6000804290506000611391600354836116d290919063ffffffff16565b905060006113aa612a308661115f90919063ffffffff16565b90508082116113ee576040517f08c379a00000000000000000000000000000000000000000000000000000000081526004016113e590611fc9565b60405180910390fd5b61140181836116d290919063ffffffff16565b915060008211611446576040517f08c379a000000000000000000000000000000000000000000000000000000000815260040161143d90611fc9565b60405180910390fd5b600061145d612a308461114990919063ffffffff16565b905080945050505050919050565b60006114bf600960008573ffffffffffffffffffffffffffffffffffffffff1673ffffffffffffffffffffffffffffffffffffffff16815260200190815260200160002054836116d290919063ffffffff16565b915060008290505b60008111156116b0576000600860008673ffffffffffffffffffffffffffffffffffffffff1673ffffffffffffffffffffffffffffffffffffffff16815260200190815260200160002054141561151d576116b0565b61156f600760008673ffffffffffffffffffffffffffffffffffffffff1673ffffffffffffffffffffffffffffffffffffffff16815260200190815260200160002054836116e890919063ffffffff16565b91506115c46001600860008773ffffffffffffffffffffffffffffffffffffffff1673ffffffffffffffffffffffffffffffffffffffff168152602001908152602001600020546116d290919063ffffffff16565b600860008673ffffffffffffffffffffffffffffffffffffffff1673ffffffffffffffffffffffffffffffffffffffff1681526020019081526020016000208190555061165a6001600960008773ffffffffffffffffffffffffffffffffffffffff1673ffffffffffffffffffffffffffffffffffffffff168152602001908152602001600020546116e890919063ffffffff16565b600960008673ffffffffffffffffffffffffffffffffffffffff1673ffffffffffffffffffffffffffffffffffffffff1681526020019081526020016000208190555080806116a890612287565b9150506114c7565b5060008111156116c5576116c481846116fe565b5b505050565b600033905090565b600081836116e091906121f4565b905092915050565b600081836116f69190612113565b905092915050565b61175082600660008473ffffffffffffffffffffffffffffffffffffffff1673ffffffffffffffffffffffffffffffffffffffff168152602001908152602001600020546116d290919063ffffffff16565b600660008373ffffffffffffffffffffffffffffffffffffffff1673ffffffffffffffffffffffffffffffffffffffff16815260200190815260200160002081905550600460009054906101000a900473ffffffffffffffffffffffffffffffffffffffff1673ffffffffffffffffffffffffffffffffffffffff1663a9059cbb82846040518363ffffffff1660e01b81526004016117f0929190611ec8565b602060405180830381600087803b15801561180a57600080fd5b505af115801561181e573d6000803e3d6000fd5b505050506040513d601f19601f820116820180604052508101906118429190611a95565b508073ffffffffffffffffffffffffffffffffffffffff167f221c08a06b07a64803b3787861a3f276212fcccb51c2e6234077a9b8cb13047a836040516118899190612049565b60405180910390a25050565b60006118a86118a384612095565b612064565b905080838252602082019050828560208602820111156118c757600080fd5b60005b858110156118f757816118dd888261196d565b8452602084019350602083019250506001810190506118ca565b5050509392505050565b600061191461190f846120c1565b612064565b9050808382526020820190508285602086028201111561193357600080fd5b60005b85811015611963578161194988826119eb565b845260208401935060208301925050600181019050611936565b5050509392505050565b60008135905061197c816123c9565b92915050565b600082601f83011261199357600080fd5b81356119a3848260208601611895565b91505092915050565b600082601f8301126119bd57600080fd5b81356119cd848260208601611901565b91505092915050565b6000815190506119e5816123e0565b92915050565b6000813590506119fa816123f7565b92915050565b600060208284031215611a1257600080fd5b6000611a208482850161196d565b91505092915050565b60008060408385031215611a3c57600080fd5b600083013567ffffffffffffffff811115611a5657600080fd5b611a62858286016119ac565b925050602083013567ffffffffffffffff811115611a7f57600080fd5b611a8b85828601611982565b9150509250929050565b600060208284031215611aa757600080fd5b6000611ab5848285016119d6565b91505092915050565b600060208284031215611ad057600080fd5b6000611ade848285016119eb565b91505092915050565b611af081612228565b82525050565b611aff8161223a565b82525050565b611b0e81612246565b82525050565b60008154611b21816122b1565b611b2b8186612102565b94506001821660008114611b465760018114611b5857611b8b565b60ff1983168652602086019350611b8b565b611b61856120ed565b60005b83811015611b8357815481890152600182019150602081019050611b64565b808801955050505b50505092915050565b6000611ba1602683612102565b91507f4f776e61626c653a206e6577206f776e657220697320746865207a65726f206160008301527f64647265737300000000000000000000000000000000000000000000000000006020830152604082019050919050565b6000611c07603e83612102565b91507f466c6f797820546f6b656e6f6d696373203a20436c61696d206973206c6f636b60008301527f6564206e6f772e20506c656173652074727920616761696e206c6174657200006020830152604082019050919050565b6000611c6d603783612102565b91507f466c6f797820546f6b656e6f6d696373203a20416c6c20746f6b656e2070617960008301527f6d656e747320616c726561647920636f6d706c657465640000000000000000006020830152604082019050919050565b6000611cd3602983612102565b91507f466c6f797820546f6b656e6f6d696373203a20496e7374616c6c6d656e74732060008301527f636f6d706c6574656400000000000000000000000000000000000000000000006020830152604082019050919050565b6000611d39602883612102565b91507f466c6f797820546f6b656e6f6d696373203a204c6f636b20706572696f64206960008301527f73206163746976650000000000000000000000000000000000000000000000006020830152604082019050919050565b6000611d9f602083612102565b91507f4f776e61626c653a2063616c6c6572206973206e6f7420746865206f776e65726000830152602082019050919050565b6000611ddf602183612102565b91507f466c6f797820546f6b656e6f6d696373203a20496e76616c69642063616c6c6560008301527f72000000000000000000000000000000000000000000000000000000000000006020830152604082019050919050565b6000611e45602783612102565b91507f466c6f797820546f6b656e6f6d696373203a20526f6c6520646f6573206e6f7460008301527f20657869737473000000000000000000000000000000000000000000000000006020830152604082019050919050565b611ea781612270565b82525050565b6000602082019050611ec26000830184611ae7565b92915050565b6000604082019050611edd6000830185611ae7565b611eea6020830184611e9e565b9392505050565b6000602082019050611f066000830184611af6565b92915050565b6000602082019050611f216000830184611b05565b92915050565b60006020820190508181036000830152611f418184611b14565b905092915050565b60006020820190508181036000830152611f6281611b94565b9050919050565b60006020820190508181036000830152611f8281611bfa565b9050919050565b60006020820190508181036000830152611fa281611c60565b9050919050565b60006020820190508181036000830152611fc281611cc6565b9050919050565b60006020820190508181036000830152611fe281611d2c565b9050919050565b6000602082019050818103600083015261200281611d92565b9050919050565b6000602082019050818103600083015261202281611dd2565b9050919050565b6000602082019050818103600083015261204281611e38565b9050919050565b600060208201905061205e6000830184611e9e565b92915050565b6000604051905081810181811067ffffffffffffffff8211171561208b5761208a61239a565b5b8060405250919050565b600067ffffffffffffffff8211156120b0576120af61239a565b5b602082029050602081019050919050565b600067ffffffffffffffff8211156120dc576120db61239a565b5b602082029050602081019050919050565b60008190508160005260206000209050919050565b600082825260208201905092915050565b600061211e82612270565b915061212983612270565b9250827fffffffffffffffffffffffffffffffffffffffffffffffffffffffffffffffff0382111561215e5761215d61230d565b5b828201905092915050565b600061217482612270565b915061217f83612270565b92508261218f5761218e61233c565b5b828204905092915050565b60006121a582612270565b91506121b083612270565b9250817fffffffffffffffffffffffffffffffffffffffffffffffffffffffffffffffff04831182151516156121e9576121e861230d565b5b828202905092915050565b60006121ff82612270565b915061220a83612270565b92508282101561221d5761221c61230d565b5b828203905092915050565b600061223382612250565b9050919050565b60008115159050919050565b6000819050919050565b600073ffffffffffffffffffffffffffffffffffffffff82169050919050565b6000819050919050565b600060ff82169050919050565b600061229282612270565b915060008214156122a6576122a561230d565b5b600182039050919050565b600060028204905060018216806122c957607f821691505b602082108114156122dd576122dc61236b565b5b50919050565b60006122ee8261227a565b915060ff8214156123025761230161230d565b5b600182019050919050565b7f4e487b7100000000000000000000000000000000000000000000000000000000600052601160045260246000fd5b7f4e487b7100000000000000000000000000000000000000000000000000000000600052601260045260246000fd5b7f4e487b7100000000000000000000000000000000000000000000000000000000600052602260045260246000fd5b7f4e487b7100000000000000000000000000000000000000000000000000000000600052604160045260246000fd5b6123d281612228565b81146123dd57600080fd5b50565b6123e98161223a565b81146123f457600080fd5b50565b61240081612246565b811461240b57600080fd5b5056fea2646970667358221220565e78a673fe705b6908e4cee994462700c9260d4630b5cb3ed940f0d596d8db64736f6c63430008000033466c6f797820546f6b656e6f6d696373203a204e6f20647565205061796d656e7473",
          "opcodes": "PUSH1 0x80 PUSH1 0x40 MSTORE PUSH1 0x40 MLOAD DUP1 PUSH1 0x60 ADD PUSH1 0x40 MSTORE DUP1 PUSH1 0x22 DUP2 MSTORE PUSH1 0x20 ADD PUSH3 0x32F9 PUSH1 0x22 SWAP2 CODECOPY PUSH1 0x1 SWAP1 DUP1 MLOAD SWAP1 PUSH1 0x20 ADD SWAP1 PUSH3 0x35 SWAP3 SWAP2 SWAP1 PUSH3 0x79A JUMP JUMPDEST POP PUSH1 0x0 PUSH1 0x2 PUSH1 0x0 PUSH2 0x100 EXP DUP2 SLOAD DUP2 PUSH1 0xFF MUL NOT AND SWAP1 DUP4 ISZERO ISZERO MUL OR SWAP1 SSTORE POP CALLVALUE DUP1 ISZERO PUSH3 0x5E JUMPI PUSH1 0x0 DUP1 REVERT JUMPDEST POP PUSH1 0x40 MLOAD PUSH3 0x331B CODESIZE SUB DUP1 PUSH3 0x331B DUP4 CODECOPY DUP2 DUP2 ADD PUSH1 0x40 MSTORE DUP2 ADD SWAP1 PUSH3 0x84 SWAP2 SWAP1 PUSH3 0xA75 JUMP JUMPDEST PUSH1 0x0 PUSH3 0x96 PUSH3 0x724 PUSH1 0x20 SHL PUSH1 0x20 SHR JUMP JUMPDEST SWAP1 POP DUP1 PUSH1 0x0 DUP1 PUSH2 0x100 EXP DUP2 SLOAD DUP2 PUSH20 0xFFFFFFFFFFFFFFFFFFFFFFFFFFFFFFFFFFFFFFFF MUL NOT AND SWAP1 DUP4 PUSH20 0xFFFFFFFFFFFFFFFFFFFFFFFFFFFFFFFFFFFFFFFF AND MUL OR SWAP1 SSTORE POP DUP1 PUSH20 0xFFFFFFFFFFFFFFFFFFFFFFFFFFFFFFFFFFFFFFFF AND PUSH1 0x0 PUSH20 0xFFFFFFFFFFFFFFFFFFFFFFFFFFFFFFFFFFFFFFFF AND PUSH32 0x8BE0079C531659141344CD1FD0A4F28419497F9722A3DAAFE3B4186F6B6457E0 PUSH1 0x40 MLOAD PUSH1 0x40 MLOAD DUP1 SWAP2 SUB SWAP1 LOG3 POP DUP4 MLOAD DUP4 MLOAD EQ PUSH3 0x143 JUMPI PUSH1 0x0 DUP1 REVERT JUMPDEST TIMESTAMP PUSH1 0x3 DUP2 SWAP1 SSTORE POP DUP5 PUSH1 0x4 PUSH1 0x0 PUSH2 0x100 EXP DUP2 SLOAD DUP2 PUSH20 0xFFFFFFFFFFFFFFFFFFFFFFFFFFFFFFFFFFFFFFFF MUL NOT AND SWAP1 DUP4 PUSH20 0xFFFFFFFFFFFFFFFFFFFFFFFFFFFFFFFFFFFFFFFF AND MUL OR SWAP1 SSTORE POP PUSH1 0x0 PUSH1 0x4 PUSH1 0x0 SWAP1 SLOAD SWAP1 PUSH2 0x100 EXP SWAP1 DIV PUSH20 0xFFFFFFFFFFFFFFFFFFFFFFFFFFFFFFFFFFFFFFFF AND PUSH20 0xFFFFFFFFFFFFFFFFFFFFFFFFFFFFFFFFFFFFFFFF AND PUSH4 0x18160DDD PUSH1 0x40 MLOAD DUP2 PUSH4 0xFFFFFFFF AND PUSH1 0xE0 SHL DUP2 MSTORE PUSH1 0x4 ADD PUSH1 0x20 PUSH1 0x40 MLOAD DUP1 DUP4 SUB DUP2 DUP7 DUP1 EXTCODESIZE ISZERO DUP1 ISZERO PUSH3 0x1F6 JUMPI PUSH1 0x0 DUP1 REVERT JUMPDEST POP GAS STATICCALL ISZERO DUP1 ISZERO PUSH3 0x20B JUMPI RETURNDATASIZE PUSH1 0x0 DUP1 RETURNDATACOPY RETURNDATASIZE PUSH1 0x0 REVERT JUMPDEST POP POP POP POP PUSH1 0x40 MLOAD RETURNDATASIZE PUSH1 0x1F NOT PUSH1 0x1F DUP3 ADD AND DUP3 ADD DUP1 PUSH1 0x40 MSTORE POP DUP2 ADD SWAP1 PUSH3 0x231 SWAP2 SWAP1 PUSH3 0xB5B JUMP JUMPDEST SWAP1 POP PUSH1 0x0 JUMPDEST DUP5 MLOAD DUP2 PUSH1 0xFF AND LT ISZERO PUSH3 0x717 JUMPI DUP5 DUP2 PUSH1 0xFF AND DUP2 MLOAD DUP2 LT PUSH3 0x280 JUMPI PUSH32 0x4E487B7100000000000000000000000000000000000000000000000000000000 PUSH1 0x0 MSTORE PUSH1 0x32 PUSH1 0x4 MSTORE PUSH1 0x24 PUSH1 0x0 REVERT JUMPDEST PUSH1 0x20 MUL PUSH1 0x20 ADD ADD MLOAD PUSH1 0x5 PUSH1 0x0 DUP9 DUP5 PUSH1 0xFF AND DUP2 MLOAD DUP2 LT PUSH3 0x2C9 JUMPI PUSH32 0x4E487B7100000000000000000000000000000000000000000000000000000000 PUSH1 0x0 MSTORE PUSH1 0x32 PUSH1 0x4 MSTORE PUSH1 0x24 PUSH1 0x0 REVERT JUMPDEST PUSH1 0x20 MUL PUSH1 0x20 ADD ADD MLOAD DUP2 MSTORE PUSH1 0x20 ADD SWAP1 DUP2 MSTORE PUSH1 0x20 ADD PUSH1 0x0 KECCAK256 PUSH1 0x0 PUSH2 0x100 EXP DUP2 SLOAD DUP2 PUSH20 0xFFFFFFFFFFFFFFFFFFFFFFFFFFFFFFFFFFFFFFFF MUL NOT AND SWAP1 DUP4 PUSH20 0xFFFFFFFFFFFFFFFFFFFFFFFFFFFFFFFFFFFFFFFF AND MUL OR SWAP1 SSTORE POP PUSH3 0x373 DUP3 DUP6 DUP4 PUSH1 0xFF AND DUP2 MLOAD DUP2 LT PUSH3 0x35F JUMPI PUSH32 0x4E487B7100000000000000000000000000000000000000000000000000000000 PUSH1 0x0 MSTORE PUSH1 0x32 PUSH1 0x4 MSTORE PUSH1 0x24 PUSH1 0x0 REVERT JUMPDEST PUSH1 0x20 MUL PUSH1 0x20 ADD ADD MLOAD PUSH3 0x72C PUSH1 0x20 SHL PUSH1 0x20 SHR JUMP JUMPDEST PUSH1 0x6 PUSH1 0x0 DUP8 DUP5 PUSH1 0xFF AND DUP2 MLOAD DUP2 LT PUSH3 0x3B4 JUMPI PUSH32 0x4E487B7100000000000000000000000000000000000000000000000000000000 PUSH1 0x0 MSTORE PUSH1 0x32 PUSH1 0x4 MSTORE PUSH1 0x24 PUSH1 0x0 REVERT JUMPDEST PUSH1 0x20 MUL PUSH1 0x20 ADD ADD MLOAD PUSH20 0xFFFFFFFFFFFFFFFFFFFFFFFFFFFFFFFFFFFFFFFF AND PUSH20 0xFFFFFFFFFFFFFFFFFFFFFFFFFFFFFFFFFFFFFFFF AND DUP2 MSTORE PUSH1 0x20 ADD SWAP1 DUP2 MSTORE PUSH1 0x20 ADD PUSH1 0x0 KECCAK256 DUP2 SWAP1 SSTORE POP PUSH3 0x4D3 PUSH1 0x6 PUSH1 0x0 DUP8 DUP5 PUSH1 0xFF AND DUP2 MLOAD DUP2 LT PUSH3 0x43F JUMPI PUSH32 0x4E487B7100000000000000000000000000000000000000000000000000000000 PUSH1 0x0 MSTORE PUSH1 0x32 PUSH1 0x4 MSTORE PUSH1 0x24 PUSH1 0x0 REVERT JUMPDEST PUSH1 0x20 MUL PUSH1 0x20 ADD ADD MLOAD PUSH20 0xFFFFFFFFFFFFFFFFFFFFFFFFFFFFFFFFFFFFFFFF AND PUSH20 0xFFFFFFFFFFFFFFFFFFFFFFFFFFFFFFFFFFFFFFFF AND DUP2 MSTORE PUSH1 0x20 ADD SWAP1 DUP2 MSTORE PUSH1 0x20 ADD PUSH1 0x0 KECCAK256 SLOAD DUP5 DUP4 PUSH1 0xFF AND DUP2 MLOAD DUP2 LT PUSH3 0x4BF JUMPI PUSH32 0x4E487B7100000000000000000000000000000000000000000000000000000000 PUSH1 0x0 MSTORE PUSH1 0x32 PUSH1 0x4 MSTORE PUSH1 0x24 PUSH1 0x0 REVERT JUMPDEST PUSH1 0x20 MUL PUSH1 0x20 ADD ADD MLOAD PUSH3 0x72C PUSH1 0x20 SHL PUSH1 0x20 SHR JUMP JUMPDEST PUSH1 0x7 PUSH1 0x0 DUP8 DUP5 PUSH1 0xFF AND DUP2 MLOAD DUP2 LT PUSH3 0x514 JUMPI PUSH32 0x4E487B7100000000000000000000000000000000000000000000000000000000 PUSH1 0x0 MSTORE PUSH1 0x32 PUSH1 0x4 MSTORE PUSH1 0x24 PUSH1 0x0 REVERT JUMPDEST PUSH1 0x20 MUL PUSH1 0x20 ADD ADD MLOAD PUSH20 0xFFFFFFFFFFFFFFFFFFFFFFFFFFFFFFFFFFFFFFFF AND PUSH20 0xFFFFFFFFFFFFFFFFFFFFFFFFFFFFFFFFFFFFFFFF AND DUP2 MSTORE PUSH1 0x20 ADD SWAP1 DUP2 MSTORE PUSH1 0x20 ADD PUSH1 0x0 KECCAK256 DUP2 SWAP1 SSTORE POP PUSH3 0x67A PUSH1 0x7 PUSH1 0x0 DUP8 DUP5 PUSH1 0xFF AND DUP2 MLOAD DUP2 LT PUSH3 0x59F JUMPI PUSH32 0x4E487B7100000000000000000000000000000000000000000000000000000000 PUSH1 0x0 MSTORE PUSH1 0x32 PUSH1 0x4 MSTORE PUSH1 0x24 PUSH1 0x0 REVERT JUMPDEST PUSH1 0x20 MUL PUSH1 0x20 ADD ADD MLOAD PUSH20 0xFFFFFFFFFFFFFFFFFFFFFFFFFFFFFFFFFFFFFFFF AND PUSH20 0xFFFFFFFFFFFFFFFFFFFFFFFFFFFFFFFFFFFFFFFF AND DUP2 MSTORE PUSH1 0x20 ADD SWAP1 DUP2 MSTORE PUSH1 0x20 ADD PUSH1 0x0 KECCAK256 SLOAD PUSH1 0x6 PUSH1 0x0 DUP9 DUP6 PUSH1 0xFF AND DUP2 MLOAD DUP2 LT PUSH3 0x623 JUMPI PUSH32 0x4E487B7100000000000000000000000000000000000000000000000000000000 PUSH1 0x0 MSTORE PUSH1 0x32 PUSH1 0x4 MSTORE PUSH1 0x24 PUSH1 0x0 REVERT JUMPDEST PUSH1 0x20 MUL PUSH1 0x20 ADD ADD MLOAD PUSH20 0xFFFFFFFFFFFFFFFFFFFFFFFFFFFFFFFFFFFFFFFF AND PUSH20 0xFFFFFFFFFFFFFFFFFFFFFFFFFFFFFFFFFFFFFFFF AND DUP2 MSTORE PUSH1 0x20 ADD SWAP1 DUP2 MSTORE PUSH1 0x20 ADD PUSH1 0x0 KECCAK256 SLOAD PUSH3 0x76A PUSH1 0x20 SHL PUSH3 0x1149 OR SWAP1 SWAP2 SWAP1 PUSH1 0x20 SHR JUMP JUMPDEST PUSH1 0x8 PUSH1 0x0 DUP8 DUP5 PUSH1 0xFF AND DUP2 MLOAD DUP2 LT PUSH3 0x6BB JUMPI PUSH32 0x4E487B7100000000000000000000000000000000000000000000000000000000 PUSH1 0x0 MSTORE PUSH1 0x32 PUSH1 0x4 MSTORE PUSH1 0x24 PUSH1 0x0 REVERT JUMPDEST PUSH1 0x20 MUL PUSH1 0x20 ADD ADD MLOAD PUSH20 0xFFFFFFFFFFFFFFFFFFFFFFFFFFFFFFFFFFFFFFFF AND PUSH20 0xFFFFFFFFFFFFFFFFFFFFFFFFFFFFFFFFFFFFFFFF AND DUP2 MSTORE PUSH1 0x20 ADD SWAP1 DUP2 MSTORE PUSH1 0x20 ADD PUSH1 0x0 KECCAK256 DUP2 SWAP1 SSTORE POP DUP1 DUP1 PUSH3 0x70E SWAP1 PUSH3 0xD6C JUMP JUMPDEST SWAP2 POP POP PUSH3 0x236 JUMP JUMPDEST POP POP POP POP POP POP POP PUSH3 0xEA5 JUMP JUMPDEST PUSH1 0x0 CALLER SWAP1 POP SWAP1 JUMP JUMPDEST PUSH1 0x0 PUSH3 0x762 PUSH1 0x64 PUSH3 0x74E DUP5 DUP7 PUSH3 0x782 PUSH1 0x20 SHL PUSH3 0x115F OR SWAP1 SWAP2 SWAP1 PUSH1 0x20 SHR JUMP JUMPDEST PUSH3 0x76A PUSH1 0x20 SHL PUSH3 0x1149 OR SWAP1 SWAP2 SWAP1 PUSH1 0x20 SHR JUMP JUMPDEST SWAP1 POP SWAP3 SWAP2 POP POP JUMP JUMPDEST PUSH1 0x0 DUP2 DUP4 PUSH3 0x77A SWAP2 SWAP1 PUSH3 0xC48 JUMP JUMPDEST SWAP1 POP SWAP3 SWAP2 POP POP JUMP JUMPDEST PUSH1 0x0 DUP2 DUP4 PUSH3 0x792 SWAP2 SWAP1 PUSH3 0xC80 JUMP JUMPDEST SWAP1 POP SWAP3 SWAP2 POP POP JUMP JUMPDEST DUP3 DUP1 SLOAD PUSH3 0x7A8 SWAP1 PUSH3 0xD36 JUMP JUMPDEST SWAP1 PUSH1 0x0 MSTORE PUSH1 0x20 PUSH1 0x0 KECCAK256 SWAP1 PUSH1 0x1F ADD PUSH1 0x20 SWAP1 DIV DUP2 ADD SWAP3 DUP3 PUSH3 0x7CC JUMPI PUSH1 0x0 DUP6 SSTORE PUSH3 0x818 JUMP JUMPDEST DUP3 PUSH1 0x1F LT PUSH3 0x7E7 JUMPI DUP1 MLOAD PUSH1 0xFF NOT AND DUP4 DUP1 ADD OR DUP6 SSTORE PUSH3 0x818 JUMP JUMPDEST DUP3 DUP1 ADD PUSH1 0x1 ADD DUP6 SSTORE DUP3 ISZERO PUSH3 0x818 JUMPI SWAP2 DUP3 ADD JUMPDEST DUP3 DUP2 GT ISZERO PUSH3 0x817 JUMPI DUP3 MLOAD DUP3 SSTORE SWAP2 PUSH1 0x20 ADD SWAP2 SWAP1 PUSH1 0x1 ADD SWAP1 PUSH3 0x7FA JUMP JUMPDEST JUMPDEST POP SWAP1 POP PUSH3 0x827 SWAP2 SWAP1 PUSH3 0x82B JUMP JUMPDEST POP SWAP1 JUMP JUMPDEST JUMPDEST DUP1 DUP3 GT ISZERO PUSH3 0x846 JUMPI PUSH1 0x0 DUP2 PUSH1 0x0 SWAP1 SSTORE POP PUSH1 0x1 ADD PUSH3 0x82C JUMP JUMPDEST POP SWAP1 JUMP JUMPDEST PUSH1 0x0 PUSH3 0x861 PUSH3 0x85B DUP5 PUSH3 0xBBB JUMP JUMPDEST PUSH3 0xB87 JUMP JUMPDEST SWAP1 POP DUP1 DUP4 DUP3 MSTORE PUSH1 0x20 DUP3 ADD SWAP1 POP DUP3 DUP6 PUSH1 0x20 DUP7 MUL DUP3 ADD GT ISZERO PUSH3 0x881 JUMPI PUSH1 0x0 DUP1 REVERT JUMPDEST PUSH1 0x0 JUMPDEST DUP6 DUP2 LT ISZERO PUSH3 0x8B5 JUMPI DUP2 PUSH3 0x89A DUP9 DUP3 PUSH3 0x9A9 JUMP JUMPDEST DUP5 MSTORE PUSH1 0x20 DUP5 ADD SWAP4 POP PUSH1 0x20 DUP4 ADD SWAP3 POP POP PUSH1 0x1 DUP2 ADD SWAP1 POP PUSH3 0x884 JUMP JUMPDEST POP POP POP SWAP4 SWAP3 POP POP POP JUMP JUMPDEST PUSH1 0x0 PUSH3 0x8D6 PUSH3 0x8D0 DUP5 PUSH3 0xBEA JUMP JUMPDEST PUSH3 0xB87 JUMP JUMPDEST SWAP1 POP DUP1 DUP4 DUP3 MSTORE PUSH1 0x20 DUP3 ADD SWAP1 POP DUP3 DUP6 PUSH1 0x20 DUP7 MUL DUP3 ADD GT ISZERO PUSH3 0x8F6 JUMPI PUSH1 0x0 DUP1 REVERT JUMPDEST PUSH1 0x0 JUMPDEST DUP6 DUP2 LT ISZERO PUSH3 0x92A JUMPI DUP2 PUSH3 0x90F DUP9 DUP3 PUSH3 0xA47 JUMP JUMPDEST DUP5 MSTORE PUSH1 0x20 DUP5 ADD SWAP4 POP PUSH1 0x20 DUP4 ADD SWAP3 POP POP PUSH1 0x1 DUP2 ADD SWAP1 POP PUSH3 0x8F9 JUMP JUMPDEST POP POP POP SWAP4 SWAP3 POP POP POP JUMP JUMPDEST PUSH1 0x0 PUSH3 0x94B PUSH3 0x945 DUP5 PUSH3 0xC19 JUMP JUMPDEST PUSH3 0xB87 JUMP JUMPDEST SWAP1 POP DUP1 DUP4 DUP3 MSTORE PUSH1 0x20 DUP3 ADD SWAP1 POP DUP3 DUP6 PUSH1 0x20 DUP7 MUL DUP3 ADD GT ISZERO PUSH3 0x96B JUMPI PUSH1 0x0 DUP1 REVERT JUMPDEST PUSH1 0x0 JUMPDEST DUP6 DUP2 LT ISZERO PUSH3 0x99F JUMPI DUP2 PUSH3 0x984 DUP9 DUP3 PUSH3 0xA5E JUMP JUMPDEST DUP5 MSTORE PUSH1 0x20 DUP5 ADD SWAP4 POP PUSH1 0x20 DUP4 ADD SWAP3 POP POP PUSH1 0x1 DUP2 ADD SWAP1 POP PUSH3 0x96E JUMP JUMPDEST POP POP POP SWAP4 SWAP3 POP POP POP JUMP JUMPDEST PUSH1 0x0 DUP2 MLOAD SWAP1 POP PUSH3 0x9BA DUP2 PUSH3 0xE57 JUMP JUMPDEST SWAP3 SWAP2 POP POP JUMP JUMPDEST PUSH1 0x0 DUP3 PUSH1 0x1F DUP4 ADD SLT PUSH3 0x9D2 JUMPI PUSH1 0x0 DUP1 REVERT JUMPDEST DUP2 MLOAD PUSH3 0x9E4 DUP5 DUP3 PUSH1 0x20 DUP7 ADD PUSH3 0x84A JUMP JUMPDEST SWAP2 POP POP SWAP3 SWAP2 POP POP JUMP JUMPDEST PUSH1 0x0 DUP3 PUSH1 0x1F DUP4 ADD SLT PUSH3 0x9FF JUMPI PUSH1 0x0 DUP1 REVERT JUMPDEST DUP2 MLOAD PUSH3 0xA11 DUP5 DUP3 PUSH1 0x20 DUP7 ADD PUSH3 0x8BF JUMP JUMPDEST SWAP2 POP POP SWAP3 SWAP2 POP POP JUMP JUMPDEST PUSH1 0x0 DUP3 PUSH1 0x1F DUP4 ADD SLT PUSH3 0xA2C JUMPI PUSH1 0x0 DUP1 REVERT JUMPDEST DUP2 MLOAD PUSH3 0xA3E DUP5 DUP3 PUSH1 0x20 DUP7 ADD PUSH3 0x934 JUMP JUMPDEST SWAP2 POP POP SWAP3 SWAP2 POP POP JUMP JUMPDEST PUSH1 0x0 DUP2 MLOAD SWAP1 POP PUSH3 0xA58 DUP2 PUSH3 0xE71 JUMP JUMPDEST SWAP3 SWAP2 POP POP JUMP JUMPDEST PUSH1 0x0 DUP2 MLOAD SWAP1 POP PUSH3 0xA6F DUP2 PUSH3 0xE8B JUMP JUMPDEST SWAP3 SWAP2 POP POP JUMP JUMPDEST PUSH1 0x0 DUP1 PUSH1 0x0 DUP1 PUSH1 0x0 PUSH1 0xA0 DUP7 DUP9 SUB SLT ISZERO PUSH3 0xA8E JUMPI PUSH1 0x0 DUP1 REVERT JUMPDEST PUSH1 0x0 PUSH3 0xA9E DUP9 DUP3 DUP10 ADD PUSH3 0x9A9 JUMP JUMPDEST SWAP6 POP POP PUSH1 0x20 DUP7 ADD MLOAD PUSH8 0xFFFFFFFFFFFFFFFF DUP2 GT ISZERO PUSH3 0xABC JUMPI PUSH1 0x0 DUP1 REVERT JUMPDEST PUSH3 0xACA DUP9 DUP3 DUP10 ADD PUSH3 0x9ED JUMP JUMPDEST SWAP5 POP POP PUSH1 0x40 DUP7 ADD MLOAD PUSH8 0xFFFFFFFFFFFFFFFF DUP2 GT ISZERO PUSH3 0xAE8 JUMPI PUSH1 0x0 DUP1 REVERT JUMPDEST PUSH3 0xAF6 DUP9 DUP3 DUP10 ADD PUSH3 0x9C0 JUMP JUMPDEST SWAP4 POP POP PUSH1 0x60 DUP7 ADD MLOAD PUSH8 0xFFFFFFFFFFFFFFFF DUP2 GT ISZERO PUSH3 0xB14 JUMPI PUSH1 0x0 DUP1 REVERT JUMPDEST PUSH3 0xB22 DUP9 DUP3 DUP10 ADD PUSH3 0xA1A JUMP JUMPDEST SWAP3 POP POP PUSH1 0x80 DUP7 ADD MLOAD PUSH8 0xFFFFFFFFFFFFFFFF DUP2 GT ISZERO PUSH3 0xB40 JUMPI PUSH1 0x0 DUP1 REVERT JUMPDEST PUSH3 0xB4E DUP9 DUP3 DUP10 ADD PUSH3 0xA1A JUMP JUMPDEST SWAP2 POP POP SWAP3 SWAP6 POP SWAP3 SWAP6 SWAP1 SWAP4 POP JUMP JUMPDEST PUSH1 0x0 PUSH1 0x20 DUP3 DUP5 SUB SLT ISZERO PUSH3 0xB6E JUMPI PUSH1 0x0 DUP1 REVERT JUMPDEST PUSH1 0x0 PUSH3 0xB7E DUP5 DUP3 DUP6 ADD PUSH3 0xA5E JUMP JUMPDEST SWAP2 POP POP SWAP3 SWAP2 POP POP JUMP JUMPDEST PUSH1 0x0 PUSH1 0x40 MLOAD SWAP1 POP DUP2 DUP2 ADD DUP2 DUP2 LT PUSH8 0xFFFFFFFFFFFFFFFF DUP3 GT OR ISZERO PUSH3 0xBB1 JUMPI PUSH3 0xBB0 PUSH3 0xE28 JUMP JUMPDEST JUMPDEST DUP1 PUSH1 0x40 MSTORE POP SWAP2 SWAP1 POP JUMP JUMPDEST PUSH1 0x0 PUSH8 0xFFFFFFFFFFFFFFFF DUP3 GT ISZERO PUSH3 0xBD9 JUMPI PUSH3 0xBD8 PUSH3 0xE28 JUMP JUMPDEST JUMPDEST PUSH1 0x20 DUP3 MUL SWAP1 POP PUSH1 0x20 DUP2 ADD SWAP1 POP SWAP2 SWAP1 POP JUMP JUMPDEST PUSH1 0x0 PUSH8 0xFFFFFFFFFFFFFFFF DUP3 GT ISZERO PUSH3 0xC08 JUMPI PUSH3 0xC07 PUSH3 0xE28 JUMP JUMPDEST JUMPDEST PUSH1 0x20 DUP3 MUL SWAP1 POP PUSH1 0x20 DUP2 ADD SWAP1 POP SWAP2 SWAP1 POP JUMP JUMPDEST PUSH1 0x0 PUSH8 0xFFFFFFFFFFFFFFFF DUP3 GT ISZERO PUSH3 0xC37 JUMPI PUSH3 0xC36 PUSH3 0xE28 JUMP JUMPDEST JUMPDEST PUSH1 0x20 DUP3 MUL SWAP1 POP PUSH1 0x20 DUP2 ADD SWAP1 POP SWAP2 SWAP1 POP JUMP JUMPDEST PUSH1 0x0 PUSH3 0xC55 DUP3 PUSH3 0xD1F JUMP JUMPDEST SWAP2 POP PUSH3 0xC62 DUP4 PUSH3 0xD1F JUMP JUMPDEST SWAP3 POP DUP3 PUSH3 0xC75 JUMPI PUSH3 0xC74 PUSH3 0xDCA JUMP JUMPDEST JUMPDEST DUP3 DUP3 DIV SWAP1 POP SWAP3 SWAP2 POP POP JUMP JUMPDEST PUSH1 0x0 PUSH3 0xC8D DUP3 PUSH3 0xD1F JUMP JUMPDEST SWAP2 POP PUSH3 0xC9A DUP4 PUSH3 0xD1F JUMP JUMPDEST SWAP3 POP DUP2 PUSH32 0xFFFFFFFFFFFFFFFFFFFFFFFFFFFFFFFFFFFFFFFFFFFFFFFFFFFFFFFFFFFFFFFF DIV DUP4 GT DUP3 ISZERO ISZERO AND ISZERO PUSH3 0xCD6 JUMPI PUSH3 0xCD5 PUSH3 0xD9B JUMP JUMPDEST JUMPDEST DUP3 DUP3 MUL SWAP1 POP SWAP3 SWAP2 POP POP JUMP JUMPDEST PUSH1 0x0 PUSH3 0xCEE DUP3 PUSH3 0xCFF JUMP JUMPDEST SWAP1 POP SWAP2 SWAP1 POP JUMP JUMPDEST PUSH1 0x0 DUP2 SWAP1 POP SWAP2 SWAP1 POP JUMP JUMPDEST PUSH1 0x0 PUSH20 0xFFFFFFFFFFFFFFFFFFFFFFFFFFFFFFFFFFFFFFFF DUP3 AND SWAP1 POP SWAP2 SWAP1 POP JUMP JUMPDEST PUSH1 0x0 DUP2 SWAP1 POP SWAP2 SWAP1 POP JUMP JUMPDEST PUSH1 0x0 PUSH1 0xFF DUP3 AND SWAP1 POP SWAP2 SWAP1 POP JUMP JUMPDEST PUSH1 0x0 PUSH1 0x2 DUP3 DIV SWAP1 POP PUSH1 0x1 DUP3 AND DUP1 PUSH3 0xD4F JUMPI PUSH1 0x7F DUP3 AND SWAP2 POP JUMPDEST PUSH1 0x20 DUP3 LT DUP2 EQ ISZERO PUSH3 0xD66 JUMPI PUSH3 0xD65 PUSH3 0xDF9 JUMP JUMPDEST JUMPDEST POP SWAP2 SWAP1 POP JUMP JUMPDEST PUSH1 0x0 PUSH3 0xD79 DUP3 PUSH3 0xD29 JUMP JUMPDEST SWAP2 POP PUSH1 0xFF DUP3 EQ ISZERO PUSH3 0xD90 JUMPI PUSH3 0xD8F PUSH3 0xD9B JUMP JUMPDEST JUMPDEST PUSH1 0x1 DUP3 ADD SWAP1 POP SWAP2 SWAP1 POP JUMP JUMPDEST PUSH32 0x4E487B7100000000000000000000000000000000000000000000000000000000 PUSH1 0x0 MSTORE PUSH1 0x11 PUSH1 0x4 MSTORE PUSH1 0x24 PUSH1 0x0 REVERT JUMPDEST PUSH32 0x4E487B7100000000000000000000000000000000000000000000000000000000 PUSH1 0x0 MSTORE PUSH1 0x12 PUSH1 0x4 MSTORE PUSH1 0x24 PUSH1 0x0 REVERT JUMPDEST PUSH32 0x4E487B7100000000000000000000000000000000000000000000000000000000 PUSH1 0x0 MSTORE PUSH1 0x22 PUSH1 0x4 MSTORE PUSH1 0x24 PUSH1 0x0 REVERT JUMPDEST PUSH32 0x4E487B7100000000000000000000000000000000000000000000000000000000 PUSH1 0x0 MSTORE PUSH1 0x41 PUSH1 0x4 MSTORE PUSH1 0x24 PUSH1 0x0 REVERT JUMPDEST PUSH3 0xE62 DUP2 PUSH3 0xCE1 JUMP JUMPDEST DUP2 EQ PUSH3 0xE6E JUMPI PUSH1 0x0 DUP1 REVERT JUMPDEST POP JUMP JUMPDEST PUSH3 0xE7C DUP2 PUSH3 0xCF5 JUMP JUMPDEST DUP2 EQ PUSH3 0xE88 JUMPI PUSH1 0x0 DUP1 REVERT JUMPDEST POP JUMP JUMPDEST PUSH3 0xE96 DUP2 PUSH3 0xD1F JUMP JUMPDEST DUP2 EQ PUSH3 0xEA2 JUMPI PUSH1 0x0 DUP1 REVERT JUMPDEST POP JUMP JUMPDEST PUSH2 0x2444 DUP1 PUSH3 0xEB5 PUSH1 0x0 CODECOPY PUSH1 0x0 RETURN INVALID PUSH1 0x80 PUSH1 0x40 MSTORE CALLVALUE DUP1 ISZERO PUSH2 0x10 JUMPI PUSH1 0x0 DUP1 REVERT JUMPDEST POP PUSH1 0x4 CALLDATASIZE LT PUSH2 0x1E4 JUMPI PUSH1 0x0 CALLDATALOAD PUSH1 0xE0 SHR DUP1 PUSH4 0x6AE146C2 GT PUSH2 0x10F JUMPI DUP1 PUSH4 0xB61DA8E4 GT PUSH2 0xA2 JUMPI DUP1 PUSH4 0xE94962EE GT PUSH2 0x71 JUMPI DUP1 PUSH4 0xE94962EE EQ PUSH2 0x4A5 JUMPI DUP1 PUSH4 0xEE6F7E98 EQ PUSH2 0x4AF JUMPI DUP1 PUSH4 0xF2FDE38B EQ PUSH2 0x4B9 JUMPI DUP1 PUSH4 0xF984F210 EQ PUSH2 0x4D5 JUMPI PUSH2 0x1E4 JUMP JUMPDEST DUP1 PUSH4 0xB61DA8E4 EQ PUSH2 0x441 JUMPI DUP1 PUSH4 0xC0261722 EQ PUSH2 0x44B JUMPI DUP1 PUSH4 0xE1FC13E3 EQ PUSH2 0x469 JUMPI DUP1 PUSH4 0xE8F549EF EQ PUSH2 0x487 JUMPI PUSH2 0x1E4 JUMP JUMPDEST DUP1 PUSH4 0x8DA5CB5B GT PUSH2 0xDE JUMPI DUP1 PUSH4 0x8DA5CB5B EQ PUSH2 0x3B7 JUMPI DUP1 PUSH4 0x95356651 EQ PUSH2 0x3D5 JUMPI DUP1 PUSH4 0x9B475AA2 EQ PUSH2 0x405 JUMPI DUP1 PUSH4 0xA02F558E EQ PUSH2 0x423 JUMPI PUSH2 0x1E4 JUMP JUMPDEST DUP1 PUSH4 0x6AE146C2 EQ PUSH2 0x369 JUMPI DUP1 PUSH4 0x6E18C258 EQ PUSH2 0x373 JUMPI DUP1 PUSH4 0x74DA59D6 EQ PUSH2 0x37D JUMPI DUP1 PUSH4 0x77CF7630 EQ PUSH2 0x387 JUMPI PUSH2 0x1E4 JUMP JUMPDEST DUP1 PUSH4 0x3C3B6D25 GT PUSH2 0x187 JUMPI DUP1 PUSH4 0x52DE47C1 GT PUSH2 0x156 JUMPI DUP1 PUSH4 0x52DE47C1 EQ PUSH2 0x307 JUMPI DUP1 PUSH4 0x58063346 EQ PUSH2 0x325 JUMPI DUP1 PUSH4 0x644FD530 EQ PUSH2 0x341 JUMPI DUP1 PUSH4 0x69D8A608 EQ PUSH2 0x34B JUMPI PUSH2 0x1E4 JUMP JUMPDEST DUP1 PUSH4 0x3C3B6D25 EQ PUSH2 0x2A3 JUMPI DUP1 PUSH4 0x461AC019 EQ PUSH2 0x2C1 JUMPI DUP1 PUSH4 0x49D5E604 EQ PUSH2 0x2DF JUMPI DUP1 PUSH4 0x4D80394A EQ PUSH2 0x2FD JUMPI PUSH2 0x1E4 JUMP JUMPDEST DUP1 PUSH4 0x6792F55 GT PUSH2 0x1C3 JUMPI DUP1 PUSH4 0x6792F55 EQ PUSH2 0x253 JUMPI DUP1 PUSH4 0xF43BC3F EQ PUSH2 0x271 JUMPI DUP1 PUSH4 0x1E0FBFA2 EQ PUSH2 0x27B JUMPI DUP1 PUSH4 0x1E97F531 EQ PUSH2 0x299 JUMPI PUSH2 0x1E4 JUMP JUMPDEST DUP1 PUSH3 0xB0A502 EQ PUSH2 0x1E9 JUMPI DUP1 PUSH4 0x4611546 EQ PUSH2 0x219 JUMPI DUP1 PUSH4 0x54933A7 EQ PUSH2 0x249 JUMPI JUMPDEST PUSH1 0x0 DUP1 REVERT JUMPDEST PUSH2 0x203 PUSH1 0x4 DUP1 CALLDATASIZE SUB DUP2 ADD SWAP1 PUSH2 0x1FE SWAP2 SWAP1 PUSH2 0x1A00 JUMP JUMPDEST PUSH2 0x505 JUMP JUMPDEST PUSH1 0x40 MLOAD PUSH2 0x210 SWAP2 SWAP1 PUSH2 0x2049 JUMP JUMPDEST PUSH1 0x40 MLOAD DUP1 SWAP2 SUB SWAP1 RETURN JUMPDEST PUSH2 0x233 PUSH1 0x4 DUP1 CALLDATASIZE SUB DUP2 ADD SWAP1 PUSH2 0x22E SWAP2 SWAP1 PUSH2 0x1A00 JUMP JUMPDEST PUSH2 0x51D JUMP JUMPDEST PUSH1 0x40 MLOAD PUSH2 0x240 SWAP2 SWAP1 PUSH2 0x2049 JUMP JUMPDEST PUSH1 0x40 MLOAD DUP1 SWAP2 SUB SWAP1 RETURN JUMPDEST PUSH2 0x251 PUSH2 0x535 JUMP JUMPDEST STOP JUMPDEST PUSH2 0x25B PUSH2 0x5C2 JUMP JUMPDEST PUSH1 0x40 MLOAD PUSH2 0x268 SWAP2 SWAP1 PUSH2 0x1F0C JUMP JUMPDEST PUSH1 0x40 MLOAD DUP1 SWAP2 SUB SWAP1 RETURN JUMPDEST PUSH2 0x279 PUSH2 0x5E6 JUMP JUMPDEST STOP JUMPDEST PUSH2 0x283 PUSH2 0x65B JUMP JUMPDEST PUSH1 0x40 MLOAD PUSH2 0x290 SWAP2 SWAP1 PUSH2 0x1F0C JUMP JUMPDEST PUSH1 0x40 MLOAD DUP1 SWAP2 SUB SWAP1 RETURN JUMPDEST PUSH2 0x2A1 PUSH2 0x67F JUMP JUMPDEST STOP JUMPDEST PUSH2 0x2AB PUSH2 0x70C JUMP JUMPDEST PUSH1 0x40 MLOAD PUSH2 0x2B8 SWAP2 SWAP1 PUSH2 0x1F0C JUMP JUMPDEST PUSH1 0x40 MLOAD DUP1 SWAP2 SUB SWAP1 RETURN JUMPDEST PUSH2 0x2C9 PUSH2 0x730 JUMP JUMPDEST PUSH1 0x40 MLOAD PUSH2 0x2D6 SWAP2 SWAP1 PUSH2 0x2049 JUMP JUMPDEST PUSH1 0x40 MLOAD DUP1 SWAP2 SUB SWAP1 RETURN JUMPDEST PUSH2 0x2E7 PUSH2 0x736 JUMP JUMPDEST PUSH1 0x40 MLOAD PUSH2 0x2F4 SWAP2 SWAP1 PUSH2 0x1F0C JUMP JUMPDEST PUSH1 0x40 MLOAD DUP1 SWAP2 SUB SWAP1 RETURN JUMPDEST PUSH2 0x305 PUSH2 0x75A JUMP JUMPDEST STOP JUMPDEST PUSH2 0x30F PUSH2 0x7E7 JUMP JUMPDEST PUSH1 0x40 MLOAD PUSH2 0x31C SWAP2 SWAP1 PUSH2 0x2049 JUMP JUMPDEST PUSH1 0x40 MLOAD DUP1 SWAP2 SUB SWAP1 RETURN JUMPDEST PUSH2 0x33F PUSH1 0x4 DUP1 CALLDATASIZE SUB DUP2 ADD SWAP1 PUSH2 0x33A SWAP2 SWAP1 PUSH2 0x1A29 JUMP JUMPDEST PUSH2 0x7ED JUMP JUMPDEST STOP JUMPDEST PUSH2 0x349 PUSH2 0xA5C JUMP JUMPDEST STOP JUMPDEST PUSH2 0x353 PUSH2 0xAE9 JUMP JUMPDEST PUSH1 0x40 MLOAD PUSH2 0x360 SWAP2 SWAP1 PUSH2 0x1EF1 JUMP JUMPDEST PUSH1 0x40 MLOAD DUP1 SWAP2 SUB SWAP1 RETURN JUMPDEST PUSH2 0x371 PUSH2 0xAFC JUMP JUMPDEST STOP JUMPDEST PUSH2 0x37B PUSH2 0xB89 JUMP JUMPDEST STOP JUMPDEST PUSH2 0x385 PUSH2 0xC22 JUMP JUMPDEST STOP JUMPDEST PUSH2 0x3A1 PUSH1 0x4 DUP1 CALLDATASIZE SUB DUP2 ADD SWAP1 PUSH2 0x39C SWAP2 SWAP1 PUSH2 0x1A00 JUMP JUMPDEST PUSH2 0xCC5 JUMP JUMPDEST PUSH1 0x40 MLOAD PUSH2 0x3AE SWAP2 SWAP1 PUSH2 0x2049 JUMP JUMPDEST PUSH1 0x40 MLOAD DUP1 SWAP2 SUB SWAP1 RETURN JUMPDEST PUSH2 0x3BF PUSH2 0xCDD JUMP JUMPDEST PUSH1 0x40 MLOAD PUSH2 0x3CC SWAP2 SWAP1 PUSH2 0x1EAD JUMP JUMPDEST PUSH1 0x40 MLOAD DUP1 SWAP2 SUB SWAP1 RETURN JUMPDEST PUSH2 0x3EF PUSH1 0x4 DUP1 CALLDATASIZE SUB DUP2 ADD SWAP1 PUSH2 0x3EA SWAP2 SWAP1 PUSH2 0x1ABE JUMP JUMPDEST PUSH2 0xD06 JUMP JUMPDEST PUSH1 0x40 MLOAD PUSH2 0x3FC SWAP2 SWAP1 PUSH2 0x1EAD JUMP JUMPDEST PUSH1 0x40 MLOAD DUP1 SWAP2 SUB SWAP1 RETURN JUMPDEST PUSH2 0x40D PUSH2 0xD39 JUMP JUMPDEST PUSH1 0x40 MLOAD PUSH2 0x41A SWAP2 SWAP1 PUSH2 0x1F0C JUMP JUMPDEST PUSH1 0x40 MLOAD DUP1 SWAP2 SUB SWAP1 RETURN JUMPDEST PUSH2 0x42B PUSH2 0xD5D JUMP JUMPDEST PUSH1 0x40 MLOAD PUSH2 0x438 SWAP2 SWAP1 PUSH2 0x1F0C JUMP JUMPDEST PUSH1 0x40 MLOAD DUP1 SWAP2 SUB SWAP1 RETURN JUMPDEST PUSH2 0x449 PUSH2 0xD81 JUMP JUMPDEST STOP JUMPDEST PUSH2 0x453 PUSH2 0xE1A JUMP JUMPDEST PUSH1 0x40 MLOAD PUSH2 0x460 SWAP2 SWAP1 PUSH2 0x1F0C JUMP JUMPDEST PUSH1 0x40 MLOAD DUP1 SWAP2 SUB SWAP1 RETURN JUMPDEST PUSH2 0x471 PUSH2 0xE3E JUMP JUMPDEST PUSH1 0x40 MLOAD PUSH2 0x47E SWAP2 SWAP1 PUSH2 0x1F0C JUMP JUMPDEST PUSH1 0x40 MLOAD DUP1 SWAP2 SUB SWAP1 RETURN JUMPDEST PUSH2 0x48F PUSH2 0xE62 JUMP JUMPDEST PUSH1 0x40 MLOAD PUSH2 0x49C SWAP2 SWAP1 PUSH2 0x1F0C JUMP JUMPDEST PUSH1 0x40 MLOAD DUP1 SWAP2 SUB SWAP1 RETURN JUMPDEST PUSH2 0x4AD PUSH2 0xE86 JUMP JUMPDEST STOP JUMPDEST PUSH2 0x4B7 PUSH2 0xEFB JUMP JUMPDEST STOP JUMPDEST PUSH2 0x4D3 PUSH1 0x4 DUP1 CALLDATASIZE SUB DUP2 ADD SWAP1 PUSH2 0x4CE SWAP2 SWAP1 PUSH2 0x1A00 JUMP JUMPDEST PUSH2 0xF88 JUMP JUMPDEST STOP JUMPDEST PUSH2 0x4EF PUSH1 0x4 DUP1 CALLDATASIZE SUB DUP2 ADD SWAP1 PUSH2 0x4EA SWAP2 SWAP1 PUSH2 0x1A00 JUMP JUMPDEST PUSH2 0x1131 JUMP JUMPDEST PUSH1 0x40 MLOAD PUSH2 0x4FC SWAP2 SWAP1 PUSH2 0x2049 JUMP JUMPDEST PUSH1 0x40 MLOAD DUP1 SWAP2 SUB SWAP1 RETURN JUMPDEST PUSH1 0x7 PUSH1 0x20 MSTORE DUP1 PUSH1 0x0 MSTORE PUSH1 0x40 PUSH1 0x0 KECCAK256 PUSH1 0x0 SWAP2 POP SWAP1 POP SLOAD DUP2 JUMP JUMPDEST PUSH1 0x9 PUSH1 0x20 MSTORE DUP1 PUSH1 0x0 MSTORE PUSH1 0x40 PUSH1 0x0 KECCAK256 PUSH1 0x0 SWAP2 POP SWAP1 POP SLOAD DUP2 JUMP JUMPDEST PUSH2 0x55F PUSH32 0xDD7F4DC9B35AC72D649723B085BBC7DD3F5D3DA1AF9751C1605DC4AA94A94866 CALLER PUSH2 0x1175 JUMP JUMPDEST PUSH1 0x0 PUSH2 0x56B PUSH1 0x0 PUSH2 0x1374 JUMP JUMPDEST SWAP1 POP PUSH1 0x0 DUP2 GT PUSH1 0x1 SWAP1 PUSH2 0x5B4 JUMPI PUSH1 0x40 MLOAD PUSH32 0x8C379A000000000000000000000000000000000000000000000000000000000 DUP2 MSTORE PUSH1 0x4 ADD PUSH2 0x5AB SWAP2 SWAP1 PUSH2 0x1F27 JUMP JUMPDEST PUSH1 0x40 MLOAD DUP1 SWAP2 SUB SWAP1 REVERT JUMPDEST POP PUSH2 0x5BF CALLER DUP3 PUSH2 0x146B JUMP JUMPDEST POP JUMP JUMPDEST PUSH32 0x9C1CA198F61AC1647C38F20B6678649F8E87B7E06309094D812EDD1E9119D309 DUP2 JUMP JUMPDEST PUSH2 0x610 PUSH32 0x39A8B3E6E97619937505A2AE24F70FC909C329E7595F016056DEF5C61EC407F4 CALLER PUSH2 0x1175 JUMP JUMPDEST PUSH2 0x659 CALLER PUSH1 0x8 PUSH1 0x0 CALLER PUSH20 0xFFFFFFFFFFFFFFFFFFFFFFFFFFFFFFFFFFFFFFFF AND PUSH20 0xFFFFFFFFFFFFFFFFFFFFFFFFFFFFFFFFFFFFFFFF AND DUP2 MSTORE PUSH1 0x20 ADD SWAP1 DUP2 MSTORE PUSH1 0x20 ADD PUSH1 0x0 KECCAK256 SLOAD PUSH2 0x146B JUMP JUMPDEST JUMP JUMPDEST PUSH32 0x3A2F235C9DAAF33349D300AADFF2F15078A89DF81BCFDD45BA11C8F816BDDC6F DUP2 JUMP JUMPDEST PUSH2 0x6A9 PUSH32 0x175D7B85FF1BC91C4B0C406862C9875F787D29798BFC84E43D7EDA7BB7543A31 CALLER PUSH2 0x1175 JUMP JUMPDEST PUSH1 0x0 PUSH2 0x6B5 PUSH1 0x3 PUSH2 0x1374 JUMP JUMPDEST SWAP1 POP PUSH1 0x0 DUP2 GT PUSH1 0x1 SWAP1 PUSH2 0x6FE JUMPI PUSH1 0x40 MLOAD PUSH32 0x8C379A000000000000000000000000000000000000000000000000000000000 DUP2 MSTORE PUSH1 0x4 ADD PUSH2 0x6F5 SWAP2 SWAP1 PUSH2 0x1F27 JUMP JUMPDEST PUSH1 0x40 MLOAD DUP1 SWAP2 SUB SWAP1 REVERT JUMPDEST POP PUSH2 0x709 CALLER DUP3 PUSH2 0x146B JUMP JUMPDEST POP JUMP JUMPDEST PUSH32 0x5351739D55170CFB22A4CA0ED7C81953F896619E021AD6DF97D197953D00FFD2 DUP2 JUMP JUMPDEST PUSH1 0x3 SLOAD DUP2 JUMP JUMPDEST PUSH32 0x5146A08BAF902532D0EE2F909971144F12CA32651CD70CBEE1117CDDFB3B3B33 DUP2 JUMP JUMPDEST PUSH2 0x784 PUSH32 0x33ED200CCE320C90B0F5226969F1F198E39ADE4221F23425218E256D5152F765 CALLER PUSH2 0x1175 JUMP JUMPDEST PUSH1 0x0 PUSH2 0x790 PUSH1 0x0 PUSH2 0x1374 JUMP JUMPDEST SWAP1 POP PUSH1 0x0 DUP2 GT PUSH1 0x1 SWAP1 PUSH2 0x7D9 JUMPI PUSH1 0x40 MLOAD PUSH32 0x8C379A000000000000000000000000000000000000000000000000000000000 DUP2 MSTORE PUSH1 0x4 ADD PUSH2 0x7D0 SWAP2 SWAP1 PUSH2 0x1F27 JUMP JUMPDEST PUSH1 0x40 MLOAD DUP1 SWAP2 SUB SWAP1 REVERT JUMPDEST POP PUSH2 0x7E4 CALLER DUP3 PUSH2 0x146B JUMP JUMPDEST POP JUMP JUMPDEST PUSH2 0x2A30 DUP2 JUMP JUMPDEST PUSH2 0x7F5 PUSH2 0x16CA JUMP JUMPDEST PUSH20 0xFFFFFFFFFFFFFFFFFFFFFFFFFFFFFFFFFFFFFFFF AND PUSH2 0x813 PUSH2 0xCDD JUMP JUMPDEST PUSH20 0xFFFFFFFFFFFFFFFFFFFFFFFFFFFFFFFFFFFFFFFF AND EQ PUSH2 0x869 JUMPI PUSH1 0x40 MLOAD PUSH32 0x8C379A000000000000000000000000000000000000000000000000000000000 DUP2 MSTORE PUSH1 0x4 ADD PUSH2 0x860 SWAP1 PUSH2 0x1FE9 JUMP JUMPDEST PUSH1 0x40 MLOAD DUP1 SWAP2 SUB SWAP1 REVERT JUMPDEST DUP2 MLOAD DUP2 MLOAD EQ PUSH2 0x877 JUMPI PUSH1 0x0 DUP1 REVERT JUMPDEST PUSH1 0x0 JUMPDEST DUP3 MLOAD DUP2 PUSH1 0xFF AND LT ISZERO PUSH2 0xA57 JUMPI PUSH1 0x0 PUSH20 0xFFFFFFFFFFFFFFFFFFFFFFFFFFFFFFFFFFFFFFFF AND PUSH1 0x5 PUSH1 0x0 DUP6 DUP5 PUSH1 0xFF AND DUP2 MLOAD DUP2 LT PUSH2 0x8DE JUMPI PUSH32 0x4E487B7100000000000000000000000000000000000000000000000000000000 PUSH1 0x0 MSTORE PUSH1 0x32 PUSH1 0x4 MSTORE PUSH1 0x24 PUSH1 0x0 REVERT JUMPDEST PUSH1 0x20 MUL PUSH1 0x20 ADD ADD MLOAD DUP2 MSTORE PUSH1 0x20 ADD SWAP1 DUP2 MSTORE PUSH1 0x20 ADD PUSH1 0x0 KECCAK256 PUSH1 0x0 SWAP1 SLOAD SWAP1 PUSH2 0x100 EXP SWAP1 DIV PUSH20 0xFFFFFFFFFFFFFFFFFFFFFFFFFFFFFFFFFFFFFFFF AND PUSH20 0xFFFFFFFFFFFFFFFFFFFFFFFFFFFFFFFFFFFFFFFF AND EQ ISZERO PUSH2 0x96C JUMPI PUSH1 0x40 MLOAD PUSH32 0x8C379A000000000000000000000000000000000000000000000000000000000 DUP2 MSTORE PUSH1 0x4 ADD PUSH2 0x963 SWAP1 PUSH2 0x2029 JUMP JUMPDEST PUSH1 0x40 MLOAD DUP1 SWAP2 SUB SWAP1 REVERT JUMPDEST DUP2 DUP2 PUSH1 0xFF AND DUP2 MLOAD DUP2 LT PUSH2 0x9A8 JUMPI PUSH32 0x4E487B7100000000000000000000000000000000000000000000000000000000 PUSH1 0x0 MSTORE PUSH1 0x32 PUSH1 0x4 MSTORE PUSH1 0x24 PUSH1 0x0 REVERT JUMPDEST PUSH1 0x20 MUL PUSH1 0x20 ADD ADD MLOAD PUSH1 0x5 PUSH1 0x0 DUP6 DUP5 PUSH1 0xFF AND DUP2 MLOAD DUP2 LT PUSH2 0x9F0 JUMPI PUSH32 0x4E487B7100000000000000000000000000000000000000000000000000000000 PUSH1 0x0 MSTORE PUSH1 0x32 PUSH1 0x4 MSTORE PUSH1 0x24 PUSH1 0x0 REVERT JUMPDEST PUSH1 0x20 MUL PUSH1 0x20 ADD ADD MLOAD DUP2 MSTORE PUSH1 0x20 ADD SWAP1 DUP2 MSTORE PUSH1 0x20 ADD PUSH1 0x0 KECCAK256 PUSH1 0x0 PUSH2 0x100 EXP DUP2 SLOAD DUP2 PUSH20 0xFFFFFFFFFFFFFFFFFFFFFFFFFFFFFFFFFFFFFFFF MUL NOT AND SWAP1 DUP4 PUSH20 0xFFFFFFFFFFFFFFFFFFFFFFFFFFFFFFFFFFFFFFFF AND MUL OR SWAP1 SSTORE POP DUP1 DUP1 PUSH2 0xA4F SWAP1 PUSH2 0x22E3 JUMP JUMPDEST SWAP2 POP POP PUSH2 0x87A JUMP JUMPDEST POP POP POP JUMP JUMPDEST PUSH2 0xA86 PUSH32 0x3A2F235C9DAAF33349D300AADFF2F15078A89DF81BCFDD45BA11C8F816BDDC6F CALLER PUSH2 0x1175 JUMP JUMPDEST PUSH1 0x0 PUSH2 0xA92 PUSH1 0x0 PUSH2 0x1374 JUMP JUMPDEST SWAP1 POP PUSH1 0x0 DUP2 GT PUSH1 0x1 SWAP1 PUSH2 0xADB JUMPI PUSH1 0x40 MLOAD PUSH32 0x8C379A000000000000000000000000000000000000000000000000000000000 DUP2 MSTORE PUSH1 0x4 ADD PUSH2 0xAD2 SWAP2 SWAP1 PUSH2 0x1F27 JUMP JUMPDEST PUSH1 0x40 MLOAD DUP1 SWAP2 SUB SWAP1 REVERT JUMPDEST POP PUSH2 0xAE6 CALLER DUP3 PUSH2 0x146B JUMP JUMPDEST POP JUMP JUMPDEST PUSH1 0x2 PUSH1 0x0 SWAP1 SLOAD SWAP1 PUSH2 0x100 EXP SWAP1 DIV PUSH1 0xFF AND DUP2 JUMP JUMPDEST PUSH2 0xB26 PUSH32 0x5146A08BAF902532D0EE2F909971144F12CA32651CD70CBEE1117CDDFB3B3B33 CALLER PUSH2 0x1175 JUMP JUMPDEST PUSH1 0x0 PUSH2 0xB32 PUSH1 0x0 PUSH2 0x1374 JUMP JUMPDEST SWAP1 POP PUSH1 0x0 DUP2 GT PUSH1 0x1 SWAP1 PUSH2 0xB7B JUMPI PUSH1 0x40 MLOAD PUSH32 0x8C379A000000000000000000000000000000000000000000000000000000000 DUP2 MSTORE PUSH1 0x4 ADD PUSH2 0xB72 SWAP2 SWAP1 PUSH2 0x1F27 JUMP JUMPDEST PUSH1 0x40 MLOAD DUP1 SWAP2 SUB SWAP1 REVERT JUMPDEST POP PUSH2 0xB86 CALLER DUP3 PUSH2 0x146B JUMP JUMPDEST POP JUMP JUMPDEST PUSH2 0xB91 PUSH2 0x16CA JUMP JUMPDEST PUSH20 0xFFFFFFFFFFFFFFFFFFFFFFFFFFFFFFFFFFFFFFFF AND PUSH2 0xBAF PUSH2 0xCDD JUMP JUMPDEST PUSH20 0xFFFFFFFFFFFFFFFFFFFFFFFFFFFFFFFFFFFFFFFF AND EQ PUSH2 0xC05 JUMPI PUSH1 0x40 MLOAD PUSH32 0x8C379A000000000000000000000000000000000000000000000000000000000 DUP2 MSTORE PUSH1 0x4 ADD PUSH2 0xBFC SWAP1 PUSH2 0x1FE9 JUMP JUMPDEST PUSH1 0x40 MLOAD DUP1 SWAP2 SUB SWAP1 REVERT JUMPDEST PUSH1 0x0 PUSH1 0x2 PUSH1 0x0 PUSH2 0x100 EXP DUP2 SLOAD DUP2 PUSH1 0xFF MUL NOT AND SWAP1 DUP4 ISZERO ISZERO MUL OR SWAP1 SSTORE POP JUMP JUMPDEST PUSH2 0xC4C PUSH32 0x9C1CA198F61AC1647C38F20B6678649F8E87B7E06309094D812EDD1E9119D309 CALLER PUSH2 0x1175 JUMP JUMPDEST PUSH1 0x0 PUSH2 0xC58 PUSH1 0x0 PUSH2 0x1374 JUMP JUMPDEST SWAP1 POP PUSH2 0xC6E PUSH1 0x3 DUP3 PUSH2 0x1149 SWAP1 SWAP2 SWAP1 PUSH4 0xFFFFFFFF AND JUMP JUMPDEST SWAP1 POP PUSH1 0x0 DUP2 GT PUSH1 0x1 SWAP1 PUSH2 0xCB7 JUMPI PUSH1 0x40 MLOAD PUSH32 0x8C379A000000000000000000000000000000000000000000000000000000000 DUP2 MSTORE PUSH1 0x4 ADD PUSH2 0xCAE SWAP2 SWAP1 PUSH2 0x1F27 JUMP JUMPDEST PUSH1 0x40 MLOAD DUP1 SWAP2 SUB SWAP1 REVERT JUMPDEST POP PUSH2 0xCC2 CALLER DUP3 PUSH2 0x146B JUMP JUMPDEST POP JUMP JUMPDEST PUSH1 0x6 PUSH1 0x20 MSTORE DUP1 PUSH1 0x0 MSTORE PUSH1 0x40 PUSH1 0x0 KECCAK256 PUSH1 0x0 SWAP2 POP SWAP1 POP SLOAD DUP2 JUMP JUMPDEST PUSH1 0x0 DUP1 PUSH1 0x0 SWAP1 SLOAD SWAP1 PUSH2 0x100 EXP SWAP1 DIV PUSH20 0xFFFFFFFFFFFFFFFFFFFFFFFFFFFFFFFFFFFFFFFF AND SWAP1 POP SWAP1 JUMP JUMPDEST PUSH1 0x5 PUSH1 0x20 MSTORE DUP1 PUSH1 0x0 MSTORE PUSH1 0x40 PUSH1 0x0 KECCAK256 PUSH1 0x0 SWAP2 POP SLOAD SWAP1 PUSH2 0x100 EXP SWAP1 DIV PUSH20 0xFFFFFFFFFFFFFFFFFFFFFFFFFFFFFFFFFFFFFFFF AND DUP2 JUMP JUMPDEST PUSH32 0xDD7F4DC9B35AC72D649723B085BBC7DD3F5D3DA1AF9751C1605DC4AA94A94866 DUP2 JUMP JUMPDEST PUSH32 0xA08AACFE27EEE176D3A98646161BDD8127A631F5D126A7366CAA91D0F6AC9FDE DUP2 JUMP JUMPDEST PUSH2 0xD89 PUSH2 0x16CA JUMP JUMPDEST PUSH20 0xFFFFFFFFFFFFFFFFFFFFFFFFFFFFFFFFFFFFFFFF AND PUSH2 0xDA7 PUSH2 0xCDD JUMP JUMPDEST PUSH20 0xFFFFFFFFFFFFFFFFFFFFFFFFFFFFFFFFFFFFFFFF AND EQ PUSH2 0xDFD JUMPI PUSH1 0x40 MLOAD PUSH32 0x8C379A000000000000000000000000000000000000000000000000000000000 DUP2 MSTORE PUSH1 0x4 ADD PUSH2 0xDF4 SWAP1 PUSH2 0x1FE9 JUMP JUMPDEST PUSH1 0x40 MLOAD DUP1 SWAP2 SUB SWAP1 REVERT JUMPDEST PUSH1 0x1 PUSH1 0x2 PUSH1 0x0 PUSH2 0x100 EXP DUP2 SLOAD DUP2 PUSH1 0xFF MUL NOT AND SWAP1 DUP4 ISZERO ISZERO MUL OR SWAP1 SSTORE POP JUMP JUMPDEST PUSH32 0x175D7B85FF1BC91C4B0C406862C9875F787D29798BFC84E43D7EDA7BB7543A31 DUP2 JUMP JUMPDEST PUSH32 0x33ED200CCE320C90B0F5226969F1F198E39ADE4221F23425218E256D5152F765 DUP2 JUMP JUMPDEST PUSH32 0x39A8B3E6E97619937505A2AE24F70FC909C329E7595F016056DEF5C61EC407F4 DUP2 JUMP JUMPDEST PUSH2 0xEB0 PUSH32 0xA08AACFE27EEE176D3A98646161BDD8127A631F5D126A7366CAA91D0F6AC9FDE CALLER PUSH2 0x1175 JUMP JUMPDEST PUSH2 0xEF9 CALLER PUSH1 0x8 PUSH1 0x0 CALLER PUSH20 0xFFFFFFFFFFFFFFFFFFFFFFFFFFFFFFFFFFFFFFFF AND PUSH20 0xFFFFFFFFFFFFFFFFFFFFFFFFFFFFFFFFFFFFFFFF AND DUP2 MSTORE PUSH1 0x20 ADD SWAP1 DUP2 MSTORE PUSH1 0x20 ADD PUSH1 0x0 KECCAK256 SLOAD PUSH2 0x146B JUMP JUMPDEST JUMP JUMPDEST PUSH2 0xF25 PUSH32 0x5351739D55170CFB22A4CA0ED7C81953F896619E021AD6DF97D197953D00FFD2 CALLER PUSH2 0x1175 JUMP JUMPDEST PUSH1 0x0 PUSH2 0xF31 PUSH1 0x0 PUSH2 0x1374 JUMP JUMPDEST SWAP1 POP PUSH1 0x0 DUP2 GT PUSH1 0x1 SWAP1 PUSH2 0xF7A JUMPI PUSH1 0x40 MLOAD PUSH32 0x8C379A000000000000000000000000000000000000000000000000000000000 DUP2 MSTORE PUSH1 0x4 ADD PUSH2 0xF71 SWAP2 SWAP1 PUSH2 0x1F27 JUMP JUMPDEST PUSH1 0x40 MLOAD DUP1 SWAP2 SUB SWAP1 REVERT JUMPDEST POP PUSH2 0xF85 CALLER DUP3 PUSH2 0x146B JUMP JUMPDEST POP JUMP JUMPDEST PUSH2 0xF90 PUSH2 0x16CA JUMP JUMPDEST PUSH20 0xFFFFFFFFFFFFFFFFFFFFFFFFFFFFFFFFFFFFFFFF AND PUSH2 0xFAE PUSH2 0xCDD JUMP JUMPDEST PUSH20 0xFFFFFFFFFFFFFFFFFFFFFFFFFFFFFFFFFFFFFFFF AND EQ PUSH2 0x1004 JUMPI PUSH1 0x40 MLOAD PUSH32 0x8C379A000000000000000000000000000000000000000000000000000000000 DUP2 MSTORE PUSH1 0x4 ADD PUSH2 0xFFB SWAP1 PUSH2 0x1FE9 JUMP JUMPDEST PUSH1 0x40 MLOAD DUP1 SWAP2 SUB SWAP1 REVERT JUMPDEST PUSH1 0x0 PUSH20 0xFFFFFFFFFFFFFFFFFFFFFFFFFFFFFFFFFFFFFFFF AND DUP2 PUSH20 0xFFFFFFFFFFFFFFFFFFFFFFFFFFFFFFFFFFFFFFFF AND EQ ISZERO PUSH2 0x1074 JUMPI PUSH1 0x40 MLOAD PUSH32 0x8C379A000000000000000000000000000000000000000000000000000000000 DUP2 MSTORE PUSH1 0x4 ADD PUSH2 0x106B SWAP1 PUSH2 0x1F49 JUMP JUMPDEST PUSH1 0x40 MLOAD DUP1 SWAP2 SUB SWAP1 REVERT JUMPDEST DUP1 PUSH20 0xFFFFFFFFFFFFFFFFFFFFFFFFFFFFFFFFFFFFFFFF AND PUSH1 0x0 DUP1 SLOAD SWAP1 PUSH2 0x100 EXP SWAP1 DIV PUSH20 0xFFFFFFFFFFFFFFFFFFFFFFFFFFFFFFFFFFFFFFFF AND PUSH20 0xFFFFFFFFFFFFFFFFFFFFFFFFFFFFFFFFFFFFFFFF AND PUSH32 0x8BE0079C531659141344CD1FD0A4F28419497F9722A3DAAFE3B4186F6B6457E0 PUSH1 0x40 MLOAD PUSH1 0x40 MLOAD DUP1 SWAP2 SUB SWAP1 LOG3 DUP1 PUSH1 0x0 DUP1 PUSH2 0x100 EXP DUP2 SLOAD DUP2 PUSH20 0xFFFFFFFFFFFFFFFFFFFFFFFFFFFFFFFFFFFFFFFF MUL NOT AND SWAP1 DUP4 PUSH20 0xFFFFFFFFFFFFFFFFFFFFFFFFFFFFFFFFFFFFFFFF AND MUL OR SWAP1 SSTORE POP POP JUMP JUMPDEST PUSH1 0x8 PUSH1 0x20 MSTORE DUP1 PUSH1 0x0 MSTORE PUSH1 0x40 PUSH1 0x0 KECCAK256 PUSH1 0x0 SWAP2 POP SWAP1 POP SLOAD DUP2 JUMP JUMPDEST PUSH1 0x0 DUP2 DUP4 PUSH2 0x1157 SWAP2 SWAP1 PUSH2 0x2169 JUMP JUMPDEST SWAP1 POP SWAP3 SWAP2 POP POP JUMP JUMPDEST PUSH1 0x0 DUP2 DUP4 PUSH2 0x116D SWAP2 SWAP1 PUSH2 0x219A JUMP JUMPDEST SWAP1 POP SWAP3 SWAP2 POP POP JUMP JUMPDEST PUSH1 0x0 ISZERO ISZERO PUSH1 0x2 PUSH1 0x0 SWAP1 SLOAD SWAP1 PUSH2 0x100 EXP SWAP1 DIV PUSH1 0xFF AND ISZERO ISZERO EQ PUSH2 0x11CB JUMPI PUSH1 0x40 MLOAD PUSH32 0x8C379A000000000000000000000000000000000000000000000000000000000 DUP2 MSTORE PUSH1 0x4 ADD PUSH2 0x11C2 SWAP1 PUSH2 0x1F69 JUMP JUMPDEST PUSH1 0x40 MLOAD DUP1 SWAP2 SUB SWAP1 REVERT JUMPDEST DUP1 PUSH20 0xFFFFFFFFFFFFFFFFFFFFFFFFFFFFFFFFFFFFFFFF AND PUSH1 0x5 PUSH1 0x0 DUP5 DUP2 MSTORE PUSH1 0x20 ADD SWAP1 DUP2 MSTORE PUSH1 0x20 ADD PUSH1 0x0 KECCAK256 PUSH1 0x0 SWAP1 SLOAD SWAP1 PUSH2 0x100 EXP SWAP1 DIV PUSH20 0xFFFFFFFFFFFFFFFFFFFFFFFFFFFFFFFFFFFFFFFF AND PUSH20 0xFFFFFFFFFFFFFFFFFFFFFFFFFFFFFFFFFFFFFFFF AND EQ PUSH2 0x126C JUMPI PUSH1 0x40 MLOAD PUSH32 0x8C379A000000000000000000000000000000000000000000000000000000000 DUP2 MSTORE PUSH1 0x4 ADD PUSH2 0x1263 SWAP1 PUSH2 0x2009 JUMP JUMPDEST PUSH1 0x40 MLOAD DUP1 SWAP2 SUB SWAP1 REVERT JUMPDEST PUSH1 0x0 PUSH1 0x6 PUSH1 0x0 DUP4 PUSH20 0xFFFFFFFFFFFFFFFFFFFFFFFFFFFFFFFFFFFFFFFF AND PUSH20 0xFFFFFFFFFFFFFFFFFFFFFFFFFFFFFFFFFFFFFFFF AND DUP2 MSTORE PUSH1 0x20 ADD SWAP1 DUP2 MSTORE PUSH1 0x20 ADD PUSH1 0x0 KECCAK256 SLOAD GT PUSH2 0x12EE JUMPI PUSH1 0x40 MLOAD PUSH32 0x8C379A000000000000000000000000000000000000000000000000000000000 DUP2 MSTORE PUSH1 0x4 ADD PUSH2 0x12E5 SWAP1 PUSH2 0x1F89 JUMP JUMPDEST PUSH1 0x40 MLOAD DUP1 SWAP2 SUB SWAP1 REVERT JUMPDEST PUSH1 0x0 PUSH1 0x8 PUSH1 0x0 DUP4 PUSH20 0xFFFFFFFFFFFFFFFFFFFFFFFFFFFFFFFFFFFFFFFF AND PUSH20 0xFFFFFFFFFFFFFFFFFFFFFFFFFFFFFFFFFFFFFFFF AND DUP2 MSTORE PUSH1 0x20 ADD SWAP1 DUP2 MSTORE PUSH1 0x20 ADD PUSH1 0x0 KECCAK256 SLOAD GT PUSH2 0x1370 JUMPI PUSH1 0x40 MLOAD PUSH32 0x8C379A000000000000000000000000000000000000000000000000000000000 DUP2 MSTORE PUSH1 0x4 ADD PUSH2 0x1367 SWAP1 PUSH2 0x1FA9 JUMP JUMPDEST PUSH1 0x40 MLOAD DUP1 SWAP2 SUB SWAP1 REVERT JUMPDEST POP POP JUMP JUMPDEST PUSH1 0x0 DUP1 TIMESTAMP SWAP1 POP PUSH1 0x0 PUSH2 0x1391 PUSH1 0x3 SLOAD DUP4 PUSH2 0x16D2 SWAP1 SWAP2 SWAP1 PUSH4 0xFFFFFFFF AND JUMP JUMPDEST SWAP1 POP PUSH1 0x0 PUSH2 0x13AA PUSH2 0x2A30 DUP7 PUSH2 0x115F SWAP1 SWAP2 SWAP1 PUSH4 0xFFFFFFFF AND JUMP JUMPDEST SWAP1 POP DUP1 DUP3 GT PUSH2 0x13EE JUMPI PUSH1 0x40 MLOAD PUSH32 0x8C379A000000000000000000000000000000000000000000000000000000000 DUP2 MSTORE PUSH1 0x4 ADD PUSH2 0x13E5 SWAP1 PUSH2 0x1FC9 JUMP JUMPDEST PUSH1 0x40 MLOAD DUP1 SWAP2 SUB SWAP1 REVERT JUMPDEST PUSH2 0x1401 DUP2 DUP4 PUSH2 0x16D2 SWAP1 SWAP2 SWAP1 PUSH4 0xFFFFFFFF AND JUMP JUMPDEST SWAP2 POP PUSH1 0x0 DUP3 GT PUSH2 0x1446 JUMPI PUSH1 0x40 MLOAD PUSH32 0x8C379A000000000000000000000000000000000000000000000000000000000 DUP2 MSTORE PUSH1 0x4 ADD PUSH2 0x143D SWAP1 PUSH2 0x1FC9 JUMP JUMPDEST PUSH1 0x40 MLOAD DUP1 SWAP2 SUB SWAP1 REVERT JUMPDEST PUSH1 0x0 PUSH2 0x145D PUSH2 0x2A30 DUP5 PUSH2 0x1149 SWAP1 SWAP2 SWAP1 PUSH4 0xFFFFFFFF AND JUMP JUMPDEST SWAP1 POP DUP1 SWAP5 POP POP POP POP POP SWAP2 SWAP1 POP JUMP JUMPDEST PUSH1 0x0 PUSH2 0x14BF PUSH1 0x9 PUSH1 0x0 DUP6 PUSH20 0xFFFFFFFFFFFFFFFFFFFFFFFFFFFFFFFFFFFFFFFF AND PUSH20 0xFFFFFFFFFFFFFFFFFFFFFFFFFFFFFFFFFFFFFFFF AND DUP2 MSTORE PUSH1 0x20 ADD SWAP1 DUP2 MSTORE PUSH1 0x20 ADD PUSH1 0x0 KECCAK256 SLOAD DUP4 PUSH2 0x16D2 SWAP1 SWAP2 SWAP1 PUSH4 0xFFFFFFFF AND JUMP JUMPDEST SWAP2 POP PUSH1 0x0 DUP3 SWAP1 POP JUMPDEST PUSH1 0x0 DUP2 GT ISZERO PUSH2 0x16B0 JUMPI PUSH1 0x0 PUSH1 0x8 PUSH1 0x0 DUP7 PUSH20 0xFFFFFFFFFFFFFFFFFFFFFFFFFFFFFFFFFFFFFFFF AND PUSH20 0xFFFFFFFFFFFFFFFFFFFFFFFFFFFFFFFFFFFFFFFF AND DUP2 MSTORE PUSH1 0x20 ADD SWAP1 DUP2 MSTORE PUSH1 0x20 ADD PUSH1 0x0 KECCAK256 SLOAD EQ ISZERO PUSH2 0x151D JUMPI PUSH2 0x16B0 JUMP JUMPDEST PUSH2 0x156F PUSH1 0x7 PUSH1 0x0 DUP7 PUSH20 0xFFFFFFFFFFFFFFFFFFFFFFFFFFFFFFFFFFFFFFFF AND PUSH20 0xFFFFFFFFFFFFFFFFFFFFFFFFFFFFFFFFFFFFFFFF AND DUP2 MSTORE PUSH1 0x20 ADD SWAP1 DUP2 MSTORE PUSH1 0x20 ADD PUSH1 0x0 KECCAK256 SLOAD DUP4 PUSH2 0x16E8 SWAP1 SWAP2 SWAP1 PUSH4 0xFFFFFFFF AND JUMP JUMPDEST SWAP2 POP PUSH2 0x15C4 PUSH1 0x1 PUSH1 0x8 PUSH1 0x0 DUP8 PUSH20 0xFFFFFFFFFFFFFFFFFFFFFFFFFFFFFFFFFFFFFFFF AND PUSH20 0xFFFFFFFFFFFFFFFFFFFFFFFFFFFFFFFFFFFFFFFF AND DUP2 MSTORE PUSH1 0x20 ADD SWAP1 DUP2 MSTORE PUSH1 0x20 ADD PUSH1 0x0 KECCAK256 SLOAD PUSH2 0x16D2 SWAP1 SWAP2 SWAP1 PUSH4 0xFFFFFFFF AND JUMP JUMPDEST PUSH1 0x8 PUSH1 0x0 DUP7 PUSH20 0xFFFFFFFFFFFFFFFFFFFFFFFFFFFFFFFFFFFFFFFF AND PUSH20 0xFFFFFFFFFFFFFFFFFFFFFFFFFFFFFFFFFFFFFFFF AND DUP2 MSTORE PUSH1 0x20 ADD SWAP1 DUP2 MSTORE PUSH1 0x20 ADD PUSH1 0x0 KECCAK256 DUP2 SWAP1 SSTORE POP PUSH2 0x165A PUSH1 0x1 PUSH1 0x9 PUSH1 0x0 DUP8 PUSH20 0xFFFFFFFFFFFFFFFFFFFFFFFFFFFFFFFFFFFFFFFF AND PUSH20 0xFFFFFFFFFFFFFFFFFFFFFFFFFFFFFFFFFFFFFFFF AND DUP2 MSTORE PUSH1 0x20 ADD SWAP1 DUP2 MSTORE PUSH1 0x20 ADD PUSH1 0x0 KECCAK256 SLOAD PUSH2 0x16E8 SWAP1 SWAP2 SWAP1 PUSH4 0xFFFFFFFF AND JUMP JUMPDEST PUSH1 0x9 PUSH1 0x0 DUP7 PUSH20 0xFFFFFFFFFFFFFFFFFFFFFFFFFFFFFFFFFFFFFFFF AND PUSH20 0xFFFFFFFFFFFFFFFFFFFFFFFFFFFFFFFFFFFFFFFF AND DUP2 MSTORE PUSH1 0x20 ADD SWAP1 DUP2 MSTORE PUSH1 0x20 ADD PUSH1 0x0 KECCAK256 DUP2 SWAP1 SSTORE POP DUP1 DUP1 PUSH2 0x16A8 SWAP1 PUSH2 0x2287 JUMP JUMPDEST SWAP2 POP POP PUSH2 0x14C7 JUMP JUMPDEST POP PUSH1 0x0 DUP2 GT ISZERO PUSH2 0x16C5 JUMPI PUSH2 0x16C4 DUP2 DUP5 PUSH2 0x16FE JUMP JUMPDEST JUMPDEST POP POP POP JUMP JUMPDEST PUSH1 0x0 CALLER SWAP1 POP SWAP1 JUMP JUMPDEST PUSH1 0x0 DUP2 DUP4 PUSH2 0x16E0 SWAP2 SWAP1 PUSH2 0x21F4 JUMP JUMPDEST SWAP1 POP SWAP3 SWAP2 POP POP JUMP JUMPDEST PUSH1 0x0 DUP2 DUP4 PUSH2 0x16F6 SWAP2 SWAP1 PUSH2 0x2113 JUMP JUMPDEST SWAP1 POP SWAP3 SWAP2 POP POP JUMP JUMPDEST PUSH2 0x1750 DUP3 PUSH1 0x6 PUSH1 0x0 DUP5 PUSH20 0xFFFFFFFFFFFFFFFFFFFFFFFFFFFFFFFFFFFFFFFF AND PUSH20 0xFFFFFFFFFFFFFFFFFFFFFFFFFFFFFFFFFFFFFFFF AND DUP2 MSTORE PUSH1 0x20 ADD SWAP1 DUP2 MSTORE PUSH1 0x20 ADD PUSH1 0x0 KECCAK256 SLOAD PUSH2 0x16D2 SWAP1 SWAP2 SWAP1 PUSH4 0xFFFFFFFF AND JUMP JUMPDEST PUSH1 0x6 PUSH1 0x0 DUP4 PUSH20 0xFFFFFFFFFFFFFFFFFFFFFFFFFFFFFFFFFFFFFFFF AND PUSH20 0xFFFFFFFFFFFFFFFFFFFFFFFFFFFFFFFFFFFFFFFF AND DUP2 MSTORE PUSH1 0x20 ADD SWAP1 DUP2 MSTORE PUSH1 0x20 ADD PUSH1 0x0 KECCAK256 DUP2 SWAP1 SSTORE POP PUSH1 0x4 PUSH1 0x0 SWAP1 SLOAD SWAP1 PUSH2 0x100 EXP SWAP1 DIV PUSH20 0xFFFFFFFFFFFFFFFFFFFFFFFFFFFFFFFFFFFFFFFF AND PUSH20 0xFFFFFFFFFFFFFFFFFFFFFFFFFFFFFFFFFFFFFFFF AND PUSH4 0xA9059CBB DUP3 DUP5 PUSH1 0x40 MLOAD DUP4 PUSH4 0xFFFFFFFF AND PUSH1 0xE0 SHL DUP2 MSTORE PUSH1 0x4 ADD PUSH2 0x17F0 SWAP3 SWAP2 SWAP1 PUSH2 0x1EC8 JUMP JUMPDEST PUSH1 0x20 PUSH1 0x40 MLOAD DUP1 DUP4 SUB DUP2 PUSH1 0x0 DUP8 DUP1 EXTCODESIZE ISZERO DUP1 ISZERO PUSH2 0x180A JUMPI PUSH1 0x0 DUP1 REVERT JUMPDEST POP GAS CALL ISZERO DUP1 ISZERO PUSH2 0x181E JUMPI RETURNDATASIZE PUSH1 0x0 DUP1 RETURNDATACOPY RETURNDATASIZE PUSH1 0x0 REVERT JUMPDEST POP POP POP POP PUSH1 0x40 MLOAD RETURNDATASIZE PUSH1 0x1F NOT PUSH1 0x1F DUP3 ADD AND DUP3 ADD DUP1 PUSH1 0x40 MSTORE POP DUP2 ADD SWAP1 PUSH2 0x1842 SWAP2 SWAP1 PUSH2 0x1A95 JUMP JUMPDEST POP DUP1 PUSH20 0xFFFFFFFFFFFFFFFFFFFFFFFFFFFFFFFFFFFFFFFF AND PUSH32 0x221C08A06B07A64803B3787861A3F276212FCCCB51C2E6234077A9B8CB13047A DUP4 PUSH1 0x40 MLOAD PUSH2 0x1889 SWAP2 SWAP1 PUSH2 0x2049 JUMP JUMPDEST PUSH1 0x40 MLOAD DUP1 SWAP2 SUB SWAP1 LOG2 POP POP JUMP JUMPDEST PUSH1 0x0 PUSH2 0x18A8 PUSH2 0x18A3 DUP5 PUSH2 0x2095 JUMP JUMPDEST PUSH2 0x2064 JUMP JUMPDEST SWAP1 POP DUP1 DUP4 DUP3 MSTORE PUSH1 0x20 DUP3 ADD SWAP1 POP DUP3 DUP6 PUSH1 0x20 DUP7 MUL DUP3 ADD GT ISZERO PUSH2 0x18C7 JUMPI PUSH1 0x0 DUP1 REVERT JUMPDEST PUSH1 0x0 JUMPDEST DUP6 DUP2 LT ISZERO PUSH2 0x18F7 JUMPI DUP2 PUSH2 0x18DD DUP9 DUP3 PUSH2 0x196D JUMP JUMPDEST DUP5 MSTORE PUSH1 0x20 DUP5 ADD SWAP4 POP PUSH1 0x20 DUP4 ADD SWAP3 POP POP PUSH1 0x1 DUP2 ADD SWAP1 POP PUSH2 0x18CA JUMP JUMPDEST POP POP POP SWAP4 SWAP3 POP POP POP JUMP JUMPDEST PUSH1 0x0 PUSH2 0x1914 PUSH2 0x190F DUP5 PUSH2 0x20C1 JUMP JUMPDEST PUSH2 0x2064 JUMP JUMPDEST SWAP1 POP DUP1 DUP4 DUP3 MSTORE PUSH1 0x20 DUP3 ADD SWAP1 POP DUP3 DUP6 PUSH1 0x20 DUP7 MUL DUP3 ADD GT ISZERO PUSH2 0x1933 JUMPI PUSH1 0x0 DUP1 REVERT JUMPDEST PUSH1 0x0 JUMPDEST DUP6 DUP2 LT ISZERO PUSH2 0x1963 JUMPI DUP2 PUSH2 0x1949 DUP9 DUP3 PUSH2 0x19EB JUMP JUMPDEST DUP5 MSTORE PUSH1 0x20 DUP5 ADD SWAP4 POP PUSH1 0x20 DUP4 ADD SWAP3 POP POP PUSH1 0x1 DUP2 ADD SWAP1 POP PUSH2 0x1936 JUMP JUMPDEST POP POP POP SWAP4 SWAP3 POP POP POP JUMP JUMPDEST PUSH1 0x0 DUP2 CALLDATALOAD SWAP1 POP PUSH2 0x197C DUP2 PUSH2 0x23C9 JUMP JUMPDEST SWAP3 SWAP2 POP POP JUMP JUMPDEST PUSH1 0x0 DUP3 PUSH1 0x1F DUP4 ADD SLT PUSH2 0x1993 JUMPI PUSH1 0x0 DUP1 REVERT JUMPDEST DUP2 CALLDATALOAD PUSH2 0x19A3 DUP5 DUP3 PUSH1 0x20 DUP7 ADD PUSH2 0x1895 JUMP JUMPDEST SWAP2 POP POP SWAP3 SWAP2 POP POP JUMP JUMPDEST PUSH1 0x0 DUP3 PUSH1 0x1F DUP4 ADD SLT PUSH2 0x19BD JUMPI PUSH1 0x0 DUP1 REVERT JUMPDEST DUP2 CALLDATALOAD PUSH2 0x19CD DUP5 DUP3 PUSH1 0x20 DUP7 ADD PUSH2 0x1901 JUMP JUMPDEST SWAP2 POP POP SWAP3 SWAP2 POP POP JUMP JUMPDEST PUSH1 0x0 DUP2 MLOAD SWAP1 POP PUSH2 0x19E5 DUP2 PUSH2 0x23E0 JUMP JUMPDEST SWAP3 SWAP2 POP POP JUMP JUMPDEST PUSH1 0x0 DUP2 CALLDATALOAD SWAP1 POP PUSH2 0x19FA DUP2 PUSH2 0x23F7 JUMP JUMPDEST SWAP3 SWAP2 POP POP JUMP JUMPDEST PUSH1 0x0 PUSH1 0x20 DUP3 DUP5 SUB SLT ISZERO PUSH2 0x1A12 JUMPI PUSH1 0x0 DUP1 REVERT JUMPDEST PUSH1 0x0 PUSH2 0x1A20 DUP5 DUP3 DUP6 ADD PUSH2 0x196D JUMP JUMPDEST SWAP2 POP POP SWAP3 SWAP2 POP POP JUMP JUMPDEST PUSH1 0x0 DUP1 PUSH1 0x40 DUP4 DUP6 SUB SLT ISZERO PUSH2 0x1A3C JUMPI PUSH1 0x0 DUP1 REVERT JUMPDEST PUSH1 0x0 DUP4 ADD CALLDATALOAD PUSH8 0xFFFFFFFFFFFFFFFF DUP2 GT ISZERO PUSH2 0x1A56 JUMPI PUSH1 0x0 DUP1 REVERT JUMPDEST PUSH2 0x1A62 DUP6 DUP3 DUP7 ADD PUSH2 0x19AC JUMP JUMPDEST SWAP3 POP POP PUSH1 0x20 DUP4 ADD CALLDATALOAD PUSH8 0xFFFFFFFFFFFFFFFF DUP2 GT ISZERO PUSH2 0x1A7F JUMPI PUSH1 0x0 DUP1 REVERT JUMPDEST PUSH2 0x1A8B DUP6 DUP3 DUP7 ADD PUSH2 0x1982 JUMP JUMPDEST SWAP2 POP POP SWAP3 POP SWAP3 SWAP1 POP JUMP JUMPDEST PUSH1 0x0 PUSH1 0x20 DUP3 DUP5 SUB SLT ISZERO PUSH2 0x1AA7 JUMPI PUSH1 0x0 DUP1 REVERT JUMPDEST PUSH1 0x0 PUSH2 0x1AB5 DUP5 DUP3 DUP6 ADD PUSH2 0x19D6 JUMP JUMPDEST SWAP2 POP POP SWAP3 SWAP2 POP POP JUMP JUMPDEST PUSH1 0x0 PUSH1 0x20 DUP3 DUP5 SUB SLT ISZERO PUSH2 0x1AD0 JUMPI PUSH1 0x0 DUP1 REVERT JUMPDEST PUSH1 0x0 PUSH2 0x1ADE DUP5 DUP3 DUP6 ADD PUSH2 0x19EB JUMP JUMPDEST SWAP2 POP POP SWAP3 SWAP2 POP POP JUMP JUMPDEST PUSH2 0x1AF0 DUP2 PUSH2 0x2228 JUMP JUMPDEST DUP3 MSTORE POP POP JUMP JUMPDEST PUSH2 0x1AFF DUP2 PUSH2 0x223A JUMP JUMPDEST DUP3 MSTORE POP POP JUMP JUMPDEST PUSH2 0x1B0E DUP2 PUSH2 0x2246 JUMP JUMPDEST DUP3 MSTORE POP POP JUMP JUMPDEST PUSH1 0x0 DUP2 SLOAD PUSH2 0x1B21 DUP2 PUSH2 0x22B1 JUMP JUMPDEST PUSH2 0x1B2B DUP2 DUP7 PUSH2 0x2102 JUMP JUMPDEST SWAP5 POP PUSH1 0x1 DUP3 AND PUSH1 0x0 DUP2 EQ PUSH2 0x1B46 JUMPI PUSH1 0x1 DUP2 EQ PUSH2 0x1B58 JUMPI PUSH2 0x1B8B JUMP JUMPDEST PUSH1 0xFF NOT DUP4 AND DUP7 MSTORE PUSH1 0x20 DUP7 ADD SWAP4 POP PUSH2 0x1B8B JUMP JUMPDEST PUSH2 0x1B61 DUP6 PUSH2 0x20ED JUMP JUMPDEST PUSH1 0x0 JUMPDEST DUP4 DUP2 LT ISZERO PUSH2 0x1B83 JUMPI DUP2 SLOAD DUP2 DUP10 ADD MSTORE PUSH1 0x1 DUP3 ADD SWAP2 POP PUSH1 0x20 DUP2 ADD SWAP1 POP PUSH2 0x1B64 JUMP JUMPDEST DUP1 DUP9 ADD SWAP6 POP POP POP JUMPDEST POP POP POP SWAP3 SWAP2 POP POP JUMP JUMPDEST PUSH1 0x0 PUSH2 0x1BA1 PUSH1 0x26 DUP4 PUSH2 0x2102 JUMP JUMPDEST SWAP2 POP PUSH32 0x4F776E61626C653A206E6577206F776E657220697320746865207A65726F2061 PUSH1 0x0 DUP4 ADD MSTORE PUSH32 0x6464726573730000000000000000000000000000000000000000000000000000 PUSH1 0x20 DUP4 ADD MSTORE PUSH1 0x40 DUP3 ADD SWAP1 POP SWAP2 SWAP1 POP JUMP JUMPDEST PUSH1 0x0 PUSH2 0x1C07 PUSH1 0x3E DUP4 PUSH2 0x2102 JUMP JUMPDEST SWAP2 POP PUSH32 0x466C6F797820546F6B656E6F6D696373203A20436C61696D206973206C6F636B PUSH1 0x0 DUP4 ADD MSTORE PUSH32 0x6564206E6F772E20506C656173652074727920616761696E206C617465720000 PUSH1 0x20 DUP4 ADD MSTORE PUSH1 0x40 DUP3 ADD SWAP1 POP SWAP2 SWAP1 POP JUMP JUMPDEST PUSH1 0x0 PUSH2 0x1C6D PUSH1 0x37 DUP4 PUSH2 0x2102 JUMP JUMPDEST SWAP2 POP PUSH32 0x466C6F797820546F6B656E6F6D696373203A20416C6C20746F6B656E20706179 PUSH1 0x0 DUP4 ADD MSTORE PUSH32 0x6D656E747320616C726561647920636F6D706C65746564000000000000000000 PUSH1 0x20 DUP4 ADD MSTORE PUSH1 0x40 DUP3 ADD SWAP1 POP SWAP2 SWAP1 POP JUMP JUMPDEST PUSH1 0x0 PUSH2 0x1CD3 PUSH1 0x29 DUP4 PUSH2 0x2102 JUMP JUMPDEST SWAP2 POP PUSH32 0x466C6F797820546F6B656E6F6D696373203A20496E7374616C6C6D656E747320 PUSH1 0x0 DUP4 ADD MSTORE PUSH32 0x636F6D706C657465640000000000000000000000000000000000000000000000 PUSH1 0x20 DUP4 ADD MSTORE PUSH1 0x40 DUP3 ADD SWAP1 POP SWAP2 SWAP1 POP JUMP JUMPDEST PUSH1 0x0 PUSH2 0x1D39 PUSH1 0x28 DUP4 PUSH2 0x2102 JUMP JUMPDEST SWAP2 POP PUSH32 0x466C6F797820546F6B656E6F6D696373203A204C6F636B20706572696F642069 PUSH1 0x0 DUP4 ADD MSTORE PUSH32 0x7320616374697665000000000000000000000000000000000000000000000000 PUSH1 0x20 DUP4 ADD MSTORE PUSH1 0x40 DUP3 ADD SWAP1 POP SWAP2 SWAP1 POP JUMP JUMPDEST PUSH1 0x0 PUSH2 0x1D9F PUSH1 0x20 DUP4 PUSH2 0x2102 JUMP JUMPDEST SWAP2 POP PUSH32 0x4F776E61626C653A2063616C6C6572206973206E6F7420746865206F776E6572 PUSH1 0x0 DUP4 ADD MSTORE PUSH1 0x20 DUP3 ADD SWAP1 POP SWAP2 SWAP1 POP JUMP JUMPDEST PUSH1 0x0 PUSH2 0x1DDF PUSH1 0x21 DUP4 PUSH2 0x2102 JUMP JUMPDEST SWAP2 POP PUSH32 0x466C6F797820546F6B656E6F6D696373203A20496E76616C69642063616C6C65 PUSH1 0x0 DUP4 ADD MSTORE PUSH32 0x7200000000000000000000000000000000000000000000000000000000000000 PUSH1 0x20 DUP4 ADD MSTORE PUSH1 0x40 DUP3 ADD SWAP1 POP SWAP2 SWAP1 POP JUMP JUMPDEST PUSH1 0x0 PUSH2 0x1E45 PUSH1 0x27 DUP4 PUSH2 0x2102 JUMP JUMPDEST SWAP2 POP PUSH32 0x466C6F797820546F6B656E6F6D696373203A20526F6C6520646F6573206E6F74 PUSH1 0x0 DUP4 ADD MSTORE PUSH32 0x2065786973747300000000000000000000000000000000000000000000000000 PUSH1 0x20 DUP4 ADD MSTORE PUSH1 0x40 DUP3 ADD SWAP1 POP SWAP2 SWAP1 POP JUMP JUMPDEST PUSH2 0x1EA7 DUP2 PUSH2 0x2270 JUMP JUMPDEST DUP3 MSTORE POP POP JUMP JUMPDEST PUSH1 0x0 PUSH1 0x20 DUP3 ADD SWAP1 POP PUSH2 0x1EC2 PUSH1 0x0 DUP4 ADD DUP5 PUSH2 0x1AE7 JUMP JUMPDEST SWAP3 SWAP2 POP POP JUMP JUMPDEST PUSH1 0x0 PUSH1 0x40 DUP3 ADD SWAP1 POP PUSH2 0x1EDD PUSH1 0x0 DUP4 ADD DUP6 PUSH2 0x1AE7 JUMP JUMPDEST PUSH2 0x1EEA PUSH1 0x20 DUP4 ADD DUP5 PUSH2 0x1E9E JUMP JUMPDEST SWAP4 SWAP3 POP POP POP JUMP JUMPDEST PUSH1 0x0 PUSH1 0x20 DUP3 ADD SWAP1 POP PUSH2 0x1F06 PUSH1 0x0 DUP4 ADD DUP5 PUSH2 0x1AF6 JUMP JUMPDEST SWAP3 SWAP2 POP POP JUMP JUMPDEST PUSH1 0x0 PUSH1 0x20 DUP3 ADD SWAP1 POP PUSH2 0x1F21 PUSH1 0x0 DUP4 ADD DUP5 PUSH2 0x1B05 JUMP JUMPDEST SWAP3 SWAP2 POP POP JUMP JUMPDEST PUSH1 0x0 PUSH1 0x20 DUP3 ADD SWAP1 POP DUP2 DUP2 SUB PUSH1 0x0 DUP4 ADD MSTORE PUSH2 0x1F41 DUP2 DUP5 PUSH2 0x1B14 JUMP JUMPDEST SWAP1 POP SWAP3 SWAP2 POP POP JUMP JUMPDEST PUSH1 0x0 PUSH1 0x20 DUP3 ADD SWAP1 POP DUP2 DUP2 SUB PUSH1 0x0 DUP4 ADD MSTORE PUSH2 0x1F62 DUP2 PUSH2 0x1B94 JUMP JUMPDEST SWAP1 POP SWAP2 SWAP1 POP JUMP JUMPDEST PUSH1 0x0 PUSH1 0x20 DUP3 ADD SWAP1 POP DUP2 DUP2 SUB PUSH1 0x0 DUP4 ADD MSTORE PUSH2 0x1F82 DUP2 PUSH2 0x1BFA JUMP JUMPDEST SWAP1 POP SWAP2 SWAP1 POP JUMP JUMPDEST PUSH1 0x0 PUSH1 0x20 DUP3 ADD SWAP1 POP DUP2 DUP2 SUB PUSH1 0x0 DUP4 ADD MSTORE PUSH2 0x1FA2 DUP2 PUSH2 0x1C60 JUMP JUMPDEST SWAP1 POP SWAP2 SWAP1 POP JUMP JUMPDEST PUSH1 0x0 PUSH1 0x20 DUP3 ADD SWAP1 POP DUP2 DUP2 SUB PUSH1 0x0 DUP4 ADD MSTORE PUSH2 0x1FC2 DUP2 PUSH2 0x1CC6 JUMP JUMPDEST SWAP1 POP SWAP2 SWAP1 POP JUMP JUMPDEST PUSH1 0x0 PUSH1 0x20 DUP3 ADD SWAP1 POP DUP2 DUP2 SUB PUSH1 0x0 DUP4 ADD MSTORE PUSH2 0x1FE2 DUP2 PUSH2 0x1D2C JUMP JUMPDEST SWAP1 POP SWAP2 SWAP1 POP JUMP JUMPDEST PUSH1 0x0 PUSH1 0x20 DUP3 ADD SWAP1 POP DUP2 DUP2 SUB PUSH1 0x0 DUP4 ADD MSTORE PUSH2 0x2002 DUP2 PUSH2 0x1D92 JUMP JUMPDEST SWAP1 POP SWAP2 SWAP1 POP JUMP JUMPDEST PUSH1 0x0 PUSH1 0x20 DUP3 ADD SWAP1 POP DUP2 DUP2 SUB PUSH1 0x0 DUP4 ADD MSTORE PUSH2 0x2022 DUP2 PUSH2 0x1DD2 JUMP JUMPDEST SWAP1 POP SWAP2 SWAP1 POP JUMP JUMPDEST PUSH1 0x0 PUSH1 0x20 DUP3 ADD SWAP1 POP DUP2 DUP2 SUB PUSH1 0x0 DUP4 ADD MSTORE PUSH2 0x2042 DUP2 PUSH2 0x1E38 JUMP JUMPDEST SWAP1 POP SWAP2 SWAP1 POP JUMP JUMPDEST PUSH1 0x0 PUSH1 0x20 DUP3 ADD SWAP1 POP PUSH2 0x205E PUSH1 0x0 DUP4 ADD DUP5 PUSH2 0x1E9E JUMP JUMPDEST SWAP3 SWAP2 POP POP JUMP JUMPDEST PUSH1 0x0 PUSH1 0x40 MLOAD SWAP1 POP DUP2 DUP2 ADD DUP2 DUP2 LT PUSH8 0xFFFFFFFFFFFFFFFF DUP3 GT OR ISZERO PUSH2 0x208B JUMPI PUSH2 0x208A PUSH2 0x239A JUMP JUMPDEST JUMPDEST DUP1 PUSH1 0x40 MSTORE POP SWAP2 SWAP1 POP JUMP JUMPDEST PUSH1 0x0 PUSH8 0xFFFFFFFFFFFFFFFF DUP3 GT ISZERO PUSH2 0x20B0 JUMPI PUSH2 0x20AF PUSH2 0x239A JUMP JUMPDEST JUMPDEST PUSH1 0x20 DUP3 MUL SWAP1 POP PUSH1 0x20 DUP2 ADD SWAP1 POP SWAP2 SWAP1 POP JUMP JUMPDEST PUSH1 0x0 PUSH8 0xFFFFFFFFFFFFFFFF DUP3 GT ISZERO PUSH2 0x20DC JUMPI PUSH2 0x20DB PUSH2 0x239A JUMP JUMPDEST JUMPDEST PUSH1 0x20 DUP3 MUL SWAP1 POP PUSH1 0x20 DUP2 ADD SWAP1 POP SWAP2 SWAP1 POP JUMP JUMPDEST PUSH1 0x0 DUP2 SWAP1 POP DUP2 PUSH1 0x0 MSTORE PUSH1 0x20 PUSH1 0x0 KECCAK256 SWAP1 POP SWAP2 SWAP1 POP JUMP JUMPDEST PUSH1 0x0 DUP3 DUP3 MSTORE PUSH1 0x20 DUP3 ADD SWAP1 POP SWAP3 SWAP2 POP POP JUMP JUMPDEST PUSH1 0x0 PUSH2 0x211E DUP3 PUSH2 0x2270 JUMP JUMPDEST SWAP2 POP PUSH2 0x2129 DUP4 PUSH2 0x2270 JUMP JUMPDEST SWAP3 POP DUP3 PUSH32 0xFFFFFFFFFFFFFFFFFFFFFFFFFFFFFFFFFFFFFFFFFFFFFFFFFFFFFFFFFFFFFFFF SUB DUP3 GT ISZERO PUSH2 0x215E JUMPI PUSH2 0x215D PUSH2 0x230D JUMP JUMPDEST JUMPDEST DUP3 DUP3 ADD SWAP1 POP SWAP3 SWAP2 POP POP JUMP JUMPDEST PUSH1 0x0 PUSH2 0x2174 DUP3 PUSH2 0x2270 JUMP JUMPDEST SWAP2 POP PUSH2 0x217F DUP4 PUSH2 0x2270 JUMP JUMPDEST SWAP3 POP DUP3 PUSH2 0x218F JUMPI PUSH2 0x218E PUSH2 0x233C JUMP JUMPDEST JUMPDEST DUP3 DUP3 DIV SWAP1 POP SWAP3 SWAP2 POP POP JUMP JUMPDEST PUSH1 0x0 PUSH2 0x21A5 DUP3 PUSH2 0x2270 JUMP JUMPDEST SWAP2 POP PUSH2 0x21B0 DUP4 PUSH2 0x2270 JUMP JUMPDEST SWAP3 POP DUP2 PUSH32 0xFFFFFFFFFFFFFFFFFFFFFFFFFFFFFFFFFFFFFFFFFFFFFFFFFFFFFFFFFFFFFFFF DIV DUP4 GT DUP3 ISZERO ISZERO AND ISZERO PUSH2 0x21E9 JUMPI PUSH2 0x21E8 PUSH2 0x230D JUMP JUMPDEST JUMPDEST DUP3 DUP3 MUL SWAP1 POP SWAP3 SWAP2 POP POP JUMP JUMPDEST PUSH1 0x0 PUSH2 0x21FF DUP3 PUSH2 0x2270 JUMP JUMPDEST SWAP2 POP PUSH2 0x220A DUP4 PUSH2 0x2270 JUMP JUMPDEST SWAP3 POP DUP3 DUP3 LT ISZERO PUSH2 0x221D JUMPI PUSH2 0x221C PUSH2 0x230D JUMP JUMPDEST JUMPDEST DUP3 DUP3 SUB SWAP1 POP SWAP3 SWAP2 POP POP JUMP JUMPDEST PUSH1 0x0 PUSH2 0x2233 DUP3 PUSH2 0x2250 JUMP JUMPDEST SWAP1 POP SWAP2 SWAP1 POP JUMP JUMPDEST PUSH1 0x0 DUP2 ISZERO ISZERO SWAP1 POP SWAP2 SWAP1 POP JUMP JUMPDEST PUSH1 0x0 DUP2 SWAP1 POP SWAP2 SWAP1 POP JUMP JUMPDEST PUSH1 0x0 PUSH20 0xFFFFFFFFFFFFFFFFFFFFFFFFFFFFFFFFFFFFFFFF DUP3 AND SWAP1 POP SWAP2 SWAP1 POP JUMP JUMPDEST PUSH1 0x0 DUP2 SWAP1 POP SWAP2 SWAP1 POP JUMP JUMPDEST PUSH1 0x0 PUSH1 0xFF DUP3 AND SWAP1 POP SWAP2 SWAP1 POP JUMP JUMPDEST PUSH1 0x0 PUSH2 0x2292 DUP3 PUSH2 0x2270 JUMP JUMPDEST SWAP2 POP PUSH1 0x0 DUP3 EQ ISZERO PUSH2 0x22A6 JUMPI PUSH2 0x22A5 PUSH2 0x230D JUMP JUMPDEST JUMPDEST PUSH1 0x1 DUP3 SUB SWAP1 POP SWAP2 SWAP1 POP JUMP JUMPDEST PUSH1 0x0 PUSH1 0x2 DUP3 DIV SWAP1 POP PUSH1 0x1 DUP3 AND DUP1 PUSH2 0x22C9 JUMPI PUSH1 0x7F DUP3 AND SWAP2 POP JUMPDEST PUSH1 0x20 DUP3 LT DUP2 EQ ISZERO PUSH2 0x22DD JUMPI PUSH2 0x22DC PUSH2 0x236B JUMP JUMPDEST JUMPDEST POP SWAP2 SWAP1 POP JUMP JUMPDEST PUSH1 0x0 PUSH2 0x22EE DUP3 PUSH2 0x227A JUMP JUMPDEST SWAP2 POP PUSH1 0xFF DUP3 EQ ISZERO PUSH2 0x2302 JUMPI PUSH2 0x2301 PUSH2 0x230D JUMP JUMPDEST JUMPDEST PUSH1 0x1 DUP3 ADD SWAP1 POP SWAP2 SWAP1 POP JUMP JUMPDEST PUSH32 0x4E487B7100000000000000000000000000000000000000000000000000000000 PUSH1 0x0 MSTORE PUSH1 0x11 PUSH1 0x4 MSTORE PUSH1 0x24 PUSH1 0x0 REVERT JUMPDEST PUSH32 0x4E487B7100000000000000000000000000000000000000000000000000000000 PUSH1 0x0 MSTORE PUSH1 0x12 PUSH1 0x4 MSTORE PUSH1 0x24 PUSH1 0x0 REVERT JUMPDEST PUSH32 0x4E487B7100000000000000000000000000000000000000000000000000000000 PUSH1 0x0 MSTORE PUSH1 0x22 PUSH1 0x4 MSTORE PUSH1 0x24 PUSH1 0x0 REVERT JUMPDEST PUSH32 0x4E487B7100000000000000000000000000000000000000000000000000000000 PUSH1 0x0 MSTORE PUSH1 0x41 PUSH1 0x4 MSTORE PUSH1 0x24 PUSH1 0x0 REVERT JUMPDEST PUSH2 0x23D2 DUP2 PUSH2 0x2228 JUMP JUMPDEST DUP2 EQ PUSH2 0x23DD JUMPI PUSH1 0x0 DUP1 REVERT JUMPDEST POP JUMP JUMPDEST PUSH2 0x23E9 DUP2 PUSH2 0x223A JUMP JUMPDEST DUP2 EQ PUSH2 0x23F4 JUMPI PUSH1 0x0 DUP1 REVERT JUMPDEST POP JUMP JUMPDEST PUSH2 0x2400 DUP2 PUSH2 0x2246 JUMP JUMPDEST DUP2 EQ PUSH2 0x240B JUMPI PUSH1 0x0 DUP1 REVERT JUMPDEST POP JUMP INVALID LOG2 PUSH5 0x6970667358 0x22 SLT KECCAK256 JUMP 0x5E PUSH25 0xA673FE705B6908E4CEE994462700C9260D4630B5CB3ED940F0 0xD5 SWAP7 0xD8 0xDB PUSH5 0x736F6C6343 STOP ADDMOD STOP STOP CALLER CHAINID PUSH13 0x6F797820546F6B656E6F6D6963 PUSH20 0x203A204E6F20647565205061796D656E74730000 "
        },
        "methodIdentifiers": {
          "ADVISOR_ROLE()": "06792f55",
          "AIRDROP_ROLE()": "1e0fbfa2",
          "DEVELOPMENT_ROLE()": "3c3b6d25",
          "ECOSYSTEM_ROLE()": "9b475aa2",
          "GRANTS_ROLE()": "c0261722",
          "LIQUIDITY_ROLE()": "e8f549ef",
          "MARKETING_ROLE()": "e1fc13e3",
          "TEAM_ROLE()": "49d5e604",
          "TOKENSALE_ROLE()": "a02f558e",
          "advisorClaim()": "74da59d6",
          "airDropClaim()": "644fd530",
          "completedInstallments(address)": "04611546",
          "deployedTime()": "461ac019",
          "developmentClaim()": "ee6f7e98",
          "ecosystemClaim()": "054933a7",
          "grantsClaim()": "1e97f531",
          "liquidityClaim()": "0f43bc3f",
          "lockClaim()": "69d8a608",
          "lockClaims()": "b61da8e4",
          "marketingClaim()": "4d80394a",
          "owner()": "8da5cb5b",
          "paymentPerMonth(address)": "00b0a502",
          "remainingInstallments(address)": "f984f210",
          "roles(bytes32)": "95356651",
          "teamClaim()": "6ae146c2",
          "tokenAllowance(address)": "77cf7630",
          "tokenSaleClaim()": "e94962ee",
          "transferOwnership(address)": "f2fde38b",
          "unixtimeOneMonth()": "52de47c1",
          "unlockClaims()": "6e18c258",
          "updateAddress(bytes32[],address[])": "58063346"
        }
      }
    }
  }
}