{
  "_format": "hh-sol-artifact-1",
  "contractName": "Divident",
  "sourceName": "contracts/Divident.sol",
  "abi": [
    {
      "inputs": [
        {
          "internalType": "address",
          "name": "_tokenAddress",
          "type": "address"
        },
        {
          "internalType": "address",
          "name": "_tokenomicsAddress",
          "type": "address"
        }
      ],
      "stateMutability": "nonpayable",
      "type": "constructor"
    },
    {
      "anonymous": false,
      "inputs": [
        {
          "indexed": true,
          "internalType": "address",
          "name": "previousOwner",
          "type": "address"
        },
        {
          "indexed": true,
          "internalType": "address",
          "name": "newOwner",
          "type": "address"
        }
      ],
      "name": "OwnershipTransferred",
      "type": "event"
    },
    {
      "inputs": [],
      "name": "CiculatingSupply",
      "outputs": [
        {
          "internalType": "uint256",
          "name": "",
          "type": "uint256"
        }
      ],
      "stateMutability": "view",
      "type": "function"
    },
    {
      "inputs": [],
      "name": "ClaimDivident",
      "outputs": [
        {
          "internalType": "uint256",
          "name": "",
          "type": "uint256"
        }
      ],
      "stateMutability": "nonpayable",
      "type": "function"
    },
    {
      "inputs": [
        {
          "internalType": "uint256",
          "name": "totalAmount_",
          "type": "uint256"
        },
        {
          "internalType": "uint256",
          "name": "percentage_",
          "type": "uint256"
        }
      ],
      "name": "_percentage",
      "outputs": [
        {
          "internalType": "uint256",
          "name": "",
          "type": "uint256"
        }
      ],
      "stateMutability": "pure",
      "type": "function"
    },
    {
      "inputs": [],
      "name": "contractBalance",
      "outputs": [
        {
          "internalType": "uint256",
          "name": "",
          "type": "uint256"
        }
      ],
      "stateMutability": "view",
      "type": "function"
    },
    {
      "inputs": [
        {
          "internalType": "uint256",
          "name": "userAmount",
          "type": "uint256"
        },
        {
          "internalType": "uint256",
          "name": "totalAmount",
          "type": "uint256"
        }
      ],
      "name": "getPercentageReward",
      "outputs": [
        {
          "internalType": "uint256",
          "name": "",
          "type": "uint256"
        }
      ],
      "stateMutability": "pure",
      "type": "function"
    },
    {
      "inputs": [],
      "name": "owner",
      "outputs": [
        {
          "internalType": "address",
          "name": "",
          "type": "address"
        }
      ],
      "stateMutability": "view",
      "type": "function"
    },
    {
      "inputs": [],
      "name": "rewardAmountDistributed",
      "outputs": [
        {
          "internalType": "uint256",
          "name": "",
          "type": "uint256"
        }
      ],
      "stateMutability": "view",
      "type": "function"
    },
    {
      "inputs": [],
      "name": "tokenomicsAddress",
      "outputs": [
        {
          "internalType": "address",
          "name": "",
          "type": "address"
        }
      ],
      "stateMutability": "view",
      "type": "function"
    },
    {
      "inputs": [
        {
          "internalType": "address",
          "name": "newOwner",
          "type": "address"
        }
      ],
      "name": "transferOwnership",
      "outputs": [],
      "stateMutability": "nonpayable",
      "type": "function"
    },
    {
      "inputs": [],
      "name": "userBalance",
      "outputs": [
        {
          "internalType": "uint256",
          "name": "",
          "type": "uint256"
        }
      ],
      "stateMutability": "view",
      "type": "function"
    },
    {
      "inputs": [],
      "name": "userPercentage",
      "outputs": [
        {
          "internalType": "uint256",
          "name": "",
          "type": "uint256"
        }
      ],
      "stateMutability": "view",
      "type": "function"
    }
  ],
  "bytecode": "0x60806040523480156200001157600080fd5b50604051620010d8380380620010d8833981810160405281019062000037919062000276565b6000620000496200025760201b60201c565b9050806000806101000a81548173ffffffffffffffffffffffffffffffffffffffff021916908373ffffffffffffffffffffffffffffffffffffffff1602179055508073ffffffffffffffffffffffffffffffffffffffff16600073ffffffffffffffffffffffffffffffffffffffff167f8be0079c531659141344cd1fd0a4f28419497f9722a3daafe3b4186f6b6457e060405160405180910390a350600073ffffffffffffffffffffffffffffffffffffffff168273ffffffffffffffffffffffffffffffffffffffff1614156200015a576040517f08c379a00000000000000000000000000000000000000000000000000000000081526004016200015190620002f9565b60405180910390fd5b600073ffffffffffffffffffffffffffffffffffffffff168173ffffffffffffffffffffffffffffffffffffffff161415620001cd576040517f08c379a0000000000000000000000000000000000000000000000000000000008152600401620001c490620002f9565b60405180910390fd5b80600160006101000a81548173ffffffffffffffffffffffffffffffffffffffff021916908373ffffffffffffffffffffffffffffffffffffffff16021790555081600660006101000a81548173ffffffffffffffffffffffffffffffffffffffff021916908373ffffffffffffffffffffffffffffffffffffffff16021790555050506200037a565b600033905090565b600081519050620002708162000360565b92915050565b600080604083850312156200028a57600080fd5b60006200029a858286016200025f565b9250506020620002ad858286016200025f565b9150509250929050565b6000620002c66020836200031b565b91507f546f6b656e204164647265737320636f756c64206e6f7420626520656d7074796000830152602082019050919050565b600060208201905081810360008301526200031481620002b7565b9050919050565b600082825260208201905092915050565b6000620003398262000340565b9050919050565b600073ffffffffffffffffffffffffffffffffffffffff82169050919050565b6200036b816200032c565b81146200037757600080fd5b50565b610d4e806200038a6000396000f3fe608060405234801561001057600080fd5b50600436106100a95760003560e01c80638da5cb5b116100715780638da5cb5b146101565780639dab9088146101745780639e08bc40146101a4578063bf152765146101c2578063cda653d4146101e0578063f2fde38b146101fe576100a9565b806315c49786146100ae57806350c995c3146100cc578063620c34da146100fc5780637bae2c101461011a5780638b7afe2e14610138575b600080fd5b6100b661021a565b6040516100c39190610abe565b60405180910390f35b6100e660048036038101906100e191906109be565b610240565b6040516100f39190610b42565b60405180910390f35b610104610270565b6040516101119190610b42565b60405180910390f35b610122610276565b60405161012f9190610b42565b60405180910390f35b61014061027c565b60405161014d9190610b42565b60405180910390f35b61015e610282565b60405161016b9190610abe565b60405180910390f35b61018e600480360381019061018991906109be565b6102ab565b60405161019b9190610b42565b60405180910390f35b6101ac610310565b6040516101b99190610b42565b60405180910390f35b6101ca610571565b6040516101d79190610b42565b60405180910390f35b6101e8610577565b6040516101f59190610b42565b60405180910390f35b61021860048036038101906102139190610943565b6106fc565b005b600160009054906101000a900473ffffffffffffffffffffffffffffffffffffffff1681565b6000610268606461025a84866108a590919063ffffffff16565b6108bb90919063ffffffff16565b905092915050565b60055481565b60045481565b60025481565b60008060009054906101000a900473ffffffffffffffffffffffffffffffffffffffff16905090565b60006102c46305f5e100846108a590919063ffffffff16565b925060006102ee60646102e085876108bb90919063ffffffff16565b6108a590919063ffffffff16565b90506103076305f5e100826108bb90919063ffffffff16565b91505092915050565b6000600660009054906101000a900473ffffffffffffffffffffffffffffffffffffffff1673ffffffffffffffffffffffffffffffffffffffff166370a08231306040518263ffffffff1660e01b815260040161036d9190610abe565b60206040518083038186803b15801561038557600080fd5b505afa158015610399573d6000803e3d6000fd5b505050506040513d601f19601f820116820180604052508101906103bd9190610995565b600281905550600660009054906101000a900473ffffffffffffffffffffffffffffffffffffffff1673ffffffffffffffffffffffffffffffffffffffff166370a08231336040518263ffffffff1660e01b815260040161041e9190610abe565b60206040518083038186803b15801561043657600080fd5b505afa15801561044a573d6000803e3d6000fd5b505050506040513d601f19601f8201168201806040525081019061046e9190610995565b600381905550610487600354610482610577565b6102ab565b60048190555061049b600254600454610240565b6005819055506000600554111561056857600660009054906101000a900473ffffffffffffffffffffffffffffffffffffffff1673ffffffffffffffffffffffffffffffffffffffff1663a9059cbb336005546040518363ffffffff1660e01b815260040161050b929190610ad9565b602060405180830381600087803b15801561052557600080fd5b505af1158015610539573d6000803e3d6000fd5b505050506040513d601f19601f8201168201806040525081019061055d919061096c565b50600554905061056e565b60055490505b90565b60035481565b60006106f7600660009054906101000a900473ffffffffffffffffffffffffffffffffffffffff1673ffffffffffffffffffffffffffffffffffffffff166370a08231600160009054906101000a900473ffffffffffffffffffffffffffffffffffffffff166040518263ffffffff1660e01b81526004016105f99190610abe565b60206040518083038186803b15801561061157600080fd5b505afa158015610625573d6000803e3d6000fd5b505050506040513d601f19601f820116820180604052508101906106499190610995565b600660009054906101000a900473ffffffffffffffffffffffffffffffffffffffff1673ffffffffffffffffffffffffffffffffffffffff166318160ddd6040518163ffffffff1660e01b815260040160206040518083038186803b1580156106b157600080fd5b505afa1580156106c5573d6000803e3d6000fd5b505050506040513d601f19601f820116820180604052508101906106e99190610995565b6108d190919063ffffffff16565b905090565b6107046108e7565b73ffffffffffffffffffffffffffffffffffffffff16610722610282565b73ffffffffffffffffffffffffffffffffffffffff1614610778576040517f08c379a000000000000000000000000000000000000000000000000000000000815260040161076f90610b22565b60405180910390fd5b600073ffffffffffffffffffffffffffffffffffffffff168173ffffffffffffffffffffffffffffffffffffffff1614156107e8576040517f08c379a00000000000000000000000000000000000000000000000000000000081526004016107df90610b02565b60405180910390fd5b8073ffffffffffffffffffffffffffffffffffffffff1660008054906101000a900473ffffffffffffffffffffffffffffffffffffffff1673ffffffffffffffffffffffffffffffffffffffff167f8be0079c531659141344cd1fd0a4f28419497f9722a3daafe3b4186f6b6457e060405160405180910390a3806000806101000a81548173ffffffffffffffffffffffffffffffffffffffff021916908373ffffffffffffffffffffffffffffffffffffffff16021790555050565b600081836108b39190610b9f565b905092915050565b600081836108c99190610b6e565b905092915050565b600081836108df9190610bf9565b905092915050565b600033905090565b6000813590506108fe81610cd3565b92915050565b60008151905061091381610cea565b92915050565b60008135905061092881610d01565b92915050565b60008151905061093d81610d01565b92915050565b60006020828403121561095557600080fd5b6000610963848285016108ef565b91505092915050565b60006020828403121561097e57600080fd5b600061098c84828501610904565b91505092915050565b6000602082840312156109a757600080fd5b60006109b58482850161092e565b91505092915050565b600080604083850312156109d157600080fd5b60006109df85828601610919565b92505060206109f085828601610919565b9150509250929050565b610a0381610c2d565b82525050565b6000610a16602683610b5d565b91507f4f776e61626c653a206e6577206f776e657220697320746865207a65726f206160008301527f64647265737300000000000000000000000000000000000000000000000000006020830152604082019050919050565b6000610a7c602083610b5d565b91507f4f776e61626c653a2063616c6c6572206973206e6f7420746865206f776e65726000830152602082019050919050565b610ab881610c6b565b82525050565b6000602082019050610ad360008301846109fa565b92915050565b6000604082019050610aee60008301856109fa565b610afb6020830184610aaf565b9392505050565b60006020820190508181036000830152610b1b81610a09565b9050919050565b60006020820190508181036000830152610b3b81610a6f565b9050919050565b6000602082019050610b576000830184610aaf565b92915050565b600082825260208201905092915050565b6000610b7982610c6b565b9150610b8483610c6b565b925082610b9457610b93610ca4565b5b828204905092915050565b6000610baa82610c6b565b9150610bb583610c6b565b9250817fffffffffffffffffffffffffffffffffffffffffffffffffffffffffffffffff0483118215151615610bee57610bed610c75565b5b828202905092915050565b6000610c0482610c6b565b9150610c0f83610c6b565b925082821015610c2257610c21610c75565b5b828203905092915050565b6000610c3882610c4b565b9050919050565b60008115159050919050565b600073ffffffffffffffffffffffffffffffffffffffff82169050919050565b6000819050919050565b7f4e487b7100000000000000000000000000000000000000000000000000000000600052601160045260246000fd5b7f4e487b7100000000000000000000000000000000000000000000000000000000600052601260045260246000fd5b610cdc81610c2d565b8114610ce757600080fd5b50565b610cf381610c3f565b8114610cfe57600080fd5b50565b610d0a81610c6b565b8114610d1557600080fd5b5056fea2646970667358221220dbaf94c3672b5880bc5309b8f1697f3f39811a13cbf39e281bc75f583670de9664736f6c63430008000033",
  "linkReferences": {},
  "deployedLinkReferences": {}
}