{
  "_format": "hh-sol-artifact-1",
  "contractName": "Divident",
  "sourceName": "contracts/Divident.sol",
  "abi": [
    {
      "inputs": [
        {
          "internalType": "address",
          "name": "_tokenAddress",
          "type": "address"
        },
        {
          "internalType": "address",
          "name": "_tokenomicsAddress",
          "type": "address"
        }
      ],
      "stateMutability": "nonpayable",
      "type": "constructor"
    },
    {
      "anonymous": false,
      "inputs": [
        {
          "indexed": true,
          "internalType": "address",
          "name": "previousOwner",
          "type": "address"
        },
        {
          "indexed": true,
          "internalType": "address",
          "name": "newOwner",
          "type": "address"
        }
      ],
      "name": "OwnershipTransferred",
      "type": "event"
    },
    {
      "inputs": [],
      "name": "CiculatingSupply",
      "outputs": [
        {
          "internalType": "uint256",
          "name": "",
          "type": "uint256"
        }
      ],
      "stateMutability": "view",
      "type": "function"
    },
    {
      "inputs": [],
      "name": "ClaimDivident",
      "outputs": [
        {
          "internalType": "bool",
          "name": "",
          "type": "bool"
        }
      ],
      "stateMutability": "nonpayable",
      "type": "function"
    },
    {
      "inputs": [
        {
          "internalType": "uint256",
          "name": "totalAmount_",
          "type": "uint256"
        },
        {
          "internalType": "uint256",
          "name": "percentage_",
          "type": "uint256"
        }
      ],
      "name": "_percentage",
      "outputs": [
        {
          "internalType": "uint256",
          "name": "",
          "type": "uint256"
        }
      ],
      "stateMutability": "pure",
      "type": "function"
    },
    {
      "inputs": [
        {
          "internalType": "uint256",
          "name": "userAmount",
          "type": "uint256"
        },
        {
          "internalType": "uint256",
          "name": "totalAmount",
          "type": "uint256"
        }
      ],
      "name": "getPercentageReward",
      "outputs": [
        {
          "internalType": "uint256",
          "name": "",
          "type": "uint256"
        }
      ],
      "stateMutability": "pure",
      "type": "function"
    },
    {
      "inputs": [],
      "name": "owner",
      "outputs": [
        {
          "internalType": "address",
          "name": "",
          "type": "address"
        }
      ],
      "stateMutability": "view",
      "type": "function"
    },
    {
      "inputs": [],
      "name": "rewardAmount",
      "outputs": [
        {
          "internalType": "uint256",
          "name": "",
          "type": "uint256"
        }
      ],
      "stateMutability": "view",
      "type": "function"
    },
    {
      "inputs": [],
      "name": "rewardsAmount",
      "outputs": [
        {
          "internalType": "uint256",
          "name": "",
          "type": "uint256"
        }
      ],
      "stateMutability": "view",
      "type": "function"
    },
    {
      "inputs": [],
      "name": "tokenomicsAddress",
      "outputs": [
        {
          "internalType": "address",
          "name": "",
          "type": "address"
        }
      ],
      "stateMutability": "view",
      "type": "function"
    },
    {
      "inputs": [
        {
          "internalType": "address",
          "name": "newOwner",
          "type": "address"
        }
      ],
      "name": "transferOwnership",
      "outputs": [],
      "stateMutability": "nonpayable",
      "type": "function"
    },
    {
      "inputs": [],
      "name": "userBalance",
      "outputs": [
        {
          "internalType": "uint256",
          "name": "",
          "type": "uint256"
        }
      ],
      "stateMutability": "view",
      "type": "function"
    },
    {
      "inputs": [],
      "name": "userPercentage",
      "outputs": [
        {
          "internalType": "uint256",
          "name": "",
          "type": "uint256"
        }
      ],
      "stateMutability": "view",
      "type": "function"
    }
  ],
  "bytecode": "0x60806040523480156200001157600080fd5b506040516200110038038062001100833981810160405281019062000037919062000276565b6000620000496200025760201b60201c565b9050806000806101000a81548173ffffffffffffffffffffffffffffffffffffffff021916908373ffffffffffffffffffffffffffffffffffffffff1602179055508073ffffffffffffffffffffffffffffffffffffffff16600073ffffffffffffffffffffffffffffffffffffffff167f8be0079c531659141344cd1fd0a4f28419497f9722a3daafe3b4186f6b6457e060405160405180910390a350600073ffffffffffffffffffffffffffffffffffffffff168273ffffffffffffffffffffffffffffffffffffffff1614156200015a576040517f08c379a00000000000000000000000000000000000000000000000000000000081526004016200015190620002f9565b60405180910390fd5b600073ffffffffffffffffffffffffffffffffffffffff168173ffffffffffffffffffffffffffffffffffffffff161415620001cd576040517f08c379a0000000000000000000000000000000000000000000000000000000008152600401620001c490620002f9565b60405180910390fd5b80600160006101000a81548173ffffffffffffffffffffffffffffffffffffffff021916908373ffffffffffffffffffffffffffffffffffffffff16021790555081600660006101000a81548173ffffffffffffffffffffffffffffffffffffffff021916908373ffffffffffffffffffffffffffffffffffffffff16021790555050506200037a565b600033905090565b600081519050620002708162000360565b92915050565b600080604083850312156200028a57600080fd5b60006200029a858286016200025f565b9250506020620002ad858286016200025f565b9150509250929050565b6000620002c66020836200031b565b91507f546f6b656e204164647265737320636f756c64206e6f7420626520656d7074796000830152602082019050919050565b600060208201905081810360008301526200031481620002b7565b9050919050565b600082825260208201905092915050565b6000620003398262000340565b9050919050565b600073ffffffffffffffffffffffffffffffffffffffff82169050919050565b6200036b816200032c565b81146200037757600080fd5b50565b610d76806200038a6000396000f3fe608060405234801561001057600080fd5b50600436106100a95760003560e01c80639e08bc40116100715780639e08bc4014610168578063bf15276514610186578063c13d995c146101a4578063cda653d4146101c2578063f2fde38b146101e0578063f7b2a7be146101fc576100a9565b806315c49786146100ae57806350c995c3146100cc5780637bae2c10146100fc5780638da5cb5b1461011a5780639dab908814610138575b600080fd5b6100b661021a565b6040516100c39190610acb565b60405180910390f35b6100e660048036038101906100e191906109bc565b610240565b6040516100f39190610b6a565b60405180910390f35b610104610270565b6040516101119190610b6a565b60405180910390f35b610122610276565b60405161012f9190610acb565b60405180910390f35b610152600480360381019061014d91906109bc565b61029f565b60405161015f9190610b6a565b60405180910390f35b610170610304565b60405161017d9190610b0f565b60405180910390f35b61018e610563565b60405161019b9190610b6a565b60405180910390f35b6101ac610569565b6040516101b99190610b6a565b60405180910390f35b6101ca61056f565b6040516101d79190610b6a565b60405180910390f35b6101fa60048036038101906101f59190610941565b6106f4565b005b61020461089d565b6040516102119190610b6a565b60405180910390f35b600160009054906101000a900473ffffffffffffffffffffffffffffffffffffffff1681565b6000610268606461025a84866108a390919063ffffffff16565b6108b990919063ffffffff16565b905092915050565b60045481565b60008060009054906101000a900473ffffffffffffffffffffffffffffffffffffffff16905090565b60006102b86305f5e100846108a390919063ffffffff16565b925060006102e260646102d485876108b990919063ffffffff16565b6108a390919063ffffffff16565b90506102fb6305f5e100826108b990919063ffffffff16565b91505092915050565b6000600660009054906101000a900473ffffffffffffffffffffffffffffffffffffffff1673ffffffffffffffffffffffffffffffffffffffff166370a08231306040518263ffffffff1660e01b81526004016103619190610acb565b60206040518083038186803b15801561037957600080fd5b505afa15801561038d573d6000803e3d6000fd5b505050506040513d601f19601f820116820180604052508101906103b19190610993565b600281905550600660009054906101000a900473ffffffffffffffffffffffffffffffffffffffff1673ffffffffffffffffffffffffffffffffffffffff166370a08231336040518263ffffffff1660e01b81526004016104129190610acb565b60206040518083038186803b15801561042a57600080fd5b505afa15801561043e573d6000803e3d6000fd5b505050506040513d601f19601f820116820180604052508101906104629190610993565b60038190555061047b60035461047661056f565b61029f565b60048190555061048f600254600454610240565b6005819055506000600554111561055b57600660009054906101000a900473ffffffffffffffffffffffffffffffffffffffff1673ffffffffffffffffffffffffffffffffffffffff1663a9059cbb336005546040518363ffffffff1660e01b81526004016104ff929190610ae6565b602060405180830381600087803b15801561051957600080fd5b505af115801561052d573d6000803e3d6000fd5b505050506040513d601f19601f82011682018060405250810190610551919061096a565b5060019050610560565b600090505b90565b60035481565b60025481565b60006106ef600660009054906101000a900473ffffffffffffffffffffffffffffffffffffffff1673ffffffffffffffffffffffffffffffffffffffff166370a08231600160009054906101000a900473ffffffffffffffffffffffffffffffffffffffff166040518263ffffffff1660e01b81526004016105f19190610acb565b60206040518083038186803b15801561060957600080fd5b505afa15801561061d573d6000803e3d6000fd5b505050506040513d601f19601f820116820180604052508101906106419190610993565b600660009054906101000a900473ffffffffffffffffffffffffffffffffffffffff1673ffffffffffffffffffffffffffffffffffffffff166318160ddd6040518163ffffffff1660e01b815260040160206040518083038186803b1580156106a957600080fd5b505afa1580156106bd573d6000803e3d6000fd5b505050506040513d601f19601f820116820180604052508101906106e19190610993565b6108cf90919063ffffffff16565b905090565b6106fc6108e5565b73ffffffffffffffffffffffffffffffffffffffff1661071a610276565b73ffffffffffffffffffffffffffffffffffffffff1614610770576040517f08c379a000000000000000000000000000000000000000000000000000000000815260040161076790610b4a565b60405180910390fd5b600073ffffffffffffffffffffffffffffffffffffffff168173ffffffffffffffffffffffffffffffffffffffff1614156107e0576040517f08c379a00000000000000000000000000000000000000000000000000000000081526004016107d790610b2a565b60405180910390fd5b8073ffffffffffffffffffffffffffffffffffffffff1660008054906101000a900473ffffffffffffffffffffffffffffffffffffffff1673ffffffffffffffffffffffffffffffffffffffff167f8be0079c531659141344cd1fd0a4f28419497f9722a3daafe3b4186f6b6457e060405160405180910390a3806000806101000a81548173ffffffffffffffffffffffffffffffffffffffff021916908373ffffffffffffffffffffffffffffffffffffffff16021790555050565b60055481565b600081836108b19190610bc7565b905092915050565b600081836108c79190610b96565b905092915050565b600081836108dd9190610c21565b905092915050565b600033905090565b6000813590506108fc81610cfb565b92915050565b60008151905061091181610d12565b92915050565b60008135905061092681610d29565b92915050565b60008151905061093b81610d29565b92915050565b60006020828403121561095357600080fd5b6000610961848285016108ed565b91505092915050565b60006020828403121561097c57600080fd5b600061098a84828501610902565b91505092915050565b6000602082840312156109a557600080fd5b60006109b38482850161092c565b91505092915050565b600080604083850312156109cf57600080fd5b60006109dd85828601610917565b92505060206109ee85828601610917565b9150509250929050565b610a0181610c55565b82525050565b610a1081610c67565b82525050565b6000610a23602683610b85565b91507f4f776e61626c653a206e6577206f776e657220697320746865207a65726f206160008301527f64647265737300000000000000000000000000000000000000000000000000006020830152604082019050919050565b6000610a89602083610b85565b91507f4f776e61626c653a2063616c6c6572206973206e6f7420746865206f776e65726000830152602082019050919050565b610ac581610c93565b82525050565b6000602082019050610ae060008301846109f8565b92915050565b6000604082019050610afb60008301856109f8565b610b086020830184610abc565b9392505050565b6000602082019050610b246000830184610a07565b92915050565b60006020820190508181036000830152610b4381610a16565b9050919050565b60006020820190508181036000830152610b6381610a7c565b9050919050565b6000602082019050610b7f6000830184610abc565b92915050565b600082825260208201905092915050565b6000610ba182610c93565b9150610bac83610c93565b925082610bbc57610bbb610ccc565b5b828204905092915050565b6000610bd282610c93565b9150610bdd83610c93565b9250817fffffffffffffffffffffffffffffffffffffffffffffffffffffffffffffffff0483118215151615610c1657610c15610c9d565b5b828202905092915050565b6000610c2c82610c93565b9150610c3783610c93565b925082821015610c4a57610c49610c9d565b5b828203905092915050565b6000610c6082610c73565b9050919050565b60008115159050919050565b600073ffffffffffffffffffffffffffffffffffffffff82169050919050565b6000819050919050565b7f4e487b7100000000000000000000000000000000000000000000000000000000600052601160045260246000fd5b7f4e487b7100000000000000000000000000000000000000000000000000000000600052601260045260246000fd5b610d0481610c55565b8114610d0f57600080fd5b50565b610d1b81610c67565b8114610d2657600080fd5b50565b610d3281610c93565b8114610d3d57600080fd5b5056fea2646970667358221220daebfcce87029794da1e743bd9f07c4b51754f4bf718b2e65f030a0b33c6420b64736f6c63430008000033",
  "linkReferences": {},
  "deployedLinkReferences": {}
}