{
  "_format": "hh-sol-artifact-1",
  "contractName": "RewardDistribution",
  "sourceName": "contracts/RewardDistribution.sol",
  "abi": [
    {
      "inputs": [
        {
          "internalType": "address",
          "name": "_signerAddress",
          "type": "address"
        },
        {
          "internalType": "address",
          "name": "_tokenAddress",
          "type": "address"
        }
      ],
      "stateMutability": "nonpayable",
      "type": "constructor"
    },
    {
      "anonymous": false,
      "inputs": [
        {
          "indexed": true,
          "internalType": "address",
          "name": "previousOwner",
          "type": "address"
        },
        {
          "indexed": true,
          "internalType": "address",
          "name": "newOwner",
          "type": "address"
        }
      ],
      "name": "OwnershipTransferred",
      "type": "event"
    },
    {
      "anonymous": false,
      "inputs": [
        {
          "indexed": true,
          "internalType": "address",
          "name": "userAdd",
          "type": "address"
        },
        {
          "indexed": false,
          "internalType": "uint256",
          "name": "amount",
          "type": "uint256"
        },
        {
          "indexed": false,
          "internalType": "uint256",
          "name": "withdrawalId",
          "type": "uint256"
        }
      ],
      "name": "RewardWithdrawal",
      "type": "event"
    },
    {
      "inputs": [
        {
          "internalType": "address",
          "name": "userAddress",
          "type": "address"
        },
        {
          "internalType": "uint256",
          "name": "amount",
          "type": "uint256"
        }
      ],
      "name": "adminWithdrawal",
      "outputs": [],
      "stateMutability": "nonpayable",
      "type": "function"
    },
    {
      "inputs": [],
      "name": "owner",
      "outputs": [
        {
          "internalType": "address",
          "name": "",
          "type": "address"
        }
      ],
      "stateMutability": "view",
      "type": "function"
    },
    {
      "inputs": [],
      "name": "signerAddress",
      "outputs": [
        {
          "internalType": "address",
          "name": "",
          "type": "address"
        }
      ],
      "stateMutability": "view",
      "type": "function"
    },
    {
      "inputs": [
        {
          "internalType": "address",
          "name": "newOwner",
          "type": "address"
        }
      ],
      "name": "transferOwnership",
      "outputs": [],
      "stateMutability": "nonpayable",
      "type": "function"
    },
    {
      "inputs": [
        {
          "internalType": "address",
          "name": "_signerAddress",
          "type": "address"
        }
      ],
      "name": "updateSignerAddress",
      "outputs": [],
      "stateMutability": "nonpayable",
      "type": "function"
    },
    {
      "inputs": [
        {
          "internalType": "bytes",
          "name": "",
          "type": "bytes"
        }
      ],
      "name": "usedSignatures",
      "outputs": [
        {
          "internalType": "bool",
          "name": "",
          "type": "bool"
        }
      ],
      "stateMutability": "view",
      "type": "function"
    },
    {
      "inputs": [
        {
          "internalType": "address",
          "name": "userAddress",
          "type": "address"
        },
        {
          "internalType": "uint256",
          "name": "amount",
          "type": "uint256"
        },
        {
          "internalType": "uint256",
          "name": "withdrawalId",
          "type": "uint256"
        },
        {
          "internalType": "bytes",
          "name": "signature",
          "type": "bytes"
        }
      ],
      "name": "withdrawReward",
      "outputs": [
        {
          "internalType": "bool",
          "name": "",
          "type": "bool"
        }
      ],
      "stateMutability": "nonpayable",
      "type": "function"
    }
  ],
  "bytecode": "0x60806040523480156200001157600080fd5b506040516200183738038062001837833981810160405281019062000037919062000276565b6000620000496200025760201b60201c565b9050806000806101000a81548173ffffffffffffffffffffffffffffffffffffffff021916908373ffffffffffffffffffffffffffffffffffffffff1602179055508073ffffffffffffffffffffffffffffffffffffffff16600073ffffffffffffffffffffffffffffffffffffffff167f8be0079c531659141344cd1fd0a4f28419497f9722a3daafe3b4186f6b6457e060405160405180910390a350600073ffffffffffffffffffffffffffffffffffffffff168273ffffffffffffffffffffffffffffffffffffffff1614156200015a576040517f08c379a0000000000000000000000000000000000000000000000000000000008152600401620001519062000383565b60405180910390fd5b600073ffffffffffffffffffffffffffffffffffffffff168173ffffffffffffffffffffffffffffffffffffffff161415620001cd576040517f08c379a0000000000000000000000000000000000000000000000000000000008152600401620001c49062000361565b60405180910390fd5b81600160006101000a81548173ffffffffffffffffffffffffffffffffffffffff021916908373ffffffffffffffffffffffffffffffffffffffff16021790555080600260006101000a81548173ffffffffffffffffffffffffffffffffffffffff021916908373ffffffffffffffffffffffffffffffffffffffff160217905550505062000404565b600033905090565b6000815190506200027081620003ea565b92915050565b600080604083850312156200028a57600080fd5b60006200029a858286016200025f565b9250506020620002ad858286016200025f565b9150509250929050565b6000620002c6602083620003a5565b91507f546f6b656e204164647265737320636f756c64206e6f7420626520656d7074796000830152602082019050919050565b600062000308602183620003a5565b91507f5369676e6572204164647265737320636f756c64206e6f7420626520656d707460008301527f79000000000000000000000000000000000000000000000000000000000000006020830152604082019050919050565b600060208201905081810360008301526200037c81620002b7565b9050919050565b600060208201905081810360008301526200039e81620002f9565b9050919050565b600082825260208201905092915050565b6000620003c382620003ca565b9050919050565b600073ffffffffffffffffffffffffffffffffffffffff82169050919050565b620003f581620003b6565b81146200040157600080fd5b50565b61142380620004146000396000f3fe608060405234801561001057600080fd5b506004361061007d5760003560e01c80638fa2a9f01161005b5780638fa2a9f0146100da578063a78e0355146100f6578063e949580e14610126578063f2fde38b146101565761007d565b806337307c3d146100825780635b7633d01461009e5780638da5cb5b146100bc575b600080fd5b61009c60048036038101906100979190610bab565b610172565b005b6100a6610355565b6040516100b39190611053565b60405180910390f35b6100c461037b565b6040516100d19190611053565b60405180910390f35b6100f460048036038101906100ef9190610b82565b6103a4565b005b610110600480360381019061010b9190610be7565b6104d4565b60405161011d9190611097565b60405180910390f35b610140600480360381019061013b9190610c8b565b610800565b60405161014d9190611097565b60405180910390f35b610170600480360381019061016b9190610b82565b610836565b005b61017a6109df565b73ffffffffffffffffffffffffffffffffffffffff1661019861037b565b73ffffffffffffffffffffffffffffffffffffffff16146101ee576040517f08c379a00000000000000000000000000000000000000000000000000000000081526004016101e590611177565b60405180910390fd5b600073ffffffffffffffffffffffffffffffffffffffff168273ffffffffffffffffffffffffffffffffffffffff16141561025e576040517f08c379a0000000000000000000000000000000000000000000000000000000008152600401610255906110f7565b60405180910390fd5b600081116102a1576040517f08c379a000000000000000000000000000000000000000000000000000000000815260040161029890611157565b60405180910390fd5b600260009054906101000a900473ffffffffffffffffffffffffffffffffffffffff1673ffffffffffffffffffffffffffffffffffffffff1663a9059cbb83836040518363ffffffff1660e01b81526004016102fe92919061106e565b602060405180830381600087803b15801561031857600080fd5b505af115801561032c573d6000803e3d6000fd5b505050506040513d601f19601f820116820180604052508101906103509190610c62565b505050565b600160009054906101000a900473ffffffffffffffffffffffffffffffffffffffff1681565b60008060009054906101000a900473ffffffffffffffffffffffffffffffffffffffff16905090565b6103ac6109df565b73ffffffffffffffffffffffffffffffffffffffff166103ca61037b565b73ffffffffffffffffffffffffffffffffffffffff1614610420576040517f08c379a000000000000000000000000000000000000000000000000000000000815260040161041790611177565b60405180910390fd5b600073ffffffffffffffffffffffffffffffffffffffff168173ffffffffffffffffffffffffffffffffffffffff161415610490576040517f08c379a000000000000000000000000000000000000000000000000000000000815260040161048790611197565b60405180910390fd5b80600160006101000a81548173ffffffffffffffffffffffffffffffffffffffff021916908373ffffffffffffffffffffffffffffffffffffffff16021790555050565b60008073ffffffffffffffffffffffffffffffffffffffff168573ffffffffffffffffffffffffffffffffffffffff161415610545576040517f08c379a000000000000000000000000000000000000000000000000000000000815260040161053c906110f7565b60405180910390fd5b60008411610588576040517f08c379a000000000000000000000000000000000000000000000000000000000815260040161057f90611157565b60405180910390fd5b6003826040516105989190611016565b908152602001604051809103902060009054906101000a900460ff16156105f4576040517f08c379a00000000000000000000000000000000000000000000000000000000081526004016105eb906111b7565b60405180910390fd5b600061062a86868660405160200161060e93929190610fd9565b60405160208183030381529060405280519060200120846109e7565b9050600160009054906101000a900473ffffffffffffffffffffffffffffffffffffffff1673ffffffffffffffffffffffffffffffffffffffff168173ffffffffffffffffffffffffffffffffffffffff16146106bc576040517f08c379a00000000000000000000000000000000000000000000000000000000081526004016106b390611137565b60405180910390fd5b600260009054906101000a900473ffffffffffffffffffffffffffffffffffffffff1673ffffffffffffffffffffffffffffffffffffffff1663a9059cbb87876040518363ffffffff1660e01b815260040161071992919061106e565b602060405180830381600087803b15801561073357600080fd5b505af1158015610747573d6000803e3d6000fd5b505050506040513d601f19601f8201168201806040525081019061076b9190610c62565b50600160038460405161077e9190611016565b908152602001604051809103902060006101000a81548160ff0219169083151502179055508573ffffffffffffffffffffffffffffffffffffffff167f33c8b13439ce4d29880c8bc5aada8194ded575a893a529ed5941f8e41342a33386866040516107eb9291906111d7565b60405180910390a26001915050949350505050565b6003818051602081018201805184825260208301602085012081835280955050505050506000915054906101000a900460ff1681565b61083e6109df565b73ffffffffffffffffffffffffffffffffffffffff1661085c61037b565b73ffffffffffffffffffffffffffffffffffffffff16146108b2576040517f08c379a00000000000000000000000000000000000000000000000000000000081526004016108a990611177565b60405180910390fd5b600073ffffffffffffffffffffffffffffffffffffffff168173ffffffffffffffffffffffffffffffffffffffff161415610922576040517f08c379a000000000000000000000000000000000000000000000000000000000815260040161091990611117565b60405180910390fd5b8073ffffffffffffffffffffffffffffffffffffffff1660008054906101000a900473ffffffffffffffffffffffffffffffffffffffff1673ffffffffffffffffffffffffffffffffffffffff167f8be0079c531659141344cd1fd0a4f28419497f9722a3daafe3b4186f6b6457e060405160405180910390a3806000806101000a81548173ffffffffffffffffffffffffffffffffffffffff021916908373ffffffffffffffffffffffffffffffffffffffff16021790555050565b600033905090565b60006109f283610a68565b92506000806000610a0285610a98565b80935081945082955050505060018684848460405160008152602001604052604051610a3194939291906110b2565b6020604051602081039080840390855afa158015610a53573d6000803e3d6000fd5b50505060206040510351935050505092915050565b600081604051602001610a7b919061102d565b604051602081830303815290604052805190602001209050919050565b60008060006041845114610aab57600080fd5b60008060006020870151925060408701519150606087015160001a90508083839550955095505050509193909250565b6000610aee610ae984611231565b611200565b905082815260208101848484011115610b0657600080fd5b610b118482856112f2565b509392505050565b600081359050610b28816113a8565b92915050565b600081519050610b3d816113bf565b92915050565b600082601f830112610b5457600080fd5b8135610b64848260208601610adb565b91505092915050565b600081359050610b7c816113d6565b92915050565b600060208284031215610b9457600080fd5b6000610ba284828501610b19565b91505092915050565b60008060408385031215610bbe57600080fd5b6000610bcc85828601610b19565b9250506020610bdd85828601610b6d565b9150509250929050565b60008060008060808587031215610bfd57600080fd5b6000610c0b87828801610b19565b9450506020610c1c87828801610b6d565b9350506040610c2d87828801610b6d565b925050606085013567ffffffffffffffff811115610c4a57600080fd5b610c5687828801610b43565b91505092959194509250565b600060208284031215610c7457600080fd5b6000610c8284828501610b2e565b91505092915050565b600060208284031215610c9d57600080fd5b600082013567ffffffffffffffff811115610cb757600080fd5b610cc384828501610b43565b91505092915050565b610cd581611293565b82525050565b610cec610ce782611293565b611334565b82525050565b610cfb816112a5565b82525050565b610d0a816112b1565b82525050565b610d21610d1c826112b1565b611346565b82525050565b6000610d3282611261565b610d3c818561126c565b9350610d4c818560208601611301565b80840191505092915050565b6000610d65601c83611288565b91507f19457468657265756d205369676e6564204d6573736167653a0a3332000000006000830152601c82019050919050565b6000610da5601f83611277565b91507f55736572204164647265737320636f756c64206e6f7420626520656d707479006000830152602082019050919050565b6000610de5602683611277565b91507f4f776e61626c653a206e6577206f776e657220697320746865207a65726f206160008301527f64647265737300000000000000000000000000000000000000000000000000006020830152604082019050919050565b6000610e4b600e83611277565b91507f7369676e20696e636f72726563740000000000000000000000000000000000006000830152602082019050919050565b6000610e8b601583611277565b91507f416d6f756e742063616e6e6f74206265207a65726f00000000000000000000006000830152602082019050919050565b6000610ecb602083611277565b91507f4f776e61626c653a2063616c6c6572206973206e6f7420746865206f776e65726000830152602082019050919050565b6000610f0b602183611277565b91507f5369676e6572204164647265737320636f756c64206e6f7420626520656d707460008301527f79000000000000000000000000000000000000000000000000000000000000006020830152604082019050919050565b6000610f71601783611277565b91507f5369676e61747572657320616c726561647920757365640000000000000000006000830152602082019050919050565b610fad816112db565b82525050565b610fc4610fbf826112db565b611362565b82525050565b610fd3816112e5565b82525050565b6000610fe58286610cdb565b601482019150610ff58285610fb3565b6020820191506110058284610fb3565b602082019150819050949350505050565b60006110228284610d27565b915081905092915050565b600061103882610d58565b91506110448284610d10565b60208201915081905092915050565b60006020820190506110686000830184610ccc565b92915050565b60006040820190506110836000830185610ccc565b6110906020830184610fa4565b9392505050565b60006020820190506110ac6000830184610cf2565b92915050565b60006080820190506110c76000830187610d01565b6110d46020830186610fca565b6110e16040830185610d01565b6110ee6060830184610d01565b95945050505050565b6000602082019050818103600083015261111081610d98565b9050919050565b6000602082019050818103600083015261113081610dd8565b9050919050565b6000602082019050818103600083015261115081610e3e565b9050919050565b6000602082019050818103600083015261117081610e7e565b9050919050565b6000602082019050818103600083015261119081610ebe565b9050919050565b600060208201905081810360008301526111b081610efe565b9050919050565b600060208201905081810360008301526111d081610f64565b9050919050565b60006040820190506111ec6000830185610fa4565b6111f96020830184610fa4565b9392505050565b6000604051905081810181811067ffffffffffffffff821117156112275761122661136c565b5b8060405250919050565b600067ffffffffffffffff82111561124c5761124b61136c565b5b601f19601f8301169050602081019050919050565b600081519050919050565b600081905092915050565b600082825260208201905092915050565b600081905092915050565b600061129e826112bb565b9050919050565b60008115159050919050565b6000819050919050565b600073ffffffffffffffffffffffffffffffffffffffff82169050919050565b6000819050919050565b600060ff82169050919050565b82818337600083830152505050565b60005b8381101561131f578082015181840152602081019050611304565b8381111561132e576000848401525b50505050565b600061133f82611350565b9050919050565b6000819050919050565b600061135b8261139b565b9050919050565b6000819050919050565b7f4e487b7100000000000000000000000000000000000000000000000000000000600052604160045260246000fd5b60008160601b9050919050565b6113b181611293565b81146113bc57600080fd5b50565b6113c8816112a5565b81146113d357600080fd5b50565b6113df816112db565b81146113ea57600080fd5b5056fea26469706673582212201789d548583e114681bf96eb57c4a5990a4f651c8af376da09dd880f49946b4764736f6c63430008000033",
  "linkReferences": {},
  "deployedLinkReferences": {}
}