{
  "_format": "hh-sol-artifact-1",
  "contractName": "FloyxTokenomics",
  "sourceName": "contracts/Tokenomics.sol",
  "abi": [
    {
      "inputs": [
        {
          "internalType": "address",
          "name": "floyxAddress",
          "type": "address"
        },
        {
          "internalType": "bytes32[]",
          "name": "roles_",
          "type": "bytes32[]"
        },
        {
          "internalType": "address[]",
          "name": "addresses_",
          "type": "address[]"
        },
        {
          "internalType": "uint256[]",
          "name": "allowancePercentage_",
          "type": "uint256[]"
        },
        {
          "internalType": "uint256[]",
          "name": "installmentPercentage_",
          "type": "uint256[]"
        }
      ],
      "stateMutability": "nonpayable",
      "type": "constructor"
    },
    {
      "anonymous": false,
      "inputs": [
        {
          "indexed": true,
          "internalType": "address",
          "name": "recepient",
          "type": "address"
        },
        {
          "indexed": false,
          "internalType": "uint256",
          "name": "amount",
          "type": "uint256"
        }
      ],
      "name": "FundsReleased",
      "type": "event"
    },
    {
      "anonymous": false,
      "inputs": [
        {
          "indexed": true,
          "internalType": "address",
          "name": "previousOwner",
          "type": "address"
        },
        {
          "indexed": true,
          "internalType": "address",
          "name": "newOwner",
          "type": "address"
        }
      ],
      "name": "OwnershipTransferred",
      "type": "event"
    },
    {
      "inputs": [],
      "name": "ADVISOR_ROLE",
      "outputs": [
        {
          "internalType": "bytes32",
          "name": "",
          "type": "bytes32"
        }
      ],
      "stateMutability": "view",
      "type": "function"
    },
    {
      "inputs": [],
      "name": "AIRDROP_ROLE",
      "outputs": [
        {
          "internalType": "bytes32",
          "name": "",
          "type": "bytes32"
        }
      ],
      "stateMutability": "view",
      "type": "function"
    },
    {
      "inputs": [],
      "name": "DEVELOPMENT_ROLE",
      "outputs": [
        {
          "internalType": "bytes32",
          "name": "",
          "type": "bytes32"
        }
      ],
      "stateMutability": "view",
      "type": "function"
    },
    {
      "inputs": [],
      "name": "ECOSYSTEM_ROLE",
      "outputs": [
        {
          "internalType": "bytes32",
          "name": "",
          "type": "bytes32"
        }
      ],
      "stateMutability": "view",
      "type": "function"
    },
    {
      "inputs": [],
      "name": "GRANTS_ROLE",
      "outputs": [
        {
          "internalType": "bytes32",
          "name": "",
          "type": "bytes32"
        }
      ],
      "stateMutability": "view",
      "type": "function"
    },
    {
      "inputs": [],
      "name": "LIQUIDITY_ROLE",
      "outputs": [
        {
          "internalType": "bytes32",
          "name": "",
          "type": "bytes32"
        }
      ],
      "stateMutability": "view",
      "type": "function"
    },
    {
      "inputs": [],
      "name": "MARKETING_ROLE",
      "outputs": [
        {
          "internalType": "bytes32",
          "name": "",
          "type": "bytes32"
        }
      ],
      "stateMutability": "view",
      "type": "function"
    },
    {
      "inputs": [],
      "name": "TEAM_ROLE",
      "outputs": [
        {
          "internalType": "bytes32",
          "name": "",
          "type": "bytes32"
        }
      ],
      "stateMutability": "view",
      "type": "function"
    },
    {
      "inputs": [],
      "name": "TOKENSALE_ROLE",
      "outputs": [
        {
          "internalType": "bytes32",
          "name": "",
          "type": "bytes32"
        }
      ],
      "stateMutability": "view",
      "type": "function"
    },
    {
      "inputs": [],
      "name": "advisorClaim",
      "outputs": [],
      "stateMutability": "nonpayable",
      "type": "function"
    },
    {
      "inputs": [],
      "name": "airDropClaim",
      "outputs": [],
      "stateMutability": "nonpayable",
      "type": "function"
    },
    {
      "inputs": [
        {
          "internalType": "address",
          "name": "",
          "type": "address"
        }
      ],
      "name": "completedInstallments",
      "outputs": [
        {
          "internalType": "uint256",
          "name": "",
          "type": "uint256"
        }
      ],
      "stateMutability": "view",
      "type": "function"
    },
    {
      "inputs": [],
      "name": "deployedTime",
      "outputs": [
        {
          "internalType": "uint256",
          "name": "",
          "type": "uint256"
        }
      ],
      "stateMutability": "view",
      "type": "function"
    },
    {
      "inputs": [],
      "name": "developmentClaim",
      "outputs": [],
      "stateMutability": "nonpayable",
      "type": "function"
    },
    {
      "inputs": [],
      "name": "ecosystemClaim",
      "outputs": [],
      "stateMutability": "nonpayable",
      "type": "function"
    },
    {
      "inputs": [],
      "name": "grantsClaim",
      "outputs": [],
      "stateMutability": "nonpayable",
      "type": "function"
    },
    {
      "inputs": [],
      "name": "liquidityClaim",
      "outputs": [],
      "stateMutability": "nonpayable",
      "type": "function"
    },
    {
      "inputs": [],
      "name": "lockClaim",
      "outputs": [
        {
          "internalType": "bool",
          "name": "",
          "type": "bool"
        }
      ],
      "stateMutability": "view",
      "type": "function"
    },
    {
      "inputs": [],
      "name": "lockClaims",
      "outputs": [],
      "stateMutability": "nonpayable",
      "type": "function"
    },
    {
      "inputs": [],
      "name": "marketingClaim",
      "outputs": [],
      "stateMutability": "nonpayable",
      "type": "function"
    },
    {
      "inputs": [],
      "name": "owner",
      "outputs": [
        {
          "internalType": "address",
          "name": "",
          "type": "address"
        }
      ],
      "stateMutability": "view",
      "type": "function"
    },
    {
      "inputs": [
        {
          "internalType": "address",
          "name": "",
          "type": "address"
        }
      ],
      "name": "paymentPerMonth",
      "outputs": [
        {
          "internalType": "uint256",
          "name": "",
          "type": "uint256"
        }
      ],
      "stateMutability": "view",
      "type": "function"
    },
    {
      "inputs": [
        {
          "internalType": "address",
          "name": "",
          "type": "address"
        }
      ],
      "name": "remainingInstallments",
      "outputs": [
        {
          "internalType": "uint256",
          "name": "",
          "type": "uint256"
        }
      ],
      "stateMutability": "view",
      "type": "function"
    },
    {
      "inputs": [
        {
          "internalType": "bytes32",
          "name": "",
          "type": "bytes32"
        }
      ],
      "name": "roles",
      "outputs": [
        {
          "internalType": "address",
          "name": "",
          "type": "address"
        }
      ],
      "stateMutability": "view",
      "type": "function"
    },
    {
      "inputs": [],
      "name": "teamClaim",
      "outputs": [],
      "stateMutability": "nonpayable",
      "type": "function"
    },
    {
      "inputs": [
        {
          "internalType": "address",
          "name": "",
          "type": "address"
        }
      ],
      "name": "tokenAllowance",
      "outputs": [
        {
          "internalType": "uint256",
          "name": "",
          "type": "uint256"
        }
      ],
      "stateMutability": "view",
      "type": "function"
    },
    {
      "inputs": [],
      "name": "tokenSaleClaim",
      "outputs": [],
      "stateMutability": "nonpayable",
      "type": "function"
    },
    {
      "inputs": [
        {
          "internalType": "address",
          "name": "newOwner",
          "type": "address"
        }
      ],
      "name": "transferOwnership",
      "outputs": [],
      "stateMutability": "nonpayable",
      "type": "function"
    },
    {
      "inputs": [],
      "name": "unixtimeOneMonth",
      "outputs": [
        {
          "internalType": "uint256",
          "name": "",
          "type": "uint256"
        }
      ],
      "stateMutability": "view",
      "type": "function"
    },
    {
      "inputs": [],
      "name": "unlockClaims",
      "outputs": [],
      "stateMutability": "nonpayable",
      "type": "function"
    },
    {
      "inputs": [
        {
          "internalType": "bytes32[]",
          "name": "roles_",
          "type": "bytes32[]"
        },
        {
          "internalType": "address[]",
          "name": "addresses_",
          "type": "address[]"
        }
      ],
      "name": "updateAddress",
      "outputs": [],
      "stateMutability": "nonpayable",
      "type": "function"
    }
  ],
  "bytecode": "0x6080604052604051806060016040528060228152602001620032f96022913960019080519060200190620000359291906200079a565b506000600260006101000a81548160ff0219169083151502179055503480156200005e57600080fd5b506040516200331b3803806200331b833981810160405281019062000084919062000a75565b6000620000966200072460201b60201c565b9050806000806101000a81548173ffffffffffffffffffffffffffffffffffffffff021916908373ffffffffffffffffffffffffffffffffffffffff1602179055508073ffffffffffffffffffffffffffffffffffffffff16600073ffffffffffffffffffffffffffffffffffffffff167f8be0079c531659141344cd1fd0a4f28419497f9722a3daafe3b4186f6b6457e060405160405180910390a35083518351146200014357600080fd5b4260038190555084600460006101000a81548173ffffffffffffffffffffffffffffffffffffffff021916908373ffffffffffffffffffffffffffffffffffffffff1602179055506000600460009054906101000a900473ffffffffffffffffffffffffffffffffffffffff1673ffffffffffffffffffffffffffffffffffffffff166318160ddd6040518163ffffffff1660e01b815260040160206040518083038186803b158015620001f657600080fd5b505afa1580156200020b573d6000803e3d6000fd5b505050506040513d601f19601f8201168201806040525081019062000231919062000b5b565b905060005b84518160ff1610156200071757848160ff168151811062000280577f4e487b7100000000000000000000000000000000000000000000000000000000600052603260045260246000fd5b602002602001015160056000888460ff1681518110620002c9577f4e487b7100000000000000000000000000000000000000000000000000000000600052603260045260246000fd5b6020026020010151815260200190815260200160002060006101000a81548173ffffffffffffffffffffffffffffffffffffffff021916908373ffffffffffffffffffffffffffffffffffffffff1602179055506200037382858360ff16815181106200035f577f4e487b7100000000000000000000000000000000000000000000000000000000600052603260045260246000fd5b60200260200101516200072c60201b60201c565b60066000878460ff1681518110620003b4577f4e487b7100000000000000000000000000000000000000000000000000000000600052603260045260246000fd5b602002602001015173ffffffffffffffffffffffffffffffffffffffff1673ffffffffffffffffffffffffffffffffffffffff16815260200190815260200160002081905550620004d360066000878460ff16815181106200043f577f4e487b7100000000000000000000000000000000000000000000000000000000600052603260045260246000fd5b602002602001015173ffffffffffffffffffffffffffffffffffffffff1673ffffffffffffffffffffffffffffffffffffffff16815260200190815260200160002054848360ff1681518110620004bf577f4e487b7100000000000000000000000000000000000000000000000000000000600052603260045260246000fd5b60200260200101516200072c60201b60201c565b60076000878460ff168151811062000514577f4e487b7100000000000000000000000000000000000000000000000000000000600052603260045260246000fd5b602002602001015173ffffffffffffffffffffffffffffffffffffffff1673ffffffffffffffffffffffffffffffffffffffff168152602001908152602001600020819055506200067a60076000878460ff16815181106200059f577f4e487b7100000000000000000000000000000000000000000000000000000000600052603260045260246000fd5b602002602001015173ffffffffffffffffffffffffffffffffffffffff1673ffffffffffffffffffffffffffffffffffffffff1681526020019081526020016000205460066000888560ff168151811062000623577f4e487b7100000000000000000000000000000000000000000000000000000000600052603260045260246000fd5b602002602001015173ffffffffffffffffffffffffffffffffffffffff1673ffffffffffffffffffffffffffffffffffffffff168152602001908152602001600020546200076a60201b620011491790919060201c565b60086000878460ff1681518110620006bb577f4e487b7100000000000000000000000000000000000000000000000000000000600052603260045260246000fd5b602002602001015173ffffffffffffffffffffffffffffffffffffffff1673ffffffffffffffffffffffffffffffffffffffff1681526020019081526020016000208190555080806200070e9062000d6c565b91505062000236565b5050505050505062000ea5565b600033905090565b60006200076260646200074e84866200078260201b6200115f1790919060201c565b6200076a60201b620011491790919060201c565b905092915050565b600081836200077a919062000c48565b905092915050565b6000818362000792919062000c80565b905092915050565b828054620007a89062000d36565b90600052602060002090601f016020900481019282620007cc576000855562000818565b82601f10620007e757805160ff191683800117855562000818565b8280016001018555821562000818579182015b8281111562000817578251825591602001919060010190620007fa565b5b5090506200082791906200082b565b5090565b5b80821115620008465760008160009055506001016200082c565b5090565b6000620008616200085b8462000bbb565b62000b87565b905080838252602082019050828560208602820111156200088157600080fd5b60005b85811015620008b557816200089a8882620009a9565b84526020840193506020830192505060018101905062000884565b5050509392505050565b6000620008d6620008d08462000bea565b62000b87565b90508083825260208201905082856020860282011115620008f657600080fd5b60005b858110156200092a57816200090f888262000a47565b845260208401935060208301925050600181019050620008f9565b5050509392505050565b60006200094b620009458462000c19565b62000b87565b905080838252602082019050828560208602820111156200096b57600080fd5b60005b858110156200099f578162000984888262000a5e565b8452602084019350602083019250506001810190506200096e565b5050509392505050565b600081519050620009ba8162000e57565b92915050565b600082601f830112620009d257600080fd5b8151620009e48482602086016200084a565b91505092915050565b600082601f830112620009ff57600080fd5b815162000a11848260208601620008bf565b91505092915050565b600082601f83011262000a2c57600080fd5b815162000a3e84826020860162000934565b91505092915050565b60008151905062000a588162000e71565b92915050565b60008151905062000a6f8162000e8b565b92915050565b600080600080600060a0868803121562000a8e57600080fd5b600062000a9e88828901620009a9565b955050602086015167ffffffffffffffff81111562000abc57600080fd5b62000aca88828901620009ed565b945050604086015167ffffffffffffffff81111562000ae857600080fd5b62000af688828901620009c0565b935050606086015167ffffffffffffffff81111562000b1457600080fd5b62000b228882890162000a1a565b925050608086015167ffffffffffffffff81111562000b4057600080fd5b62000b4e8882890162000a1a565b9150509295509295909350565b60006020828403121562000b6e57600080fd5b600062000b7e8482850162000a5e565b91505092915050565b6000604051905081810181811067ffffffffffffffff8211171562000bb15762000bb062000e28565b5b8060405250919050565b600067ffffffffffffffff82111562000bd95762000bd862000e28565b5b602082029050602081019050919050565b600067ffffffffffffffff82111562000c085762000c0762000e28565b5b602082029050602081019050919050565b600067ffffffffffffffff82111562000c375762000c3662000e28565b5b602082029050602081019050919050565b600062000c558262000d1f565b915062000c628362000d1f565b92508262000c755762000c7462000dca565b5b828204905092915050565b600062000c8d8262000d1f565b915062000c9a8362000d1f565b9250817fffffffffffffffffffffffffffffffffffffffffffffffffffffffffffffffff048311821515161562000cd65762000cd562000d9b565b5b828202905092915050565b600062000cee8262000cff565b9050919050565b6000819050919050565b600073ffffffffffffffffffffffffffffffffffffffff82169050919050565b6000819050919050565b600060ff82169050919050565b6000600282049050600182168062000d4f57607f821691505b6020821081141562000d665762000d6562000df9565b5b50919050565b600062000d798262000d29565b915060ff82141562000d905762000d8f62000d9b565b5b600182019050919050565b7f4e487b7100000000000000000000000000000000000000000000000000000000600052601160045260246000fd5b7f4e487b7100000000000000000000000000000000000000000000000000000000600052601260045260246000fd5b7f4e487b7100000000000000000000000000000000000000000000000000000000600052602260045260246000fd5b7f4e487b7100000000000000000000000000000000000000000000000000000000600052604160045260246000fd5b62000e628162000ce1565b811462000e6e57600080fd5b50565b62000e7c8162000cf5565b811462000e8857600080fd5b50565b62000e968162000d1f565b811462000ea257600080fd5b50565b6124448062000eb56000396000f3fe608060405234801561001057600080fd5b50600436106101e45760003560e01c80636ae146c21161010f578063b61da8e4116100a2578063e94962ee11610071578063e94962ee146104a5578063ee6f7e98146104af578063f2fde38b146104b9578063f984f210146104d5576101e4565b8063b61da8e414610441578063c02617221461044b578063e1fc13e314610469578063e8f549ef14610487576101e4565b80638da5cb5b116100de5780638da5cb5b146103b757806395356651146103d55780639b475aa214610405578063a02f558e14610423576101e4565b80636ae146c2146103695780636e18c2581461037357806374da59d61461037d57806377cf763014610387576101e4565b80633c3b6d251161018757806352de47c11161015657806352de47c1146103075780635806334614610325578063644fd5301461034157806369d8a6081461034b576101e4565b80633c3b6d25146102a3578063461ac019146102c157806349d5e604146102df5780634d80394a146102fd576101e4565b806306792f55116101c357806306792f55146102535780630f43bc3f146102715780631e0fbfa21461027b5780631e97f53114610299576101e4565b8062b0a502146101e95780630461154614610219578063054933a714610249575b600080fd5b61020360048036038101906101fe9190611a00565b610505565b6040516102109190612049565b60405180910390f35b610233600480360381019061022e9190611a00565b61051d565b6040516102409190612049565b60405180910390f35b610251610535565b005b61025b6105c2565b6040516102689190611f0c565b60405180910390f35b6102796105e6565b005b61028361065b565b6040516102909190611f0c565b60405180910390f35b6102a161067f565b005b6102ab61070c565b6040516102b89190611f0c565b60405180910390f35b6102c9610730565b6040516102d69190612049565b60405180910390f35b6102e7610736565b6040516102f49190611f0c565b60405180910390f35b61030561075a565b005b61030f6107e7565b60405161031c9190612049565b60405180910390f35b61033f600480360381019061033a9190611a29565b6107ed565b005b610349610a5c565b005b610353610ae9565b6040516103609190611ef1565b60405180910390f35b610371610afc565b005b61037b610b89565b005b610385610c22565b005b6103a1600480360381019061039c9190611a00565b610cc5565b6040516103ae9190612049565b60405180910390f35b6103bf610cdd565b6040516103cc9190611ead565b60405180910390f35b6103ef60048036038101906103ea9190611abe565b610d06565b6040516103fc9190611ead565b60405180910390f35b61040d610d39565b60405161041a9190611f0c565b60405180910390f35b61042b610d5d565b6040516104389190611f0c565b60405180910390f35b610449610d81565b005b610453610e1a565b6040516104609190611f0c565b60405180910390f35b610471610e3e565b60405161047e9190611f0c565b60405180910390f35b61048f610e62565b60405161049c9190611f0c565b60405180910390f35b6104ad610e86565b005b6104b7610efb565b005b6104d360048036038101906104ce9190611a00565b610f88565b005b6104ef60048036038101906104ea9190611a00565b611131565b6040516104fc9190612049565b60405180910390f35b60076020528060005260406000206000915090505481565b60096020528060005260406000206000915090505481565b61055f7fdd7f4dc9b35ac72d649723b085bbc7dd3f5d3da1af9751c1605dc4aa94a9486633611175565b600061056b6000611374565b9050600081116001906105b4576040517f08c379a00000000000000000000000000000000000000000000000000000000081526004016105ab9190611f27565b60405180910390fd5b506105bf338261146b565b50565b7f9c1ca198f61ac1647c38f20b6678649f8e87b7e06309094d812edd1e9119d30981565b6106107f39a8b3e6e97619937505a2ae24f70fc909c329e7595f016056def5c61ec407f433611175565b61065933600860003373ffffffffffffffffffffffffffffffffffffffff1673ffffffffffffffffffffffffffffffffffffffff1681526020019081526020016000205461146b565b565b7f3a2f235c9daaf33349d300aadff2f15078a89df81bcfdd45ba11c8f816bddc6f81565b6106a97f175d7b85ff1bc91c4b0c406862c9875f787d29798bfc84e43d7eda7bb7543a3133611175565b60006106b56003611374565b9050600081116001906106fe576040517f08c379a00000000000000000000000000000000000000000000000000000000081526004016106f59190611f27565b60405180910390fd5b50610709338261146b565b50565b7f5351739d55170cfb22a4ca0ed7c81953f896619e021ad6df97d197953d00ffd281565b60035481565b7f5146a08baf902532d0ee2f909971144f12ca32651cd70cbee1117cddfb3b3b3381565b6107847f33ed200cce320c90b0f5226969f1f198e39ade4221f23425218e256d5152f76533611175565b60006107906000611374565b9050600081116001906107d9576040517f08c379a00000000000000000000000000000000000000000000000000000000081526004016107d09190611f27565b60405180910390fd5b506107e4338261146b565b50565b612a3081565b6107f56116ca565b73ffffffffffffffffffffffffffffffffffffffff16610813610cdd565b73ffffffffffffffffffffffffffffffffffffffff1614610869576040517f08c379a000000000000000000000000000000000000000000000000000000000815260040161086090611fe9565b60405180910390fd5b815181511461087757600080fd5b60005b82518160ff161015610a5757600073ffffffffffffffffffffffffffffffffffffffff1660056000858460ff16815181106108de577f4e487b7100000000000000000000000000000000000000000000000000000000600052603260045260246000fd5b6020026020010151815260200190815260200160002060009054906101000a900473ffffffffffffffffffffffffffffffffffffffff1673ffffffffffffffffffffffffffffffffffffffff16141561096c576040517f08c379a000000000000000000000000000000000000000000000000000000000815260040161096390612029565b60405180910390fd5b818160ff16815181106109a8577f4e487b7100000000000000000000000000000000000000000000000000000000600052603260045260246000fd5b602002602001015160056000858460ff16815181106109f0577f4e487b7100000000000000000000000000000000000000000000000000000000600052603260045260246000fd5b6020026020010151815260200190815260200160002060006101000a81548173ffffffffffffffffffffffffffffffffffffffff021916908373ffffffffffffffffffffffffffffffffffffffff1602179055508080610a4f906122e3565b91505061087a565b505050565b610a867f3a2f235c9daaf33349d300aadff2f15078a89df81bcfdd45ba11c8f816bddc6f33611175565b6000610a926000611374565b905060008111600190610adb576040517f08c379a0000000000000000000000000000000000000000000000000000000008152600401610ad29190611f27565b60405180910390fd5b50610ae6338261146b565b50565b600260009054906101000a900460ff1681565b610b267f5146a08baf902532d0ee2f909971144f12ca32651cd70cbee1117cddfb3b3b3333611175565b6000610b326000611374565b905060008111600190610b7b576040517f08c379a0000000000000000000000000000000000000000000000000000000008152600401610b729190611f27565b60405180910390fd5b50610b86338261146b565b50565b610b916116ca565b73ffffffffffffffffffffffffffffffffffffffff16610baf610cdd565b73ffffffffffffffffffffffffffffffffffffffff1614610c05576040517f08c379a0000000000000000000000000000000000000000000000000000000008152600401610bfc90611fe9565b60405180910390fd5b6000600260006101000a81548160ff021916908315150217905550565b610c4c7f9c1ca198f61ac1647c38f20b6678649f8e87b7e06309094d812edd1e9119d30933611175565b6000610c586000611374565b9050610c6e60038261114990919063ffffffff16565b905060008111600190610cb7576040517f08c379a0000000000000000000000000000000000000000000000000000000008152600401610cae9190611f27565b60405180910390fd5b50610cc2338261146b565b50565b60066020528060005260406000206000915090505481565b60008060009054906101000a900473ffffffffffffffffffffffffffffffffffffffff16905090565b60056020528060005260406000206000915054906101000a900473ffffffffffffffffffffffffffffffffffffffff1681565b7fdd7f4dc9b35ac72d649723b085bbc7dd3f5d3da1af9751c1605dc4aa94a9486681565b7fa08aacfe27eee176d3a98646161bdd8127a631f5d126a7366caa91d0f6ac9fde81565b610d896116ca565b73ffffffffffffffffffffffffffffffffffffffff16610da7610cdd565b73ffffffffffffffffffffffffffffffffffffffff1614610dfd576040517f08c379a0000000000000000000000000000000000000000000000000000000008152600401610df490611fe9565b60405180910390fd5b6001600260006101000a81548160ff021916908315150217905550565b7f175d7b85ff1bc91c4b0c406862c9875f787d29798bfc84e43d7eda7bb7543a3181565b7f33ed200cce320c90b0f5226969f1f198e39ade4221f23425218e256d5152f76581565b7f39a8b3e6e97619937505a2ae24f70fc909c329e7595f016056def5c61ec407f481565b610eb07fa08aacfe27eee176d3a98646161bdd8127a631f5d126a7366caa91d0f6ac9fde33611175565b610ef933600860003373ffffffffffffffffffffffffffffffffffffffff1673ffffffffffffffffffffffffffffffffffffffff1681526020019081526020016000205461146b565b565b610f257f5351739d55170cfb22a4ca0ed7c81953f896619e021ad6df97d197953d00ffd233611175565b6000610f316000611374565b905060008111600190610f7a576040517f08c379a0000000000000000000000000000000000000000000000000000000008152600401610f719190611f27565b60405180910390fd5b50610f85338261146b565b50565b610f906116ca565b73ffffffffffffffffffffffffffffffffffffffff16610fae610cdd565b73ffffffffffffffffffffffffffffffffffffffff1614611004576040517f08c379a0000000000000000000000000000000000000000000000000000000008152600401610ffb90611fe9565b60405180910390fd5b600073ffffffffffffffffffffffffffffffffffffffff168173ffffffffffffffffffffffffffffffffffffffff161415611074576040517f08c379a000000000000000000000000000000000000000000000000000000000815260040161106b90611f49565b60405180910390fd5b8073ffffffffffffffffffffffffffffffffffffffff1660008054906101000a900473ffffffffffffffffffffffffffffffffffffffff1673ffffffffffffffffffffffffffffffffffffffff167f8be0079c531659141344cd1fd0a4f28419497f9722a3daafe3b4186f6b6457e060405160405180910390a3806000806101000a81548173ffffffffffffffffffffffffffffffffffffffff021916908373ffffffffffffffffffffffffffffffffffffffff16021790555050565b60086020528060005260406000206000915090505481565b600081836111579190612169565b905092915050565b6000818361116d919061219a565b905092915050565b60001515600260009054906101000a900460ff161515146111cb576040517f08c379a00000000000000000000000000000000000000000000000000000000081526004016111c290611f69565b60405180910390fd5b8073ffffffffffffffffffffffffffffffffffffffff166005600084815260200190815260200160002060009054906101000a900473ffffffffffffffffffffffffffffffffffffffff1673ffffffffffffffffffffffffffffffffffffffff161461126c576040517f08c379a000000000000000000000000000000000000000000000000000000000815260040161126390612009565b60405180910390fd5b6000600660008373ffffffffffffffffffffffffffffffffffffffff1673ffffffffffffffffffffffffffffffffffffffff16815260200190815260200160002054116112ee576040517f08c379a00000000000000000000000000000000000000000000000000000000081526004016112e590611f89565b60405180910390fd5b6000600860008373ffffffffffffffffffffffffffffffffffffffff1673ffffffffffffffffffffffffffffffffffffffff1681526020019081526020016000205411611370576040517f08c379a000000000000000000000000000000000000000000000000000000000815260040161136790611fa9565b60405180910390fd5b5050565b6000804290506000611391600354836116d290919063ffffffff16565b905060006113aa612a308661115f90919063ffffffff16565b90508082116113ee576040517f08c379a00000000000000000000000000000000000000000000000000000000081526004016113e590611fc9565b60405180910390fd5b61140181836116d290919063ffffffff16565b915060008211611446576040517f08c379a000000000000000000000000000000000000000000000000000000000815260040161143d90611fc9565b60405180910390fd5b600061145d612a308461114990919063ffffffff16565b905080945050505050919050565b60006114bf600960008573ffffffffffffffffffffffffffffffffffffffff1673ffffffffffffffffffffffffffffffffffffffff16815260200190815260200160002054836116d290919063ffffffff16565b915060008290505b60008111156116b0576000600860008673ffffffffffffffffffffffffffffffffffffffff1673ffffffffffffffffffffffffffffffffffffffff16815260200190815260200160002054141561151d576116b0565b61156f600760008673ffffffffffffffffffffffffffffffffffffffff1673ffffffffffffffffffffffffffffffffffffffff16815260200190815260200160002054836116e890919063ffffffff16565b91506115c46001600860008773ffffffffffffffffffffffffffffffffffffffff1673ffffffffffffffffffffffffffffffffffffffff168152602001908152602001600020546116d290919063ffffffff16565b600860008673ffffffffffffffffffffffffffffffffffffffff1673ffffffffffffffffffffffffffffffffffffffff1681526020019081526020016000208190555061165a6001600960008773ffffffffffffffffffffffffffffffffffffffff1673ffffffffffffffffffffffffffffffffffffffff168152602001908152602001600020546116e890919063ffffffff16565b600960008673ffffffffffffffffffffffffffffffffffffffff1673ffffffffffffffffffffffffffffffffffffffff1681526020019081526020016000208190555080806116a890612287565b9150506114c7565b5060008111156116c5576116c481846116fe565b5b505050565b600033905090565b600081836116e091906121f4565b905092915050565b600081836116f69190612113565b905092915050565b61175082600660008473ffffffffffffffffffffffffffffffffffffffff1673ffffffffffffffffffffffffffffffffffffffff168152602001908152602001600020546116d290919063ffffffff16565b600660008373ffffffffffffffffffffffffffffffffffffffff1673ffffffffffffffffffffffffffffffffffffffff16815260200190815260200160002081905550600460009054906101000a900473ffffffffffffffffffffffffffffffffffffffff1673ffffffffffffffffffffffffffffffffffffffff1663a9059cbb82846040518363ffffffff1660e01b81526004016117f0929190611ec8565b602060405180830381600087803b15801561180a57600080fd5b505af115801561181e573d6000803e3d6000fd5b505050506040513d601f19601f820116820180604052508101906118429190611a95565b508073ffffffffffffffffffffffffffffffffffffffff167f221c08a06b07a64803b3787861a3f276212fcccb51c2e6234077a9b8cb13047a836040516118899190612049565b60405180910390a25050565b60006118a86118a384612095565b612064565b905080838252602082019050828560208602820111156118c757600080fd5b60005b858110156118f757816118dd888261196d565b8452602084019350602083019250506001810190506118ca565b5050509392505050565b600061191461190f846120c1565b612064565b9050808382526020820190508285602086028201111561193357600080fd5b60005b85811015611963578161194988826119eb565b845260208401935060208301925050600181019050611936565b5050509392505050565b60008135905061197c816123c9565b92915050565b600082601f83011261199357600080fd5b81356119a3848260208601611895565b91505092915050565b600082601f8301126119bd57600080fd5b81356119cd848260208601611901565b91505092915050565b6000815190506119e5816123e0565b92915050565b6000813590506119fa816123f7565b92915050565b600060208284031215611a1257600080fd5b6000611a208482850161196d565b91505092915050565b60008060408385031215611a3c57600080fd5b600083013567ffffffffffffffff811115611a5657600080fd5b611a62858286016119ac565b925050602083013567ffffffffffffffff811115611a7f57600080fd5b611a8b85828601611982565b9150509250929050565b600060208284031215611aa757600080fd5b6000611ab5848285016119d6565b91505092915050565b600060208284031215611ad057600080fd5b6000611ade848285016119eb565b91505092915050565b611af081612228565b82525050565b611aff8161223a565b82525050565b611b0e81612246565b82525050565b60008154611b21816122b1565b611b2b8186612102565b94506001821660008114611b465760018114611b5857611b8b565b60ff1983168652602086019350611b8b565b611b61856120ed565b60005b83811015611b8357815481890152600182019150602081019050611b64565b808801955050505b50505092915050565b6000611ba1602683612102565b91507f4f776e61626c653a206e6577206f776e657220697320746865207a65726f206160008301527f64647265737300000000000000000000000000000000000000000000000000006020830152604082019050919050565b6000611c07603e83612102565b91507f466c6f797820546f6b656e6f6d696373203a20436c61696d206973206c6f636b60008301527f6564206e6f772e20506c656173652074727920616761696e206c6174657200006020830152604082019050919050565b6000611c6d603783612102565b91507f466c6f797820546f6b656e6f6d696373203a20416c6c20746f6b656e2070617960008301527f6d656e747320616c726561647920636f6d706c657465640000000000000000006020830152604082019050919050565b6000611cd3602983612102565b91507f466c6f797820546f6b656e6f6d696373203a20496e7374616c6c6d656e74732060008301527f636f6d706c6574656400000000000000000000000000000000000000000000006020830152604082019050919050565b6000611d39602883612102565b91507f466c6f797820546f6b656e6f6d696373203a204c6f636b20706572696f64206960008301527f73206163746976650000000000000000000000000000000000000000000000006020830152604082019050919050565b6000611d9f602083612102565b91507f4f776e61626c653a2063616c6c6572206973206e6f7420746865206f776e65726000830152602082019050919050565b6000611ddf602183612102565b91507f466c6f797820546f6b656e6f6d696373203a20496e76616c69642063616c6c6560008301527f72000000000000000000000000000000000000000000000000000000000000006020830152604082019050919050565b6000611e45602783612102565b91507f466c6f797820546f6b656e6f6d696373203a20526f6c6520646f6573206e6f7460008301527f20657869737473000000000000000000000000000000000000000000000000006020830152604082019050919050565b611ea781612270565b82525050565b6000602082019050611ec26000830184611ae7565b92915050565b6000604082019050611edd6000830185611ae7565b611eea6020830184611e9e565b9392505050565b6000602082019050611f066000830184611af6565b92915050565b6000602082019050611f216000830184611b05565b92915050565b60006020820190508181036000830152611f418184611b14565b905092915050565b60006020820190508181036000830152611f6281611b94565b9050919050565b60006020820190508181036000830152611f8281611bfa565b9050919050565b60006020820190508181036000830152611fa281611c60565b9050919050565b60006020820190508181036000830152611fc281611cc6565b9050919050565b60006020820190508181036000830152611fe281611d2c565b9050919050565b6000602082019050818103600083015261200281611d92565b9050919050565b6000602082019050818103600083015261202281611dd2565b9050919050565b6000602082019050818103600083015261204281611e38565b9050919050565b600060208201905061205e6000830184611e9e565b92915050565b6000604051905081810181811067ffffffffffffffff8211171561208b5761208a61239a565b5b8060405250919050565b600067ffffffffffffffff8211156120b0576120af61239a565b5b602082029050602081019050919050565b600067ffffffffffffffff8211156120dc576120db61239a565b5b602082029050602081019050919050565b60008190508160005260206000209050919050565b600082825260208201905092915050565b600061211e82612270565b915061212983612270565b9250827fffffffffffffffffffffffffffffffffffffffffffffffffffffffffffffffff0382111561215e5761215d61230d565b5b828201905092915050565b600061217482612270565b915061217f83612270565b92508261218f5761218e61233c565b5b828204905092915050565b60006121a582612270565b91506121b083612270565b9250817fffffffffffffffffffffffffffffffffffffffffffffffffffffffffffffffff04831182151516156121e9576121e861230d565b5b828202905092915050565b60006121ff82612270565b915061220a83612270565b92508282101561221d5761221c61230d565b5b828203905092915050565b600061223382612250565b9050919050565b60008115159050919050565b6000819050919050565b600073ffffffffffffffffffffffffffffffffffffffff82169050919050565b6000819050919050565b600060ff82169050919050565b600061229282612270565b915060008214156122a6576122a561230d565b5b600182039050919050565b600060028204905060018216806122c957607f821691505b602082108114156122dd576122dc61236b565b5b50919050565b60006122ee8261227a565b915060ff8214156123025761230161230d565b5b600182019050919050565b7f4e487b7100000000000000000000000000000000000000000000000000000000600052601160045260246000fd5b7f4e487b7100000000000000000000000000000000000000000000000000000000600052601260045260246000fd5b7f4e487b7100000000000000000000000000000000000000000000000000000000600052602260045260246000fd5b7f4e487b7100000000000000000000000000000000000000000000000000000000600052604160045260246000fd5b6123d281612228565b81146123dd57600080fd5b50565b6123e98161223a565b81146123f457600080fd5b50565b61240081612246565b811461240b57600080fd5b5056fea2646970667358221220565e78a673fe705b6908e4cee994462700c9260d4630b5cb3ed940f0d596d8db64736f6c63430008000033466c6f797820546f6b656e6f6d696373203a204e6f20647565205061796d656e7473",
  "linkReferences": {},
  "deployedLinkReferences": {}
}